:020000040800F2
:1000000040450020016900088502000887020008B9
:100010008B0200088F020008930200080000000015
:10002000000000000000000000000000970200082F
:100030009902000800000000B32D0108B58E0008E9
:100040001B6900081B6900081B6900081B69000880
:100050001B6900081B6900081B6900081B69000870
:100060001B690008153200081B6900081B6900089D
:100070001B6900081B6900081B6900081B69000850
:100080001B6900081B6900081B6900081B69000840
:100090001B6900081B6900081B6900081B69000830
:1000A0001B6900081B6900081B6900081B69000820
:1000B0001B6900081B6900081B6900081B69000810
:1000C0001B6900081B6900081B6900081B69000800
:1000D0001B6900081B690008211D00081B69000836
:1000E0001B6900081B6900081B6900081B690008E0
:1000F0001B6900081B6900081B6900081B690008D0
:100100001B6900081B690008E12300081B6900083F
:100110001B6900081B6900081B6900081B690008AF
:100120001B6900081B6900081B6900081B6900089F
:100130001B6900081B6900081B6900081B6900088F
:100140001B6900081B6900081B6900081B6900087F
:100150001B6900081B6900081B6900081B6900086F
:100160001B6900081B6900081B6900081B6900085F
:100170001B6900081B6900081B6900081B6900084F
:100180001B6900081B69000800F002F800F063F822
:100190000AA090E8000C82448344AAF10107DA45E2
:1001A00001D100F058F8AFF2090EBAE80F0013F0D1
:1001B000010F18BFFB1A43F001031847EC58010068
:1001C0000C5901000A444FF0000C10F8013B13F0E9
:1001D000070408BF10F8014B1D1108BF10F8015BA0
:1001E000641E05D010F8016B641E01F8016BF9D193
:1001F00013F0080F1EBF10F8014BAD1C0C1B09D1EA
:100200006D1E58BF01F801CBFAD505E014F8016B5B
:1002100001F8016B6D1EF9D59142D6D370470000ED
:100220000023002400250026103A28BF78C1FBD8FF
:10023000520728BF30C148BF0B607047782912F0C1
:100240007783002070471FB514F071FB12F070FC2B
:100250001FBD10B510BD12F063FD1146FFF7F3FF8F
:1002600000F08BF912F081FD03B4FFF7F2FF03BC3D
:1002700008F005FF30BF72B6704762B6704780F372
:1002800008887047704700BFFEE700BFFEE700BF69
:10029000FEE700BFFEE77047704700000CB5002086
:1002A000019000907648006840F4803074490860FE
:1002B00000BF7348006800F4003000900198401CB3
:1002C0000190009818B90198B0F5A04FF1D16C4891
:1002D000006800F4003010B10120009001E000201F
:1002E00000900098012846D165484030006840F0F1
:1002F00080506349403108606248006840F44040E3
:10030000604908605E48083000685D49083108604F
:100310000846006840F4004008600846006840F461
:10032000A05008605848091F0860081F006840F086
:100330008070091F086000BF5148006800F000701D
:100340000028F9D040F20570504908604C48083048
:10035000006820F003004A49083108600846006838
:1003600040F00200086000BF45480830006800F017
:100370000C000828F8D10CBD10B54548006840F4C1
:100380007000434908603E48006840F001003C4965
:10039000086000203A4908310860394800683D4942
:1003A0000840374908603C48091D0860081F00687C
:1003B00020F48020091F0860002031490C310860BA
:1003C000FFF76CFF4FF0006031498039086010BDC5
:1003D00070B500200022022300240221284D083598
:1003E0002D6805F00C0020B1042806D0082834D16F
:1003F00007E02A4D2A4E356033E02A4D284E3560FD
:100400002FE01F4D2D1D2D68C5F380541C4D2D1D53
:100410002D6805F03F0154B1224DB5FBF1F5184EA2
:10042000361D3668C6F3881605FB06F209E01B4D3B
:10043000B5FBF1F5124E361D3668C6F3881605FB7E
:1004400006F20F4D2D1D2D68C5F301456D1C6B0087
:10045000B2FBF3F5124E356003E0104D104E3560DF
:1004600000BF00BF064D08352D68C5F303150E4EBD
:10047000705D0B4D2D68C540094E356070BD0000A4
:10048000003802400070004008544007003C024021
:1004900088ED00E0FFFFF6FE103000240024F40099
:1004A0000000002000127A000400002038B5044645
:1004B000002500BF08F058FE68460EF0C2FD6A46EF
:1004C000012108460AF04BFE00BF00BF00BF08F044
:1004D00083FF054600BF00BF60480078401C5F49AD
:1004E000087000BF00BF284608F07AFF00BF00BFB9
:1004F00000BF00F049FB009000F02FF9009000F0E1
:100500005BFD009000F074FC009000F06DF900902D
:1005100001F041FF00906946514810F0DEFC00BF39
:1005200000BF00BF08F058FF054600BF00BF4B48A2
:100530000078401E4949087008460078A0B949482B
:100540000088002809DD00BF00BF284608F048FFEA
:1005500000BF00BF0BF0ECF90DE000BF00BF284664
:1005600008F03EFF00BF06E000BF00BF284608F0CD
:1005700037FF00BF00BF00BF38BD8AB00024532141
:100580004FF47A7002F06EFA4FF4A06006F0D8F9DA
:10059000A82008F09BFC09A80AF0B8FB00BF00BF28
:1005A00000BF08F019FF044600BF00BF2B480078C9
:1005B000401C2A49087000BF00BF204608F010FF09
:1005C00000BF00BF00BF09A8032100220592CDE9AA
:1005D00006210890104680210C22234BCDE90132E0
:1005E000CDE9031003200023AFF23F121FA10090BA
:1005F0001B480FF0FDF800BF00BF00BF08F0ECFE85
:10060000044600BF00BF15480078401E134908701B
:1006100008460078A0B913480088002809DD00BF0B
:1006200000BF204608F0DCFE00BF00BF0BF080F9E1
:100630000DE000BF00BF204608F0D2FE00BF06E07C
:1006400000BF00BF204608F0CBFE00BF00BF00BFC8
:1006500009A80AF024FE00BFFEE700008001002088
:10066000E401002044010020A8020020737461729C
:1006700074207461736B00002DED088B88B002F05C
:1006800097FA002511E0092407E0601E02A931F85D
:10069000100021F81400601EC4B2002CF5DC00200C
:1006A00002F0C4FAADF808006D1C142DEBD353E032
:1006B000092407E0601E02A931F8100021F8140097
:1006C000601EC4B2002CF5DC002002F0AFFAADF8D9
:1006D00008000024002505E002A830F814000544B5
:1006E000601CC4B20A2CF7DB284613F0DBFD41EC9A
:1006F0001B0B9FED290B53EC102B13F0E7FD41EC86
:100700001A0B9FED270B53EC102B13F0FFFB41EC62
:10071000190B9FED250B53EC102B13F0F7FB41EC5D
:10072000180B13F019FB22490860084690ED000AE7
:10073000DFED200AB4EEE00AF1EE10FA02D2062054
:1007400000F074FB07A8082114230022CDE9001053
:100750001146104610F0E7FFAAE700B58BB00AA8D3
:10076000032100220592CDE90621089010464FF49E
:1007700080711922104BCDE90132CDE90310082018
:100780000023AFF20B120DA100900F480FF030F8CC
:10079000BDF828000BB000BD7E1D3867448931408C
:1007A0000000000000002440000000000000B040F5
:1007B0001C0000209A9929416C0500205461736B3C
:1007C0003220616463000000A804002002F0EAFC0B
:1007D00001F0FCFE04461349204601F01DFF02E033
:1007E000204601F02AFFFBE700B58BB00AA80321E1
:1007F00000220592CDE906210890104680210C22A6
:10080000094BCDE90132CDE9031007200023AFF2F7
:10081000430206A1009003480EF0EAFFBDF828004D
:100820000BB000BD6C090020300A00205461736BCE
:1008300033204E5246323430310000002DE9F0476B
:100840000024002500260027A046A14600BF6CE03A
:10085000DD4A111F081F04F017FFDB48083890ED30
:10086000020AB1EE400A80ED020A00F11002111FE7
:100870000E3005F0E9FFD4480838008A404200B243
:10088000D1490839088201F116021231881C06F09C
:1008900003F8CD48083890ED013AF0EE432A90ED88
:1008A000023AB0EE432A90ED003AF0EE431AB0F966
:1008B0001600404203EE100AB8EEC33AB0EE431AF7
:1008C000C1480838B0F91400404203EE100AB8EEEF
:1008D000C33AF0EE430ABC480838B0F9120003EE00
:1008E000100AB8EEC33AB0EE430A01F016FEB7485C
:1008F000B0F904008144B4480838B0F90C0005444C
:10090000B1480838B0F90E000644AF480838B0F9CD
:1009100010000744AC480838B0F91600804441F292
:10092000883008F002FB601CC4B2322C90DB32200D
:1009300095FBF0F000B2A6490880322096FBF0F05B
:1009400000B24880322097FBF0F000B2888032205D
:1009500098FBF0F000EE100AB8EEC00A9D4880ED5A
:10096000000A322099FBF0F000B29B498880BDE874
:10097000F0872DED028B84B000F03CFB03A808212A
:1009800000230322CDE900101946184610F0CBFED3
:10099000002402F053FC05F0DFFE04F02CFE4FF4BF
:1009A000E13008F017FB00BF00BF00BF08F014FDE6
:1009B000044600BF00BF89480078401C8749087082
:1009C00000BF00BF204608F00BFD00BF00BF00BF06
:1009D000FFF734FF00BF00BF00BF08F0FDFC044676
:1009E00000BF00BF7D480078401E7C490870084663
:1009F0000078A0B97A480088002809DD00BF00BF50
:100A0000204608F0EDFC00BF00BF0AF091FF0DE0AA
:100A100000BF00BF204608F0E3FC00BF06E000BFB7
:100A200000BF204608F0DCFC00BF00BF00BF002074
:100A300000F0FCF903AA4FF400416A4810F084F971
:100A4000A1E0FFF718FC604A111F081F04F01CFE0C
:100A5000654908705C48083890ED020AB1EE400A1A
:100A600080ED020A00F11002111F0E3005F0ECFEBD
:100A7000554A0E32111F881C05F00EFF52480838E7
:100A8000008A404200B2504908390882FFF7F5FB5E
:100A90004D480838C0894E494988401A00B24A4931
:100AA0000839C8810846808949490988401A00B236
:100AB0004549083988810846008A45498988401A8D
:100AC00000B24149083908820846D0ED000AB0EE6C
:100AD000600A12F0A9F9F3EE0E0AB4EEE00AF1EEA4
:100AE00010FA29DC38480838D0ED010AB0EE600A67
:100AF00012F09AF9F3EE0E0AB4EEE00AF1EE10FAF3
:100B00001ADC31480838D0ED000AB0EE600A12F065
:100B10008BF9B0EE408A2C480838D0ED010AB0EECF
:100B2000600A12F081F938EE000ADFED300AB4EE07
:100B3000E00AF1EE10FA05DD00202D4908700320CF
:100B400000F074F92A48007838B91F48083890ED49
:100B5000020A1F4880ED040A01E000F08EFF00F059
:100B600079FA244DB5F90630B5F90420B5F902102B
:100B7000B5F9000000F0ACF901F04FF803AA082124
:100B8000012010F04BFD5CE700B58BB00AA80321F3
:100B900000220592CDE90621089010464FF480719D
:100BA0001922154BCDE90132CDE9031005200023B0
:100BB000AFF2412211A1009014480EF019FEBDF8C9
:100BC00028000BB000BD0000041F00208E00002094
:100BD000F4100020840000209400002080010020F8
:100BE0004401002028190020220000200000484273
:100BF0003E00002040000020F40C00205461736B84
:100C0000332067657374757265000000300C002036
:100C100070B52DED028B05460C46B0EE408A611E84
:100C20009C4807F0DBFB00EE104AB8EE400A20EECD
:100C3000080ABCEEC00A10EE101A964807F071FDC3
:100C4000BDEC028B70BD70B52DED028B04460D46D8
:100C5000B0EE408AA580A0884004000C608084ED3E
:100C6000028AD4ED020AB0EE600A61882046FFF7DE
:100C7000CFFFBDEC028B70BDFEB504460E46174695
:100C8000002514E0D4ED020AB0EE600A36F8151023
:100C90002046FFF7D8FF02A80821CDE900102388DD
:100CA00000221146104610F03EFD681CC5B2BD4240
:100CB000E8DB9FED790A4FF47A712046FFF7C3FF16
:100CC000FEBD4FF47A714180704786B002A8FFF7ED
:100CD000F8FF8CE07148007878B96420ADF808001E
:100CE0009FED6F0A8DED040A04226E4902A8FFF7FA
:100CF000C3FF0520694908706FE068480078042840
:100D000017D16420ADF808009FED650A8DED040A47
:100D1000012264490A3102A8FFF7AEFF05A80821A5
:100D200000230122CDE900101946184610F0FBFC03
:100D300053E05A480078022810D14FF49670ADF86D
:100D400008009FED570A8DED040A0322564902A8B8
:100D5000FFF792FF0520514908703EE04F480078A8
:100D6000012810D1C820ADF808009FED4D0A8DED87
:100D7000040A03224B49083102A8FFF77DFF052032
:100D80004649087029E045480078032811D14FF4FE
:100D9000C870ADF808009FED450A8DED040A0522E4
:100DA0004149091D02A8FFF767FF05203B4908706C
:100DB00013E03A48007806280FD14FF41670ADF8CA
:100DC00008009FED3B0A8DED040A0222394902A872
:100DD000FFF752FF05203149087005A808210523B7
:100DE0000022CDE900101146104610F09CFC71E77E
:100DF00000B58BB00AA8032100220592CDE9062197
:100E00000890104680210C222B4BCDE90132CDE910
:100E1000031009200023AFF24D1228A100902A48A8
:100E20000EF0E6FCBDF828000BB000BD1B490978A8
:100E3000264A11701949087070472DE9FE43804613
:100E40000D4616461F46DDF82890002417E006EBF5
:100E50008400D0ED000AB0EE600A35F81410404668
:100E6000FFF7F1FE02A80821CDE9001037F8143091
:100E700000221146104610F056FC601CC4B24C45CE
:100E8000E5DB9FED050A4FF47A714046FFF7DBFE84
:100E9000BDE8FE8300000140000000003D0000208E
:100EA000CDCCCC3D4249010850490108CDCC4C3D48
:100EB000CDCC4C3F5E490108CC1100205461736BCE
:100EC000332042555A5A0000081100203C000020EF
:100ED0002DE9F04107460C4615461E46002F00DA64
:100EE0000027B7F57A7F01DD4FF47A77002C00DA1E
:100EF0000024B4F57A7F01DD4FF47A74002D00DA16
:100F00000025B5F57A7F01DD4FF47A75002E00DA01
:100F10000026B6F57A7F01DD4FF47A7607F57A710F
:100F2000444807F0FEFB05F57A71434807F0F9FBEA
:100F300006F57A71404807F0F6FB04F57A713D48F2
:100F400007F0F1FBBDE8F0810EB5A72140F6C31014
:100F500001F0D7FC532140F6C31001F02AFD4FF4F5
:100F60007A71344807F0DDFB4FF47A71324807F0AC
:100F7000D8FB4FF47A71304807F0D5FB4FF47A7103
:100F80002C4807F0D0FB16E000F077FD2B4CB4F9AD
:100F90000630B4F90420B4F90210B4F90000FFF7E8
:100FA00097FF02A8082105230022CDE90010114671
:100FB000104610F0B8FBE7E700B58BB00AA8032194
:100FC00000220592CDE906210890104680210C22CE
:100FD0001B4BCDE90132CDE9031004200023AFF211
:100FE000970218A100901A480EF002FCBDF82800E4
:100FF0000BB000BD10B5A72140F6C31001F081FC75
:10100000532140F6C31001F0D4FC4FF47A71094823
:1010100007F087FB4FF47A71074807F082FB4FF423
:101020007A71054807F07FFB4FF47A71014807F0A9
:101030007AFB10BD00400140001800404000002035
:10104000901400205461736B33204D4F544F520065
:10105000CC13002010B52DED0C8BFB48808840424E
:1010600000B2F9498880F948007801287DD1F84814
:101070000088642879DA002088804880B1F9060069
:1010800013F0F9F841EC1B0B9FEDF20B53EC102B16
:1010900013F01CF941EC190BEB49B1F9000013F006
:1010A000EAF841EC1D0B9FEDED0B53EC102B13F008
:1010B0000DF941EC1B0BE449B1F9040013F0DBF826
:1010C00041EC1D0B9FEDE30B53EC102B13F0FEF8DE
:1010D00041EC1C0B53EC1B2B13F0CEFA41EC1A0B1A
:1010E00053EC192B12F06AFE41EC180B13F066F862
:1010F00000B2DC490880D449B1F9020013F0BBF812
:1011000041EC1B0B9FEDD50B53EC102B13F0DEF8CD
:1011100041EC190BCC49B1F9040013F0ACF841ECE7
:101120001D0B9FEDCC0B53EC102B13F0CFF841ECC3
:101130001B0BC549B1F9060013F09DF841EC1D0BDE
:101140009FEDC40B53EC102B13F0C0F841EC1C0BBB
:1011500053EC1B2B13F090FA41EC1A0B53EC192BA8
:1011600013F08AFA41EC180B00E081E013F026F846
:1011700000B2BC494880B449B1F9060013F07BF8CD
:1011800041EC1A0B9FEDB30B53EC102B13F09EF8B0
:1011900041EC180BAC49B1F9040013F06CF841ECC8
:1011A0001D0B9FEDAC0B53EC102B13F08FF841ECA3
:1011B0001C0BA549B1F9000013F05DF841EC1D0BC3
:1011C0009FEDA60B53EC102B13F080F841EC1A0B9B
:1011D00053EC1C2B12F0F2FD41EC1B0B53EC182BC3
:1011E00012F0ECFD41EC190B12F0E8FF00B29D4942
:1011F00088809549B1F9060013F03DF841EC1B0BCE
:101200009FED940B53EC102B13F060F841EC180B8E
:101210008D49B1F9040013F02EF841EC1D0B9FED40
:101220008D0B53EC102B13F051F841EC1B0B86493E
:10123000B1F9020013F01FF841EC1D0B9FED870B75
:1012400053EC102B13F042F841EC1C0B53EC1B2B0E
:1012500013F012FA41EC1A0B53EC182B12F0AEFDFE
:1012600041EC190B12F0AAFF00B27E49C88005E0DC
:1012700000207C49088048808880C880BDEC0C8BA9
:1012800010BD794909784170774949880912817000
:1012900075498978C17074490979017172498979F0
:1012A00041717149097A817107210170704710B548
:1012B000044660786C490870E078A17800EB012062
:1012C00069494880207940B28880607940B2C880FE
:1012D000A07940B2088108460078012804D15B4912
:1012E0000870FFF7A3FD09E05F480078022805D1E8
:1012F0000020564908700220FFF798FD10BD5A489B
:101300004088B0F5D77F09DB58480068B0F5AF7F5B
:1013100004D957480088401D554908805448008822
:10132000B0F57A7F03DD4FF47A7051490880704739
:101330000146504A128A8A1A10B24F4A538B93833D
:10134000138B5383D38A1383938AD38290829FED26
:101350004B0A4B4A82ED1E0AD2ED1E0A00EE100A1D
:10136000B8EEC00A20EE800ABDEEC00A10EE102AC8
:1013700013B2434AA2F884303F4BB3F91420002A39
:1013800001DB134600E05342C82B05DD9FED3D0A0B
:101390003B4A82ED200A14E0374BB3F91420002AAF
:1013A00001DB134600E05342642B05DD9FED360A56
:1013B000334A82ED200A04E09FED340A304A82ED80
:1013C000200A9FED320A2E4A82ED200A92ED220A6F
:1013D000294AB2F9142000EE902AF8EEE00A284AD1
:1013E00092ED201A00EE810A82ED220A92ED220A85
:1013F000DFED270AB4EEE00AF1EE10FA03DD9FED0F
:10140000240A82ED220A1E4A92ED220ADFED210A09
:10141000B4EEE00AF1EE10FA03D29FED1E0A82ED5F
:10142000220A174AB2F8843092ED220ABDEEC00AB1
:1014300010EE102A1A4413B2114AA2F88C30B2F8F6
:101440008C20014B9A807047480000203E0000200D
:1014500020000020000000000000D03F000000003D
:101460000000E03F40000020901600206C000020AB
:1014700052000020FC1E00201C180020CDCC4C3F48
:101480009C16002000000000A69BC43B0AD7233C0A
:1014900000001643000016C30146F64AD2898A1A94
:1014A00010B2F54A138A5382D38913829389D38168
:1014B0005389938150819289821A12B200EE102AC8
:1014C000F6EE000AED4AC2ED120A92ED121A00EE93
:1014D000900AF8EEE00A61EE200AFDEEE00A10EE56
:1014E000902A13B2E54AA2F854305FED1A0AC2ED11
:1014F000130AD2ED130AB8EEC01A60EE810AFDEEAF
:10150000E00A10EE902A13B2DC4AA2F85630DFED62
:10151000DC0AC2ED140AD2ED160AD2ED141AD64A2C
:10152000B2F90A2001EE102AB8EEC11A41EE810A82
:10153000D24AC2ED160AD2ED160A9FEDD21AF4EE87
:10154000C10AF1EE10FA03DDDFEDCE0AC2ED160A94
:10155000CA4AD2ED160A9FEDCC1AF4EEC10AF1EE9A
:1015600010FA03D2DFEDC80AC2ED160AC34AB2F878
:101570005430B2F856201344C04AD2ED140AFDEE9E
:10158000E00A10EE902A1A4413B2BC4AA2F85C306A
:10159000B2F85C20BD4B5A8070470146B54A92892B
:1015A0008A1A10B2B44AD288B34B1A811A4692886A
:1015B000DA801A4652889A801A4612885A801A4649
:1015C00010805288821A12B200EE102AF6EE000A3B
:1015D000AA4AC2ED060A92ED061A00EE900AF8EE4B
:1015E000E00A61EE200AFDEEE00A10EE902A12B247
:1015F000A24B9A845FED5D0A1A46C2ED070AD2ED4E
:10160000070AB8EEC01A60EE810AFDEEE00A10EE9D
:10161000902A12B2DA84DFED9A0A1A46C2ED080A5D
:10162000D2ED0A0AD2ED081A934AB2F9002001EE6F
:10163000102AB8EEC11A41EE810A1A46C2ED0A0A12
:10164000D2ED0A0A9FED8F1AF4EEC10AF1EE10FAFC
:1016500003DDDFED8C0AC2ED0A0A884AD2ED0A0AE0
:101660009FED891AF4EEC10AF1EE10FA03D2DFED14
:10167000860AC2ED0A0A814A928C804BDB8C1344A5
:101680007E4AD2ED0A0AFDEEE00A10EE902A1A44D4
:1016900012B27A4B9A851A46928D7C4B1A8070470B
:1016A00030B503468C1A24B21C809FED790A83ED75
:1016B000060AD3ED060AB3F9004000EE104AB8EE70
:1016C000C00A20EE800ABDEEC00A10EE104A24B215
:1016D0009C8493ED060ADFED6F0AB4EEE00AF1EEAA
:1016E00010FA03DD9FED6B0A83ED060A93ED060AFF
:1016F000DFED690AB4EEE00AF1EE10FA03D29FEDD5
:10170000660A83ED060AB3F90040002C01DB25468A
:1017100000E065420A2D04DA9FED600A83ED080AB5
:101720002DE0B3F90040002C01DB254600E06542C6
:10173000142D04DA9FED5A0A83ED080A1FE0B3F96D
:101740000040002C01DB254600E065421E2D04DA36
:101750009FED540A83ED080A11E0B3F90040002C14
:1017600001DB254600E06542322D04DA9FED4E0A8A
:1017700083ED080A03E09FED4D0A83ED080A93ED1F
:101780000A0A93ED081AB3F9004000EE904AF8EE09
:10179000E00A01EE200A83ED0A0A93ED0A0ADFED62
:1017A000440AB4EEE00AF1EE10FA03DD9FED400AC0
:1017B00083ED0A0A93ED0A0AB5EEC00AF1EE10FABB
:1017C00003D21FEDD00A83ED0A0A9D8C93ED0A0A1D
:1017D000BDEEC00A10EE104A2C4420B230BD70B5E8
:1017E00003460C46092106E04D1E33F8155023F838
:1017F00011504D1EE9B20029F6DCA51A2DB21D804C
:101800001D88DE88AD1B2DB29D829FED2A0A83EDD7
:10181000060AD3ED060AB3F9005000EE105AB8EEEE
:10182000C00A20EE800ABDEEC00A10EE105A2DB29A
:101830009D849FED210A83ED070AD3ED070AB3F9D2
:10184000145000EE105AB8EEC00A20EE800ABDEE29
:10185000C00A10EE105A2DB2DD849D8CDE8C35440A
:1018600028B23C2800DD3C2010F13C0F01DA6FF07B
:101870003B0070BDFC1E00201C1800209C160020A0
:101880006F12833A00007042000070C248000020CE
:101890009A99193F00004843000048C3CDCC4C3D05
:1018A0000AD7233D0AD7A33C4260E53B17B7D1389E
:1018B0000000C8429A99193E0AD7A33DF0B50446E4
:1018C0000E461746732C04DAA004000C95490880D4
:1018D00003E04FF4E67093490880B4F5EB7F01DD37
:1018E0004FF4EB74324621468F48FFF778FF8E495C
:1018F0008885BAB20846808D81B28B483030FFF7B8
:10190000CFFE8949A1F85C000846B0F85C00854923
:101910000988084405B2002D00DA0025A80000B2AD
:101920008249C880F0BD10B50146814B93ED020A93
:10193000804BD3ED040A30EE600A5FED230A20EEFF
:10194000200ABDEEC00A10EE103ACB1A18B27A4B3C
:101950005C8B9C831C8B5C83DC8A1C839C8ADC8272
:1019600098829C8ADB8AE31A1AB2B6EE000A734B9D
:1019700083ED1E0AD3ED1E0A00EE100AB8EEC00A6F
:1019800020EE800ABDEEC00A10EE103A1CB26B4B7E
:10199000A3F8844000BFB3F88440A3F88C4010BD86
:1019A00010B50146624B93ED010A5FED3F0A20EE50
:1019B000200ABDEEC00A10EE103ACB1A18B25E4BE8
:1019C0001C8A5C82DC891C829C89DC815C899C810C
:1019D00058815C899B89E31A1AB2B6EE000A574B0C
:1019E00083ED120AD3ED120A00EE100AB8EEC00A17
:1019F00020EE800ABDEEC00A10EE103A1CB24F4B2A
:101A0000A3F8544000BFB3F85440A3F85C4010BDA5
:101A10000146474A92ED000A5FED5B0A20EE200A7C
:101A2000BDEEC00A10EE102A8A1A10B2424AD288BD
:101A3000414B1A811A469288DA801A4652889A8057
:101A40001A4612885A801A461080B6EE000A3B4A9F
:101A500082ED060AD2ED060A00EE100AB8EEC00AC0
:101A600020EE800ABDEEC00A10EE102A12B2334BEF
:101A70009A841A46928C9A85704700B5FFF73FFC0E
:101A80002F484088B0F5EC7F03DB40F2D7102C499B
:101A900048802C480078032821D12949898801EB06
:101AA0008101490008B2FFF7B3FF2549C98801EB5E
:101AB0008101490008B2FFF773FF214909893222E9
:101AC00011FB02F108B2FFF72EFF1F4A128891B2F4
:101AD0001B4A50881D4AB2F90020FFF7EFFE174954
:101AE000B1F92C00FFF759FD1449B1F95C00FFF77B
:101AF000D3FC1348008900EB800001B20F48A0F826
:101B00008C100146B1F98C00FFF712FC0D480078EB
:101B1000401C0C49087008460078042801DB0020AE
:101B2000087000BD50000020BC17002048000020B5
:101B3000FC1E0020F41000203A1800202C17002072
:101B400090160020540000206C0000207C00002033
:101B500070B50025FB21684805F03EFD00BF40211F
:101B6000654805F0E9FD0128F9D16D21624805F0CD
:101B700033FD00BF4021604805F0DEFD0128F9D1AA
:101B800025215D4805F028FD00BF40215A4805F099
:101B9000D3FD0128F9D1681FC5B205F16D00C5B2AA
:101BA00005F12500C5B2002411E05448015D5248FA
:101BB00005F012FD00BF40214F4805F0BDFD012892
:101BC000F9D14E48005D2844C5B2601CC4B24C48EF
:101BD00000788442E9DB2946474805F0FDFC00BF58
:101BE0004021454805F0A8FD0128F9D170BD30B568
:101BF0000A46CB1701EB1363C3F307233F4C04F8EA
:101C00001030CB1701EB13631B12A1EB032301244C
:101C100004EB4004394D2B5530BD10B539480088D0
:101C200081B20020FFF7E3FF3748008881B201202E
:101C3000FFF7DDFF3548008881B20220FFF7D7FFAC
:101C40003348006800B200EB4002C2EBC0104FF610
:101C5000FF7202EAC0010320FFF7C9FF2D48008987
:101C60000A2190FBF1F084B221460420FFF7BFFF68
:101C7000294890ED000ABDEEC00A10EE100A81B2AC
:101C80000520FFF7B4FF2548007800EB4002C2EBC7
:101C9000C0104FF6FF7202EAC0010620FFF7A7FF4F
:101CA0001C4800880A2190FBF1F084B221460720ED
:101CB000FFF79DFF174840880A2190FBF1F084B29E
:101CC00021460820FFF793FF124880880A2190FBE5
:101CD000F1F084B221460920FFF789FF0D48C08842
:101CE0000A2190FBF1F084B221460A20FFF77FFF22
:101CF000FFF72EFF10BD00000044004058180020E0
:101D000055000020EC1D0020141E00206C00002057
:101D100004024042BA1E002080000020680000201B
:101D200010B509F089F840F22551304805F01AFD48
:101D3000002857D02D4805F053FC2D49087008465F
:101D400000784C284ED101241FE00020294908804A
:101D500004E028480088401C2649088020212348A8
:101D600005F0EAFC20B923480088B0F5C87FF0DB15
:101D700020480088B0F5C87F00DB08E01B4805F06C
:101D80002FFC1B490855601CC4B2052CDDDB00BFCD
:101D900018480088B0F5C87F24DA154880781449BF
:101DA000497800EB012000B2134988800846B0F959
:101DB0000400B0F5966F02DD4FF4966088800E48FF
:101DC000B0F9040010F5966F03DA4FF650300A4967
:101DD0008880074800790649C97800EB012000B2E5
:101DE0000549C88009F039F810BD000000440040E2
:101DF0005E000020640000205600002070B52DED2C
:101E00000C8B0546FE480078401CFD4908700846CA
:101E10000078322801DD32200870092407E0601EB6
:101E2000F84951F8200041F82400601E84B2002CCB
:101E3000F5DCF4480560F4480069F3494861084658
:101E4000C068086108468068C860084640688860C5
:101E5000084600684860ED48006812F0F7FC41EC65
:101E6000190B9FEDEB0B53EC102B12F02FFA41ECFA
:101E7000180B12F0A3F9E84909880844E1490988D8
:101E8000081A00B2E0490860092407E0601EE24930
:101E900051F8200041F82400601E84B2002CF5DCCB
:101EA000DE480078C0EB00108000DD49088008465D
:101EB000B0F90000B0F57A7F02DD4FF47A70088047
:101EC000D748008800F5E17000B2D5490880CD48B8
:101ED000006844F62061884203D2CA480068CE49AF
:101EE0000860CD480068B0F52F7F03D24FF42F7003
:101EF000C9490860CB484068CA49886008460068FC
:101F00004860C54800684FF4AA7148434FF47A719D
:101F1000B0FBF1F04008C3490860C348C068C2493B
:101F2000086108468068C8600846406888600846BE
:101F300000684860BB480068BA494968884205D3D0
:101F4000B8480068B749896888420BD9B548006825
:101F5000B449896888420AD3B2480068B1494968DF
:101F6000884204D8AF480068AF49086020E0AD4817
:101F70004068AC490968884205D3AA484068A94925
:101F8000896888420BD9A7484068A6498968884271
:101F90000AD3A4484068A3490968884204D8A148E4
:101FA0004068A149086003E09E4880689E49086037
:101FB0009348007832283ADB9B49886812F05BF935
:101FC00041EC1B0B9FED990B53EC102B12F07EF99B
:101FD00041EC190B9449486812F04DF941EC1D0B86
:101FE0009FED940B53EC102B12F070F941EC1B0B8E
:101FF0008D49086812F03FF941EC1D0B9FED8F0BE6
:1020000053EC102B12F062F941EC1C0B53EC1B2B20
:1020100011F0D4FE41EC1A0B53EC192B11F0CEFE4B
:1020200041EC180B12F0FAF88649086003E07E488C
:10203000006884490860834800687B4908607048EC
:10204000007832287EDB0968774A1269881A12F014
:1020500012F941EC190B9FED7C0B53EC102B12F095
:1020600035F941EC180B11F077FE79490860084604
:1020700090ED000ADFED770AB4EEE00AF1EE10FA17
:1020800004DB9FED740A80ED000A0DE0704890EDCE
:10209000000ADFED710AB4EEE00AF1EE10FA03D89F
:1020A0009FED6D0A80ED000A6C4890ED013AF0EE6C
:1020B000432A90ED023AB0EE432A90ED003AF0EE5A
:1020C000431AB0F91600404203EE100AB8EEC33AC4
:1020D000B0EE431A6148B0F91400404203EE100A12
:1020E000B8EEC33AF0EE430A5C48B0F9120003EED2
:1020F000100AB8EEC33AB0EE430A00F00EFA58499F
:10210000B1F90410574AB2F90420881A12F0B3F852
:1021100041EC1B0B9FED540B53EC102B12F0D6F837
:1021200041EC190B3948006812F090FB41EC1A0B96
:1021300053EC192B12F0A0FA41EC180B11F00CFE25
:10214000324900E09DE008602E48006844F62061B6
:10215000884227D23E4890ED000A2C48D0ED000A74
:1021600030EE600A10EE101A084612F06FFB41ECD8
:102170001B0B9FED3F0B53EC102B12F0A7F841EC1B
:10218000190B2248006812F061FB41EC1A0B53EC6A
:10219000192B11F013FE41EC180B11F0DDFD1B495A
:1021A000086026E02A4890ED000A1848D0ED000AA1
:1021B00030EE600A10EE101A084612F047FB41ECB0
:1021C0001B0B9FED290B53EC102B12F07FF841EC09
:1021D000190B0E48006812F039FB41EC1A0B53EC56
:1021E000192B11F0EBFD41EC180B11F0B5FD07496F
:1021F0000860174890ED000ABDEEC00A3CE0000000
:102200008C000020EC1D00203C1E002080000020DF
:10221000D7A3703D0AD7E33F141E0020880000209A
:102220008A000020681E0020541E00209A99999967
:102230009999C93F333333333333D33F0000000020
:102240000000E03F6C00002066666666666604403B
:102250007800002000004844000048C4FC1E002014
:102260008E000020940000207B14AE47E17A843F6A
:102270007B14AE47E17AA43F10EE100A00B2804909
:102280000880BDEC0C8B70BD10B500217D4806F0B8
:1022900010FB05217B4806F01FFD0122042179482F
:1022A00006F0F2FC0021774806F0D6F800217548C8
:1022B00006F092F800207449086010BD10B5FFF7D1
:1022C000E3FF0020714908700120714908600F2068
:1022D00006F02BFE00206F49C1F88C0210BD1FB51F
:1022E00053214FF0FF3000F097FA00F0EFFA03AB04
:1022F0000022114610460EF029F94BE000F045FC93
:102300006549C88000F02EFC6448007828BBFFF7C0
:10231000D5FF00F03AFC6049088103A8002302AA17
:102320001946009003200DF0F6FC00F02EFC5A49EF
:1023300088805548006820B153480068FFF75EFD6B
:102340001EE001205549087046F2A8104E49086069
:1023500008460068FFF752FD12E047F230504A4944
:10236000086008460068FFF749FD4C480078401CAB
:102370004A49087008460078052801DD00200870E9
:1023800003A8082114230022CDE9001011461046AD
:102390000FF0C9F9B2E700B58BB00AA803210022FB
:1023A0000592CDE90621089010464FF4807119225C
:1023B0003B4BCDE90132CDE9031006200023AFF2FB
:1023C000E10238A100903A480DF012FABDF8280059
:1023D0000BB000BD10B502212A4806F06AFA10BD04
:1023E0001CB508F029FD0421264806F064FC0128EC
:1023F00039D12648007868B900F0C7FB2649088023
:102400000121204806F028F8FFF7E4FF01201F49CA
:1024100008702DE01D480078012829D100201F49AF
:1024200008700021174806F017F8164806F0E3FB7D
:10243000154908600021134805F0CEFF002013491C
:102440000870002204210F4806F01EFC00F09DFBDE
:102450001149488001A8002304220B490090144828
:102460000DF0EEFE04E000220421064806F00CFC0C
:102470000521044806F030FC08F0EFFC1CBD00000C
:102480007C000020000C004070000020680000204C
:102490008C02404200004042BA1E0020740000201E
:1024A000EC1900205461736B3220736F6E69630006
:1024B0002819002010B52DED048BF0EE408AB0EE07
:1024C000608AB0EE419AB0EE480A10F0BEFCB1EE60
:1024D000400A3A4880ED060AB0EE680A10F0B5FCF2
:1024E000F0EE409AB0EE480A10F0A3FC29EE800A04
:1024F000324880ED070AB0EE680A10F09AFCF0EE60
:10250000409AB0EE480A10F094FC29EE800A2B485D
:1025100080ED080ABDEC048B10BD10B52DED0A8BC3
:10252000B0EE408AF0EE608AB0EE419AF0EE619A29
:10253000B0EE42AAF0EE62AAB1EE690ADFED200A1F
:1025400020EE200ADFED1F0A80EE201AB0EE41BA1D
:10255000B1EE4A0ADFED1A0A20EE200ADFED190A71
:1025600080EE201AF0EE41BA9FED150A2AEE800A9D
:10257000DFED140A80EE201AB0EE41CAB0EE6B1AFD
:10258000F0EE4C0AB0EE4B0AFFF794FF0B4890EDCB
:10259000060A20EE080AD0ED070A00EEA80AD0EDE0
:1025A000080A00EE890ABDEEC00A10EE100A00B259
:1025B00005498880BDEC0A8B10BD0000741E002008
:1025C000DB0F4940000034438E0000204048006883
:1025D000704700B501460120087200204860FFF7EF
:1025E000F5FF08B93A480160084600BD7CB50446CD
:1025F0000D461646606808B1207D00B97CBDE560D7
:10260000266101A8009000230C2204F108016068F3
:102610000DF016FE00BFF1E770B504460D4665608B
:1026200000F02CFC28B901202075284600F05CFC45
:1026300001E000202075207D70BD8CB0044641E093
:10264000244800684FF47A71B1FBF0F01421B1FB1B
:10265000F0F60BA802AB01AA0021009030460DF065
:102660005AFB0546BDF82C0010B11B48006880B924
:102670002878012803D1686800F076FC22E003A8DE
:1026800000F08FFBF0B903A8FEF711FE00202080B8
:1026900018E0BDF82C0047F2D921884212D12088D9
:1026A000401C00B220802088322805D100200B4930
:1026B00008700320FEF7BAFBB4F900003C2801DBE8
:1026C0003C202080BCE700B50548FFF782FF00BD35
:1026D0009C000020AC5701080C0242423E00002042
:1026E000981E002030B58BB004460D46012108022B
:1026F00004F003FD0121202004F0B6FC092211465C
:10270000FE4804F09EFA4FF40070099002208DF804
:10271000280003208DF8290000208DF82A000120D0
:102720008DF82B0009A9F54804F000FAA8B2ADF81D
:10273000180007940020ADF81A00ADF8200006A993
:10274000EF4805F000FE6020ADF804000120ADF870
:1027500006000220ADF8100001A9E94805F088FE46
:102760000821E74806F011F80121E54805F056FE7A
:102770000121E34805F070FE0BB030BD30B58BB0E1
:1027800004460D460121084604F0B7FC0121022051
:1027900004F06AFC01220A21DA4804F052FA4FF4EC
:1027A0008060099002208DF8280003208DF8290010
:1027B00000208DF82A0001208DF82B0009A9D148AE
:1027C00004F0B4F9A8B2ADF8180007940020ADF8F1
:1027D0001A00ADF8200006A94FF0804005F0B3FDC7
:1027E0006020ADF804000120ADF806000020ADF82F
:1027F000100001A94FF0804005F0C0FE0821C80676
:1028000005F0D9FF0121880705F008FE012188079E
:1028100005F022FE0BB030BD30B587B004460D4642
:102820000121082004F069FC0121084604F01CFC89
:10283000022005908DF8180003208DF81900002063
:102840008DF81A0002208DF81B0005A9AE4804F08F
:102850006DF902220121AC4804F0F3F9A8B2ADF8F9
:1028600008000020ADF80A000394ADF8100002A99A
:10287000A64805F068FD0420A5490880002048808E
:10288000012088800020C8800881A04806F032F925
:1028900000219E4805F0E0FD002204219B4806F03F
:1028A000F3F90521994806F017FA32208DF8040053
:1028B00002208DF8050000208DF8060001208DF81B
:1028C000070001A804F041F807B030BD1CB5012194
:1028D000084604F0C9FB0820009001208DF8040090
:1028E00003208DF8050000208DF8060002208DF8E9
:1028F00007006946844804F019F9002085490860FA
:102900001CBD30B58BB004460D460121080404F00F
:1029100005FC0121102004F0A7FB032205217E48BD
:1029200004F08FF9032206217B4804F08AF9602025
:10293000099002208DF8280003208DF8290000203E
:102940008DF82A0001208DF82B0009A9724804F0A7
:10295000EDF8A8B2ADF8180007940020ADF81A0001
:10296000ADF8200006A96D4805F0EDFC6020ADF83B
:1029700004000120ADF806000020ADF8100001A908
:10298000664805F075FD01A9644805F0AAFD082117
:10299000624805F0FAFE0821604805F0FFFE0121BB
:1029A0005E4805F03BFD01215C4805F055FD0BB08C
:1029B00030BD30B58BB004460D460121402004F0F7
:1029C0009CFB0121022004F04FFB09220E214D48FF
:1029D00004F037F909220F214A4804F032F94FF484
:1029E0004040099002208DF8280003208DF829002E
:1029F00000208DF82A0001208DF82B0009A94148FC
:102A000004F094F8A8B2ADF8180007940020ADF8CF
:102A10001A00ADF8200006A9414805F094FC60209A
:102A2000ADF804000120ADF806000020ADF810005C
:102A300001A93B4805F01CFD01A9394805F051FDED
:102A40000821374805F0A1FE0821354805F0A6FE0B
:102A50000121334805F0E2FC0121314805F0FCFC7E
:102A60000BB030BD30B58BB004460D460121084691
:102A700004F054FB0121084604F0F6FA0122082173
:102A8000214804F0DEF84FF48070099002208DF8A0
:102A9000280003208DF8290000208DF82A0001204D
:102AA0008DF82B0009A9184804F040F8A8B2ADF839
:102AB000180007940020ADF81A00ADF8200006A910
:102AC000184805F040FC6020ADF804000120ADF886
:102AD00006000020ADF81000039001A9114805F090
:102AE000C7FC08210F4805F050FE01210D4805F0F4
:102AF00095FC01210B4806F0A0F815E000140240F7
:102B0000002000400004024000000240000C004091
:102B1000B01E00208C0240420010024000400140E4
:102B2000001800400000014001211F4805F094FCFE
:102B30000BB030BD3EB505460C460121022004F025
:102B4000DCFA0195ADF800400020ADF80200ADF8C8
:102B500008006946154805F0F6FB0121134805F009
:102B60007BFC3EBD10B50121104806F0A1F85321B1
:102B70004EF66020FFF7DEFF01210C4806F098F8C2
:102B800000210A4805F028FC10BD10B501210748B6
:102B900006F085F8012802D14FF6FF7010BD0348FA
:102BA00005F01EFC80B2F9E700000140000400407F
:102BB00000B58DB00121062004F056FA012108026B
:102BC00004F0ACFA01200B9003208DF830000020B7
:102BD0008DF833000BA92C4803F0A8FF012108024F
:102BE00004F0F1FA00214FF4807004F0ECFA0020B8
:102BF00007900A9009904FF48030089007A804F0DD
:102C000035FE002001908DF808008DF80900039032
:102C1000059001208DF8180001A91C4804F0F7FD6B
:102C200001211A4804F039FE0DB000BD10B504466C
:102C3000072301222146154804F06FFE134804F0D3
:102C4000C8FE00BF0221114804F0E4FF0028F9D0BB
:102C50000E4804F0FAFE10BD2DE9F04107460C467F
:102C60000025002608E03846FFF7E0FF0544052070
:102C700006F07DF9701CC6B2A642F4DBB5FBF4F099
:102C800080B2BDE8F0810000000002400020014059
:102C9000002000E0401CB0F5167FFBD870470021F3
:102CA00019E000F08002802A03D10122CE4B1A6085
:102CB00002E00022CC4B1A604206100E0122CA4BE1
:102CC0001B1D1A60C94AD2F810220243D0B200225A
:102CD0001A604A1CD1B20829E3DB704770B505467B
:102CE0000C460020C049083108602846FFF7D7FF8E
:102CF00006462046FFF7D3FF0120BD49C1F88802F0
:102D0000304670BD30B504460020B7490831086030
:102D10002046FFF7C4FFFF20FFF7C1FF0546012053
:102D2000B349C1F88802284630BD2DE9F041074675
:102D30000D4616460020AC49083108603846FFF7BA
:102D4000AEFF8046002405E0FF20FFF7A8FF2855CE
:102D5000601CC4B2B442F7DB0120A349083108600B
:102D60004046BDE8F0812DE9F04107460C46154686
:102D700000209D49083108603846FFF790FF8046E3
:102D8000002605E014F8010BFFF789FF701CC6B29E
:102D9000AE42F7DB01209449083108604046BDE8A7
:102DA000F08130B504460720FFF7ACFF0546294601
:102DB0002720FFF793FF05F04000A0B100208A49CB
:102DC0000C310860202221466120FFF7AEFFFF2171
:102DD000E220FFF783FF01208549C1F88C02FFF74D
:102DE00057FF002030BD0120FCE71CB501AA0021DF
:102DF00080480CF04EF88048006810B946F62E6006
:102E00001CBD01A800231A460221009079480BF04E
:102E1000BBFDBDF80400F3E710B50022114675486C
:102E20000BF0EFFF10BD70B5054600206E490C3168
:102E3000086020222946A020FFF795FF01206C4959
:102E4000C1F88C02FFF7D1FFFFF7E6FF0720FFF77D
:102E500059FF044621462720FFF740FF04F01000E9
:102E600028B1FF21E120FFF739FF102070BD04F0E9
:102E7000200008B12020F9E7FF20F7E70FB55FA198
:102E800003C9CDE902010020009001905649091DB7
:102E9000086001205649C1F88802002052490C31CF
:102EA0000860052202A93020FFF75DFF0522694670
:102EB0001020FFF73AFF9DF80000112812D19DF86D
:102EC000010022280ED19DF8020033280AD19DF876
:102ED0000300442806D19DF80400552802D10020A3
:102EE00004B000BD0120FBE738B5044600203E4990
:102EF0000C31086020213120FFF7F0FEFF21E22095
:102F0000FFF7ECFE05223F493020FFF72CFF05229A
:102F10003D492A20FFF727FF01212120FFF7DEFE90
:102F200001212220FFF7DAFE1A212420FFF7D6FE26
:102F300000212520FFF7D2FE0F212620FFF7CEFE2D
:102F40000F212020FFF7CAFE01202949C1F88C0279
:102F50006B4600222DA127480BF0E7FB00202F49EC
:102F600008702F48046038BD10B5044600201E4983
:102F70000C3108600E212020FFF7B0FE01201C4913
:102F8000C1F88C02254908700F2005F0CEFF2046BD
:102F9000FFF749FF002014490C3108600F21202061
:102FA000FFF79CFE012010490C31086000201B49EE
:102FB000087010BD19480078704700B585B01748F3
:102FC0000078012802D1FFF727FF0BE000208DF8E1
:102FD000040004A800230C2201A9009010480068F6
:102FE0000DF02EF905B000BD8002414200004242C2
:102FF00000004142C41E00200C0242421122334410
:103000005500000062490108674901086E72663286
:10301000343031206972712073656D00A00000208A
:10302000A400002010B5044600BF02217F4805F02F
:10303000ADF80028F9D021467C4805F05EF800BFC5
:1030400001217A4805F0A2F80028F9D0774805F068
:1030500051F8C0B210BD00B587B00121084604F098
:1030600003F80121080304F059F8382005900220E4
:103070008DF8180000208DF81A0003208DF8190033
:1030800001208DF81B0005A9694803F04FFD0522BA
:103090000321674803F0D5FD05220421644803F0AD
:1030A000D0FD05221146624803F0CBFD0121080343
:1030B00004F089F800214FF4805004F084F80020D7
:1030C000ADF800004FF48270ADF802000020ADF8BA
:1030D0000400ADF80600ADF808004FF40070ADF83C
:1030E0000A003820ADF80C000020ADF80E000720D3
:1030F000ADF8100069464D4804F084FE01214B48AC
:1031000004F07AFFFF20FFF78DFF07B000BD10B578
:103110000446464800884FF6C77108404349088076
:1031200008460088204308800121404804F064FFDD
:1031300010BD00B585B00121102003F095FF0020DF
:103140008DF804000820009001208DF807006946E2
:10315000384803F0EBFC0121880303F0DFFF032173
:10316000042004F0E6F80820029000208DF80C00FE
:103170000C208DF80D0001208DF80E0002A804F03F
:103180007BFD09208DF8100000208DF81100022031
:103190008DF8120001208DF8130004A803F0D5FB70
:1031A00005B000BD1CB50121142003F05DFF042013
:1031B000009001208DF8040000208DF80600032007
:1031C0008DF8050000208DF8070069461A4803F0C5
:1031D000ADFC082000906946174803F0A7FC0120C9
:1031E00000906946144803F0A1FC02200090694653
:1031F000114803F09BFC00208DF8040001208DF89D
:1032000007001020009069460A4803F08FFCFFF782
:1032100090FF1CBD10B5082004F094FD012804D1D6
:10322000FFF7CBFE082004F098FD10BD00300140F0
:103230000004024000100240000802401CB50121B9
:10324000102003F011FF0320009001208DF80400EE
:1032500000208DF8060003208DF8050001208DF870
:1032600007006946F14803F061FC0321EF4803F0D1
:10327000D9FC1CBD10B5ED48006820F00C00EB49EE
:1032800008600846006840F0040008600120E84932
:103290000860E849C1F8800205F047FE0020E449D3
:1032A0000860012005F041FE0020E249C1F88002DB
:1032B00010BD10B5DD48006820F00C00DB49086047
:1032C0000846006840F0040008600020D849091F43
:1032D0000860D849C1F88402012005F026FE0120CB
:1032E000D349091F0860D349C1F8840205F01DFEC7
:1032F00010BD10B50024CD48006820F00C00CB496B
:1033000008600846006808600120C949091F086074
:1033100005F00BFE07E0601CC4B2FA2C03DDFFF7DA
:10332000C8FF012010BDC248803800680028F2D1D3
:10333000BF49091F086000BFF4E710B50020BC4971
:10334000091F0860B948006820F00C00B749086000
:103350000846006840F0040008600020B549C1F844
:103360008402012005F0E1FD0120B149091F086038
:1033700005F0DBFD0020AF49C1F8800210BD10B59B
:103380000020AB49091F0860A848006820F00C0025
:10339000A64908600846006840F004000860012063
:1033A000A449C1F8840205F0C0FD0120A049091F0D
:1033B000086005F0BAFD00209E49C1F8800210BDEA
:1033C00070B504469948006820F00C0097490860E1
:1033D0000846006840F00400086000209449091F76
:1033E0000860002516E0E009914908606006040EB7
:1033F000012005F09AFD01208E49C1F8800205F0F8
:1034000094FD00208A49091F0860012005F08DFD08
:10341000681CC5B2082DE6DB70BD70B505460024FA
:103420008248006820F00C00804908600846006867
:103430000860002617E000207D49091F0860012070
:1034400005F073FD01207B49C1F880026006040E7F
:1034500077488038006808B1601CC4B2012005F0CC
:1034600064FD701CC6B2082EE5DB15B9FFF787FFB7
:1034700001E0FFF762FF204670BD2DE9F0410546EF
:103480000E4617469846FFF7F5FE002141EA450132
:10349000C8B2FFF795FFFFF72CFF20B1FFF709FF38
:1034A0000120BDE8F0813046FFF78AFFFFF721FFDA
:1034B00000240CE018F80400FFF782FFFFF719FF63
:1034C00018B1FFF7F6FE0120EBE7601CC4B2BC4266
:1034D000F0DBFFF7EEFE0020E3E72DE9F0410646C2
:1034E0000F4614461D46FFF7C5FE002141EA46017E
:1034F000C8B2FFF765FFFFF7FCFE20B1FFF7D9FE6A
:103500000120BDE8F0813846FFF75AFFFFF7F1FED2
:10351000FFF7B0FE012101EB4601C8B2FFF750FFF3
:10352000FFF7E7FE0DE0012C04D10020FFF775FF47
:10353000287003E00120FFF770FF2870601EC4B2FE
:103540006D1C002CEFD1FFF7B4FE0020D9E770B559
:1035500004460D461646FFF78DFE002141EA440160
:10356000C8B2FFF72DFFFFF7C4FE18B1FFF7A1FEA9
:10357000012070BD2846FFF723FFFFF7BAFE304653
:10358000FFF71EFFFFF7B5FE18B1FFF792FE01200F
:10359000EFE7FFF78EFE0020EBE770B504460D461F
:1035A0000026FFF767FE002141EA4401C8B2FFF799
:1035B00007FFFFF79EFE2846FFF702FFFFF799FE81
:1035C000FFF758FE012101EB4401C8B2FFF7F8FEF6
:1035D000FFF78FFE0020FFF720FF0646FFF769FE8A
:1035E000304670BD70B504460D46FFF743FE00211E
:1035F00041EA4401C8B2FFF7E3FEFFF77AFE18B1D3
:10360000FFF757FE012070BD2846FFF7D9FEFFF7F0
:1036100070FE18B1FFF74DFE0120F4E7FFF749FEF9
:10362000012005F082FC0020EDE7000000100240C0
:10363000840242420000424238B50446F84890F8FD
:103640002400C0B114B10220009001E000200090DD
:10365000F34A1268D17BF24A526810786B46012215
:10366000FFF70BFF10B14FF0FF3038BD9DF8001091
:10367000EB48417423E0EA48807A10B94FF0FF30FC
:10368000F3E724B1E648407C08B10020EDE714B12F
:103690000120009001E000200090E14A1268D17BF7
:1036A000DF4A526810786B460122FFF7E6FE10B140
:1036B0004FF0FF30D9E79DF80010D9484174002041
:1036C000D3E738B500241FE0D5480068C07AA0428F
:1036D00004D0D3480068407DA04200D112E0D04918
:1036E000496808786B4601222146FFF7F6FE10B1C3
:1036F0004FF0FF3038BD9DF800202146C9A00FF0E3
:10370000E3F800BF601CC4B2C54840680079A0421D
:10371000DADC0020EEE770B504460D46C0480068CC
:10372000C07AA04204D0BE480068407DA04202D1C9
:103730004FF0FF3070BDBA4840680079A04202DC0B
:103740004FF0FF30F6E7B649496808782B4601226A
:103750002146FFF7C2FEEDE738B50446B04890F8C1
:103760002300A04201D1002038BD14B130200090C8
:1037700001E000200090AA48807C20B19DF8000064
:1037800040F002000090A64890F8220020B19DF879
:10379000000040F080000090A14A1268117DA04A0C
:1037A000526810786B460122FFF767FE10B14FF0A8
:1037B000FF30D9E79A4880F823400020D4E738B595
:1037C000044604F0700010B10120009005E014B12F
:1037D0000020009001E040200090914A1268917C06
:1037E0008F4A526810786B460122FFF746FE20B1DF
:1037F00000218B488172481E38BD9DF8000020F0E2
:103800004001874801730020009004F0400020B977
:103810009DF8000040F00400009004F0200020B962
:103820009DF8000040F00200009004F0100020B964
:103830009DF8000040F00100009004F0080020B95D
:103840009DF8000040F038000090754A1268D17C65
:10385000734A526810786B460122FFF70EFE20B1C2
:1038600000216F488172481EC6E724B1082C02D09F
:103870000020FFF771FF6A488472002101754CF245
:10388000503005F052FB0020B6E738B504466448D6
:10389000807CA04201D1002038BD002C47D0604A76
:1038A000126811795E4A526810786B460122FFF760
:1038B00014FE10B14FF0FF30EEE79DF8000020F04D
:1038C00020000090564A12681179554A52681078C3
:1038D0006B460122FFF7D1FD10B14FF0FF30DBE75F
:1038E00040F6B83005F021FB022000904C4890F8DB
:1038F000220020B19DF8000040F080000090484870
:1039000090F8230020B19DF8000040F030000090B6
:10391000434A1268117D424A526810786B46012270
:10392000FFF7ABFD002852D04FF0FF30B4E73C4A20
:10393000126811793A4A526810786B460122FFF7F3
:10394000CCFD10B14FF0FF30A6E73548807A00F08B
:10395000010028B19DF8000040F02000009004E034
:103960009DF8000020F0200000902D4A1268117987
:103970002B4A526810786B460122FFF77EFD10B18A
:103980004FF0FF3088E740F6B83005F0CEFA244813
:1039900090F8220010B18020009001E000200090FB
:1039A0001F4890F8230020B19DF8000040F030003F
:1039B00000901B4A1268117D194A526810786B46B4
:1039C0000122FFF75AFD10B14FF0FF3064E71448B1
:1039D0008474002060E708B51148807A10B94FF070
:1039E000FF3008BD002000900D4A1268D17B0C4AC0
:1039F000526810786B460122FFF73FFD10B14FF07F
:103A0000FF30EEE7064A12685179054A526810788D
:103A10006B460122FFF731FD60B14FF0FF30E0E768
:103A2000A8000020252335783A20252335780D0A73
:103A300000000000F94A12681179F84A52681078BB
:103A40006B460122FFF719FD10B14FF0FF30C8E7B8
:103A5000F24890F82400002854D00C200090EF4A3F
:103A600012681179ED4A526810786B460122FFF70F
:103A700004FD10B14FF0FF30B3E74CF2503005F0C9
:103A800054FAC0200090E548807A00F0010020B18F
:103A90009DF8000040F020000090E04A1268117983
:103AA000DE4A526810786B460122FFF7E6FC10B13F
:103AB0004FF0FF3095E7D948407C10B102200090CC
:103AC00001E000200090D54A1268D17BD34A5268A9
:103AD00010786B460122FFF7D0FC10B14FF0FF3099
:103AE0007FE700200090CD4A12685179CB4A526896
:103AF00010786B460122FFF7C0FC002856D04FF02B
:103B0000FF306EE704200090C44A12681179C34A5E
:103B1000526810786B460122FFF7AFFC10B14FF0EE
:103B2000FF305EE7BD48807C20B9BC48807A00F059
:103B3000010010B94020009001E060200090B74AD9
:103B400012681179B54A526810786B460122FFF766
:103B500094FC10B14FF0FF3043E74CF2503005F0C9
:103B6000E4F9AE48407C10B10120009001E0002053
:103B70000090AA4A1268D17BA84A526810786B4616
:103B80000122FFF77AFC10B14FF0FF3029E7A34A7A
:103B900012685179A14A52681078A04B1033012263
:103BA000FFF76BFC10B14FF0FF301AE7002018E769
:103BB00070B50446002624F00104984890F82400CB
:103BC00008B1002070BD9548807A10B94FF0FF30E1
:103BD000F8E79248057C807A2040904908740846AE
:103BE000007CA04202D04FF0FF3600E0002614B95E
:103BF0008A48007D18B10120FFF71EFD02E0002079
:103C0000FFF71AFD3CB1FFF7E6FE20B183480574CB
:103C10004FF0FF30D6E73046D4E738B504467F484A
:103C2000807A10B94FF0FF3038BDBC2C02DB012088
:103C3000009015E0622C02DB0220009010E02A2C9C
:103C400002DB032000900BE0142C02DB0420009028
:103C500006E00A2C02DB0520009001E0062000901F
:103C60006E48C07A9DF80010884201D10020DBE741
:103C70006A4A12689178694A526810786B46012244
:103C8000FFF7FBFB10B14FF0FF30CDE79DF80010C0
:103C90006248C1720020C7E738B50446282C02DD0F
:103CA0004FF0FF3038BDDCB90020FFF755FD002094
:103CB0008DF8000007208DF80100584A1268917CA9
:103CC000564A526810786B460222FFF7D6FB10B1B5
:103CD0004FF0FF30E6E70021504801750020E1E792
:103CE0000120FFF739FD20208DF80000012C06D1BE
:103CF00000208DF801000520FFF78FFF17E0052C4D
:103D000006DC01208DF801000520FFF786FF0EE09C
:103D1000142C06DC02208DF801000A20FFF77DFF3D
:103D200005E003208DF801001420FFF776FF9DF8D1
:103D30000100072101EB8010C0B28DF80100374A65
:103D40001268917C354A526810786B460222FFF760
:103D500094FB10B14FF0FF30A4E708212F48817287
:103D600000210173012101750020FFF721FF0020D0
:103D700098E738B504462948807A10B94FF0FF30EB
:103D800038BD264890F8240010B14FF0FF30F7E717
:103D90002248007D50B134B1282C04DCE0B2FFF79A
:103DA0007BFF0020ECE70020FFF776FF042C01DA10
:103DB000042404E0B4F57A7F01DD4FF47A744FF403
:103DC0007A7090FBF4F0401EC0B20090134A126863
:103DD0005178124A526810786B460122FFF74DFB6A
:103DE00010B14FF0FF30CBE79DF80000401C4FF4BE
:103DF0007A7191FBF0F081B20848C1810146C9890E
:103E00004810FFF70AFF0020BAE738B50446034818
:103E1000807A28B94FF0FF3038BD0000A80000209C
:103E2000022C06D0042C07D0082C08D0102C0CD162
:103E300008E0002000900BE00820009008E010202F
:103E4000009005E01820009002E04FF0FF30E3E71B
:103E500000BFFC48407A9DF80010B0EBE10F01D1A3
:103E60000020D9E7F74A1268D179F64A52681078EB
:103E70006B460122FFF701FB10B14FF0FF30CBE79B
:103E80009DF80000C110EF4841720020C4E738B52A
:103E90000446EC48807A10B94FF0FF3038BDFA2C58
:103EA00009D0B4F5FA7F09D0B4F57A7F09D0B4F51A
:103EB000FA6F0CD108E0002000900BE00820009081
:103EC00008E01020009005E01820009002E04FF07C
:103ED000FF30E3E700BFDB48007A9DF80010B0EB4D
:103EE000E10F01D10020D9E7D64A12689179D54A6D
:103EF000526810786B460122FFF7BFFA10B14FF0FD
:103F0000FF30CBE79DF80000C010CE4908720020BA
:103F1000C4E71CB580208DF80000CA4A1268917C65
:103F2000C84A526810786B460122FFF7A6FA10B112
:103F30004FF0FF301CBDC44804F0F7FF00208DF89F
:103F40000000C04A1268917CBE4A526810786B46E5
:103F50000122FFF792FA10B14FF0FF30EAE7B94AB9
:103F60001268917DB74A526810786B460622FFF7B7
:103F7000B4FA10B14FF0FF30DCE79DF80500C00740
:103F8000400F9DF8031001F0010140EA41009DF847
:103F9000011001F0010140EA010474B1012C03D1C8
:103FA0000121A848C17427E0022C03D10021A548B3
:103FB000C17421E04FF0FF30BCE7A24A1268D1780B
:103FC000A04A526810786B460122FFF786FA10B1BA
:103FD0004FF0FF30AEE79DF8000000F00F0414B979
:103FE0004FF0FF30A6E7042C03D101219548C1749E
:103FF00002E000219348C174FF2192488172FF20A2
:1040000090490872FF218F484172C1724FF6FF71CB
:10401000C181FF21017481740121017380F8221094
:10402000002180F823104175017516300160416050
:104030008160163880F8241080F82510C1844FF470
:10404000FA60FFF724FF10B14FF0FF3072E708204D
:10405000FFF7DBFE10B14FF0FF306BE72A20FFF7D0
:10406000DCFD10B14FF0FF3064E73220FFF781FE36
:1040700010B14FF0FF305DE70020FFF799FD10B160
:104080004FF0FF3056E70020FFF7FFFB10B14FF075
:10409000FF304FE70020FFF792FB00204AE7704710
:1040A0007CB504460D466748807A00F0700010B970
:1040B0004FF0FF307CBD634A1268117B614A526841
:1040C00010786B460622FFF708FA10B14FF0FF3068
:1040D000F0E79DF801009DF8001040EA012000B2D1
:1040E00020809DF803009DF8021040EA012000B2F4
:1040F00060809DF805009DF8041040EA012000B2A0
:10410000A08015B12846FFF7CAFF0020D2E77CB592
:1041100004460D464B48807A00F0080010B94FF075
:10412000FF307CBD474A1268517B464A526810787E
:104130006B460622FFF7D1F910B14FF0FF30F0E7E0
:104140009DF801009DF8001040EA012000B2208097
:104150009DF803009DF8021040EA012000B2608043
:104160009DF805009DF8041040EA012000B2A080EF
:1041700015B12846FFF793FF0020D2E7F8B50646B1
:104180000C463048807A10B94FF0FF30F8BD2D4A08
:104190001268917B2B4A526810786B460222FFF717
:1041A0009CF910B14FF0FF30F0E79DF801009DF849
:1041B000001040EA012005B214B12046FFF76FFF5E
:1041C00020484068B0F9080000EE100AF8EEC00A76
:1041D00000EE105AB8EEC00A70EE600A1948406846
:1041E000C08800EE100AB8EE400A80EE801A9FEDFB
:1041F000170A31EE000ADFED160A20EE200ABDEEA6
:10420000C00A86ED000A0020C0E710B588B0044659
:104210001CB94FF0FF3008B010BD206828B96068A5
:1042200018B9A06808B90020F5E706494968087878
:1042300006AB03221146FFF750F958B14FF0FF309B
:10424000E9E70000A8000020A086010000000C4261
:10425000000080479DF81800082101EB201000F0B5
:104260000F00ADF800009DF8190001EB201000F0E0
:104270000F00ADF802009DF81A0001EB201000F0CD
:104280000F00ADF8040020684100BDF90000403087
:1042900091FBF0F000B2ADF8100060684100BDF98C
:1042A0000200403091FBF0F000B2ADF81200A068BF
:1042B0004100BDF90400403091FBF0F000B2ADF8D0
:1042C0001400FE494968087806AB06221146FFF73C
:1042D00004F910B14FF0FF309DE79DF819009DF8EB
:1042E000181040EA012000B2ADF808009DF81B004C
:1042F0009DF81A1040EA012000B2ADF80A009DF8BE
:104300001D009DF81C1040EA012000B2ADF80C0021
:10431000BDF81000BDF80810084400B2ADF8100058
:10432000BDF81200BDF80A10084400B2ADF8120042
:10433000BDF81400BDF80C10084400B2ADF814002C
:10434000BDF81000000A8DF81800BDF81000C0B2CA
:104350008DF81900BDF81200000A8DF81A00BDF89A
:104360001200C0B28DF81B00BDF81400000A8DF8D1
:104370001C00BDF81400C0B28DF81D00CF4949687B
:10438000087806AB06221146FFF777F810B14FF018
:10439000FF3040E700203EE70146C848007A30B1D0
:1043A000012807D0022809D003280FD10AE0FA20FB
:1043B00008800EE04FF4FA7008800AE04FF47A703B
:1043C000088006E04FF4FA60088002E000200880D0
:1043D00000BF00BF002070470146B848407A30B1A6
:1043E000012807D0022808D003280CD108E00220B9
:1043F00008700BE00420087008E00820087005E051
:104400001020087002E04FF0FF30704700BFAB484B
:10441000C07C18B108784006000E08700020F4E750
:104420000146A648C07A082817D2DFE800F0170432
:10443000070A0D101318BC20088013E062200880C2
:1044400010E02A2008800DE0142008800AE00A20ED
:10445000088007E00520088004E000BF00BF0020BE
:10446000088000BF00BF002070470146934890F8C5
:10447000240010B14FF0FF3070479048C089088089
:104480000020F9E7014600200880401E70470146E1
:104490004FF0FF30704701468848007A30B101285C
:1044A00009D002280CD0032814D10EE09FED840A15
:1044B00081ED000A11E09FED830A81ED000A0CE016
:1044C0009FED810A81ED000A07E09FED800A81EDF2
:1044D000000A02E04FF0FF30704700BF0020FBE70A
:1044E00001467648407A30B1012808D002280AD027
:1044F000032810D10BE04FF4804008800EE041F615
:104500009C7008800AE04FF48050088006E04FF469
:104510000060088002E04FF0FF30704700BF67483E
:10452000C07C10B10888401008800020F5E70146E3
:104530006248007C08700020704701465F48807A1E
:1045400010B10120087001E00020087000207047C1
:1045500038B504465948807A10B94FF0FF3038BD5D
:10456000564A1268117C554A526810786B460222EE
:10457000FEF7B3FF10B14FF0FF30F0E79DF80100F8
:104580009DF8001040EA012000B220800020E6E7FC
:104590002DE9FE4F0746884692461D46DDF830B0AD
:1045A00000260024454890F8240010B1601EBDE8A4
:1045B000FE8F002028704148807A10B94FF0FF30FC
:1045C000F5E73E48007C10B94FF0FF30EFE73B487D
:1045D000007C00F0400008B1B01CC6B23748007C37
:1045E00000F0200008B1B01CC6B23448007C00F0D6
:1045F000100008B1B01CC6B23048007C00F00800C2
:1046000008B1B01DC6B22D4A1268917A2B4A526881
:1046100010786B460222FEF760FF10B14FF0FF30BA
:10462000C5E79DF801009DF8001040EA0129B14559
:1046300001DA0020BBE7214840684088B9EB600FF1
:1046400017DD1E4A1268517C1C4A526810786B466E
:104650000122FEF742FF10B14FF0FF30A7E79DF8AF
:10466000000000F0100020B1FFF7B5F96FF0010075
:104670009DE75046FFF713FD104A1268D17A0F4AA2
:10468000526810786B463246FEF727FF10B14FF0A4
:10469000FF308CE799FBF6F0401E8BF800000020FD
:1046A0002870B44235D00548007C00F0080080B383
:1046B000601C1DF800001DF8041009E0A80000208F
:1046C000000003430000834233330342333383410A
:1046D00040EA012000B2A8F80000E01C1DF800101C
:1046E000A01C1DF8000041EA002000B2A8F802005A
:1046F000601D1DF80010201D1DF8000041EA00207B
:1047000000B2A8F80400287840F008002870A01D26
:1047100084B2B44213D0FE48007C00F0400070B177
:10472000601C1DF800001DF8041040EA012000B2D2
:104730003880287840F040002870A01C84B2B44231
:1047400013D0F348007C00F0200070B1601C1DF80D
:1047500000001DF8041040EA012000B2788028789B
:1047600040F020002870A01C84B2B44213D0E84866
:10477000007C00F0100070B1601C1DF800001DF8F6
:10478000041040EA012000B2B880287840F0100000
:104790002870A01C84B2002009E7F8B504460F4633
:1047A0001646DB4890F8240010B94FF0FF30F8BDF2
:1047B000D748807A10B94FF0FF30F8E7D44A126832
:1047C000917AD34A526810786B460222FEF785FE32
:1047D00010B14FF0FF30EAE79DF801009DF800109E
:1047E00040EA0125A54203DA00203070401EDEE7D2
:1047F000C74840684088B5EB600F17DDC44A1268AF
:10480000517CC34A526810786B460122FEF765FE60
:1048100010B14FF0FF30CAE79DF8000000F0100023
:1048200020B1FFF7D8F86FF00100C0E7E2B2B84B53
:104830001B68D97AB64B5B6818783B46FEF74DFE8D
:1048400010B14FF0FF30B2E795FBF4F0401E30702E
:104850000020ACE70146AE4880F8221000207047E7
:104860007CB50546AA494968087801AB04220D21A8
:10487000FEF733FE08B107207CBD9DF80700C0F3AA
:1048800001109DF8041001F0E00140EAE1008DF80C
:1048900000009DF80700C0F381009DF8051001F0AD
:1048A000E00140EAE1008DF801009DF8070000F00A
:1048B00003009DF8061001F0E00140EAE1008DF8E8
:1048C0000200002427E01DF8040030B99FED910A92
:1048D00005EB840080ED000A1BE09FED8F0A05EBDD
:1048E000840080ED000A0BE005EB840090ED000AE7
:1048F000DFED8A0A20EE200A05EB840080ED000A35
:104900001DF80400401EC0B20DF804000028EBD1D1
:1049100000BF601CC4B2032CD5DB0020ACE7F0B5AF
:104920002DED028B83B006460F4600256846FFF743
:1049300097FF002447E056F8241057F82420881ADF
:10494000002801DB014600E0414200EE101AB8EEFB
:10495000C00ADFED730A80EE208A684600EB84000F
:1049600090ED000AB5EEC00AF1EE10FA18D06846D4
:1049700000EB8400D0ED000A88EE200AF7EE000A72
:1049800070EE608AB0EEE80A6648D0ED090AB4EE2F
:10499000E00AF1EE10FA15DD0120A040054311E018
:1049A000604890ED070AB4EEC80AF1EE10FA06DC92
:1049B00090ED080AB4EEC80AF1EE10FA02D2012016
:1049C000A0400543641C032CB5DB284603B0BDECB6
:1049D000028BF0BDF0B52DED048B81B006460F467D
:1049E00000254B49496808786B4603220D21FEF7E4
:1049F00074FD20B1072001B0BDEC048BF0BD9DF823
:104A0000000000F01F008DF800009DF8010000F08C
:104A10001F008DF801009DF8020000F01F008DF8C6
:104A20000200002455E056F8241057F82420881A74
:104A3000002801DB014600E0414200EE101AB8EE0A
:104A4000C00ADFED370A80EE208A1DF8040068B343
:104A5000344890ED000AB8EE400ADFED330A80EEEC
:104A6000801AF0EE418A05E09FED300A28EE800AB8
:104A7000F0EE408A1DF80400401EC0B20DF804009C
:104A80000028F1D188EE280AF7EE000A30EE609A8D
:104A9000B0EEC90A2348D0ED060AB4EEE00AF1EE02
:104AA00010FA15DD0120A040054311E01D4890EDEE
:104AB000040AB4EEC80AF1EE10FA06DC90ED050A1D
:104AC000B4EEC80AF1EE10FA02D20120A04005436C
:104AD000641C032CA7DB28468DE72DE9F04F87B037
:104AE00005460C46914601208DF8100000208DF8F7
:104AF0001100074A1268917C054A5268107804AB8D
:104B00000222FEF7BAFCA8B14FF0FF3007B00FE069
:104B1000A8000020000000007B14AE3E1D5A843F18
:104B2000000080479449010800B04C4554E3853F9C
:104B3000BDE8F08FFE4804F0F8F900208DF8100071
:104B4000FC4A1268D17BFB4A5268107804AB012200
:104B5000FEF793FC10B14FF0FF30D7E7F54A12682B
:104B60005179F44A5268107804AB0122FEF785FCB3
:104B700010B14FF0FF30C9E7EE4A1268917CED4A60
:104B80005268107804AB0122FEF777FC10B14FF0A9
:104B9000FF30BBE7E74A1268D17DE64A52681078D9
:104BA00004AB0122FEF769FC10B14FF0FF30ADE716
:104BB000E04A12681179DF4A5268107804AB01228A
:104BC000FEF75BFC10B14FF0FF309FE70C208DF833
:104BD0001000D84A12681179D64A5268107804AB8E
:104BE0000122FEF74AFC10B14FF0FF308EE743F68A
:104BF000982004F09AF9CF48806A407A8DF8100026
:104C0000CC4A12689178CB4A5268107804AB0122E2
:104C1000FEF733FC10B14FF0FF3077E7C548806AEC
:104C2000007A8DF81000C34A12685178C14A526860
:104C3000107804AB0122FEF720FC10B14FF0FF30DA
:104C400064E7B9F1000F07D0BA48806A807A40F073
:104C5000E0008DF8100004E0B648806A807A8DF894
:104C60001000B44A12689179B24A5268107804ABC5
:104C70000122FEF702FC10B14FF0FF3046E7B9F118
:104C8000000F07D0AB48806AC07A40F0E0008DF892
:104C9000100003E0A848C07A8DF81000A54A1268F9
:104CA000D179A44A5268107804AB0122FEF7E5FBE3
:104CB00010B14FF0FF3029E7B9F1000F02D09C4846
:104CC00004F033F940208DF810009A4A12681179E7
:104CD000984A5268107804AB0122FEF7CEFB10B15F
:104CE0004FF0FF3012E778208DF81000914A1268DB
:104CF0005179904A5268107804AB0122FEF7BDFB4F
:104D000010B14FF0FF3001E78B4989894FF47A7277
:104D100001FB02F004F009F900208DF81000854A2B
:104D200012685179834A5268107804AB0122FEF769
:104D3000A4FB10B14FF0FF30E8E67E4A1268917A8A
:104D40007C4A5268107804AB0222FEF7C6FB10B111
:104D50004FF0FF30DAE69DF811009DF8101040EAA0
:104D6000012B0C209BFBF0F0C6B20020A86068600D
:104D70002860A06060602060824665E06D4A12682D
:104D8000D17A6C4A5268107804AB0C22FEF7A5FB6E
:104D900010B14FF0FF30B9E69DF811009DF81010EA
:104DA00040EA012000B2ADF808009DF813009DF81C
:104DB000121040EA012000B2ADF80A009DF815007B
:104DC0009DF8141040EA012000B2ADF80C00BDF9C6
:104DD0000810206808442060BDF90A106068084483
:104DE0006060BDF90C10A0680844A0609DF8170031
:104DF0009DF8161040EA012000B2ADF800009DF8C1
:104E000019009DF8181040EA012000B2ADF8020028
:104E10009DF81B009DF81A1040EA012000B2ADF881
:104E20000400BDF90010286808442860BDF902108C
:104E3000686808446860BDF90410A8680844A86060
:104E40000AF1010000F0FF0AB24597DB3A48D0F8BA
:104E500000C02868C117090441EA104107046246EE
:104E6000002338460DF00CFD32460023CDE9020147
:104E70000DF006FD28603048D0F800C06868C11702
:104E8000090441EA104107046246002338460DF048
:104E9000F7FC32460023CDE902010DF0F1FC686019
:104EA0002548D0F800C0A868C117090441EA10419C
:104EB00007046246002338460DF0E2FC3246002328
:104EC000CDE902010DF0DCFCA8601B48D0F804C05D
:104ED0002068C117090441EA104107046246002313
:104EE00038460DF0CDFC32460023CDE902010DF02D
:104EF000C7FC20601048D0F804C06068C1170904DE
:104F000041EA104107046246002338460DF0B8FC20
:104F100032460023CDE902010DF0B2FC6060064884
:104F2000D0F804C0A068C117090441EA104105E0A7
:104F3000400D0300A80000209449010807046246C0
:104F4000002338460DF09CFC32460023CDE90201D7
:104F50000DF096FCA060A068002804DDA068A0F514
:104F60008030A06003E0A06800F58030A0600020E1
:104F7000CCE538B50446FE4890F82400A04201D1A3
:104F8000002038BD24B3FA4890F8250010B94FF03E
:104F9000FF30F6E70020FEF74FFB0020FEF775FC20
:104FA000F349C88CFEF7E5FE00200090F0494968FF
:104FB00008786B4601222321FEF75FFA0121EC48B5
:104FC00080F824100120FEF737FBFEF704FD13E004
:104FD0000020FEF731FBE648007C0090E449496878
:104FE00008786B4601222321FEF747FA0021E048AA
:104FF00080F82410FEF7EFFC0020C2E72DE9F04F07
:105000008DB083460F4602200C90D94890F82400BA
:1050100020B10020FFF7ADFF012600E0002603A825
:10502000FFF7BAF905A8FFF7D7F901A8FFF7F8F9D4
:1050300002A8FFF71AFACE4890F80AA004A8FFF7D2
:1050400076FA002407E0002239465846FFF745FD6E
:1050500000B902E0641C022CF5DB00BF022C01D178
:10506000002528E0002407E0012206A909A8FFF78F
:1050700034FD00B902E0641C022CF5DB00BF022CF9
:1050800001D1002517E006A93846FFF748FC00F0DB
:10509000FF0809A95846FFF79DFC00F0FF0900250D
:1050A000B9F1000F01D145F00105B8F1000F01D1B0
:1050B00045F0020500BFFF20AD490872FF21AC4852
:1050C0004172C1724FF6FF71C181FF21817201747B
:1050D00001210173BDF80C00FEF7D9FE9DF8140004
:1050E000FEF793FEBDF80400FEF797FDBDF808003B
:1050F000FEF73FFE5046FEF762FB9DF81000FEF7FC
:1051000057FD16B10120FFF734FF28460DB0BDE86A
:10511000F08FF8B504460D46164616B94FF0FF302D
:10512000F8BD9348807A10B94FF0FF30F8E72012AD
:105130008DF80000E0B28DF801009DF801002844D0
:105140008B4949684989884202DD4FF0FF30E7E723
:10515000874A1268117E864A526810786B4602228E
:10516000FEF78BF910B14FF0FF30D9E7EAB2804B70
:105170001B68597D7E4B5B6818783346FEF77DF9D6
:1051800010B14FF0FF30CBE70020C9E7F8B5044677
:105190000D46164616B94FF0FF30F8BD7448807AB8
:1051A00010B94FF0FF30F8E720128DF80000E0B2A0
:1051B0008DF801009DF8010028446D49496849892E
:1051C000884202DD4FF0FF30E7E7694A1268117E3E
:1051D000674A526810786B460222FEF74EF910B10A
:1051E0004FF0FF30D9E7EAB2614B1B68597D604B45
:1051F0005B6818783346FEF770F910B14FF0FF3056
:10520000CBE70020C9E72DE9F04385B005460E46FF
:1052100090469946564890F8250020B14FF0FF304F
:1052200005B0BDE8F08316B94FF0FF30F8E7002471
:1052300023E0281B102801DD102000E0281B87B286
:10524000321939462046FFF764FF10B14FF0FF30A6
:10525000E6E701AA39462046FFF798FF10B14FF064
:10526000FF30DDE730193A4601A90DF029FC10B1F5
:105270006FF00100D4E7E01984B2AC42D9DB4FEA09
:1052800028208DF8000008F0FF008DF80100384A52
:105290001268917E364A526810786B460222FEF7F9
:1052A000ECF810B14FF0FF30BAE70121304880F838
:1052B0002510A0F826900020B2E701462C4890F86F
:1052C00024000870002070474FF0FF3070470246FE
:1052D0004FF0FF30704701464FF0FF307047F8B590
:1052E00005460F461446002C73D0B5F5FF5F01DD6F
:1052F000FF2605E0202D01DA012601E0C5F347165F
:1053000007B90127282C02DD4FF0FF30F8BD1848FF
:10531000407D28BB164890F8240038B10020FFF7E4
:1053200028FE0121124880F8201003E000211048D7
:1053300080F820100E481630FFF72EF80C48183071
:10534000FFF74AF80A481A30FFF76AF808481C3095
:10535000FFF78BF80648817A81771F30FFF7E7F86F
:105360000020FEF769F90020FEF796FC002001E01E
:10537000A80000208DF80000FD4A12689178FC4AD0
:10538000526810786B460122FEF777F810B14FF0A3
:10539000FF30BBE740208DF80000F54A1268D17B52
:1053A000F34A526810786B460122FEF766F800B1A6
:1053B00066E08DF800608DF80170ED4A1268117A90
:1053C000EB4A526810786B460222FEF756F808B195
:1053D00056E048E041F2883003F0A7FDE448407A07
:1053E000072101EBC000C0B28DF80000E04A12684E
:1053F000D179DF4A526810786B460122FEF73DF8FA
:1054000000B13DE020208DF80000012C03D10020E8
:105410008DF801000EE0052C03DC01208DF8010061
:1054200008E0142C03DC02208DF8010002E00320C8
:105430008DF801009DF80100072101EB8010C0B23A
:105440008DF80100CA4A1268917CC94A52681078E6
:105450006B460222FEF711F800B111E00121C448A9
:105460004175002052E7C24A1632002103E0505C29
:1054700000B105E0491C0C29F9D34FF0FF3045E796
:10548000FF20BB490872FF21B9484172C1724FF633
:10549000FF71C181FF2181720174012101730146F5
:1054A000887FFEF78CF9B249C88AFEF7F0FCB04954
:1054B000087EFEF7AAFCAE49488BFEF7AEFBAC496E
:1054C000888BFEF756FCAA49C87FFEF771FBA848F7
:1054D00090F8200010B10120FFF74BFD0021A448F7
:1054E0004175002012E710B588B002A905A8FFF7A2
:1054F00085FD0446032C41D101A8FEF7CCFF9DEDAC
:10550000050AB8EEC00ADDED010A20EE200ABDEE64
:10551000C00A8DED050A9DED060AB8EEC00ADDED64
:10552000010A20EE200ABDEEC00A8DED060A9DEDAF
:10553000070AB8EEC00ADDED010A20EE200ABDEE32
:10554000C00A8DED070A05A800F08BFA6846FEF741
:10555000C7FFBDF80010029848430290BDF8001044
:10556000039848430390BDF8001004984843049002
:1055700002A800F009FB002008B010BD0120FBE7E5
:10558000014691F90020002A01DD00201EE091F97A
:105590000020002A01DA042018E091F90120002AF5
:1055A00001DD012012E091F90120002A01DA052035
:1055B0000CE091F90220002A01DD022006E091F9B9
:1055C0000220002A01DA062000E00720704710B50B
:1055D00004462046FFF7D4FF0346E01CFFF7D0FF48
:1055E00043EAC00083B2A01DFFF7CAFF43EA801060
:1055F00083B2184610BD70B50024FEF78AFC00285F
:1056000040D17820FEF7DBF8C4B20CB1012070BDA8
:105610007820FEF7CDFAC4B20CB10220F7E7C8201B
:10562000FEF7A7FBC4B20CB10320F0E700F07EF94F
:10563000C4B20CB10420EAE74E48FFF7C8FF0546A4
:1056400000F07EF9C4B20CB10520E0E740F273101F
:1056500000F0C7FDC4B20CB10620D8E7C82000F0A6
:1056600029FBC4B20CB10720D1E7FFF73CFF044689
:105670000CB10820CBE70120FFF77BFCC4B20CB1D2
:105680000920C4E70020C2E770B52DED088B8EB06D
:1056900004460D46164607A808A90DAB03AACDE996
:1056A000001009A90BA800F0FBFE20B101200EB0EC
:1056B000BDEC088B70BDBDF8200000F480700028A0
:1056C00055D09DED030AB8EEC00ADFED2B0A80EE3F
:1056D000201A2A4880ED001A9DED040AB8EEC00A8F
:1056E000DFED250A80EE201A254880ED001A9DED99
:1056F000050AB8EEC00ADFED200A80EE201A214824
:1057000080ED001A9DED060AB8EEC00ADFED1A0A18
:1057100080EE201A1C4880ED001A194890ED000A0E
:10572000F8EE000A20EE200A1748D0ED000A20EE1D
:10573000200A1248D0ED000AB0EE001A60EE810A8D
:10574000104890ED001A00EE810A10EE101A08467B
:105750000FF07CF841EC1A0BB0EE4A0AF0EE6A0A40
:105760000DF0AAFBB0EE409AF0EE609A0EE0CDE0AC
:10577000A8000020D40000200000804EE00000209F
:10578000E4000020E8000020EC0000209FED610B09
:1057900053EC102B51EC190B0EF098FD41EC180B4B
:1057A0000EF0DAFA20605D4890ED000AF8EE000A8B
:1057B00020EE200AD0ED000A20EE200A5848D0ED55
:1057C000000AB0EE001A60EE810A90ED001A00EEB9
:1057D000C10AF7EE000A30EE200A10EE101A084651
:1057E0000FF034F841EC1A0B4D4890ED000AF0EE42
:1057F000000A20EE200A4B48D0ED000A20EE200AD5
:105800004948D0ED000AB0EE001A60EE810A434824
:1058100090ED001A00EE810A10EE101A08460FF003
:1058200015F841EC1B0BB0EE4A1AF0EE6A1AB0EE16
:105830004B0AF0EE6B0A0DF05BFEB0EE409AF0EE14
:10584000609A9FED340B53EC102B51EC190B0EF0BA
:105850003DFD41EC180B0EF07FFA2860324890EDC8
:10586000000A20EE000A2D48D0ED000A90ED001A43
:1058700000EE810A2A48D0ED000A90ED001A00EEF1
:10588000C10A2848D0ED000A90ED001A00EEC10AC6
:1058900010EE101A08460EF0D9FF41EC1A0B1F4803
:1058A00090ED000A1E48D0ED000A20EE200A1E48A6
:1058B000D0ED000A1B4890ED001A00EE810AF0EED0
:1058C000000A20EE200A10EE101A08460EF0BEFF65
:1058D00041EC1B0BB0EE4A1AF0EE6A1AB0EE4B0A1E
:1058E000F0EE6B0A0DF004FEB0EE409AF0EE609A16
:1058F0009FED080B53EC102B51EC190B0EF0E6FC4E
:1059000041EC180B0EF028FA306001E00220CEE6E0
:105910000020CCE66666666666A64C40E400002081
:10592000E8000020EC000020E000002010B5C823B3
:105930004FF48062F74940F6F630FFF764FC10BD83
:1059400010B586B00446F4A000680390F3A0006888
:105950000290F3A000680190F2A00068009004F0AB
:10596000030003A9085C8DF8140003A8C4F3C10167
:10597000405C8DF8150003A8C4F38111405C8DF8DC
:10598000160004F0030002A9085C8DF8100002A8BC
:10599000C4F3C101405C8DF8110002A8C4F3811169
:1059A000405C8DF8120005AA032140F22640FFF763
:1059B000B0FB18B14FF0FF3006B010BD04AA0321B0
:1059C00040F22A40FFF7A5FB10B14FF0FF30F3E79C
:1059D000019805900098049004F0040058B19DF8D7
:1059E000140040F001008DF814009DF8100040F004
:1059F00001008DF8100004F0200058B19DF815004A
:105A000040F001008DF815009DF8110040F00100F4
:105A10008DF8110004F4807058B19DF8160040F024
:105A200001008DF816009DF8120040F001008DF87D
:105A3000120005AA03214FF48860FFF76AFB10B13A
:105A40004FF0FF30B8E704AA032140F23140FFF7DE
:105A500060FB10B14FF0FF30AEE7B3480481002087
:105A6000AAE71FB50446B048007A00F0030054F8D6
:105A700020000190AC48007A00F0040010B10198B9
:105A800040420190A848007AC0F3C10054F82000B9
:105A90000290A548007A00F0200010B10298404220
:105AA0000290A148007AC0F3811054F820000390BE
:105AB0009D48008900F4807010B103984042039023
:105AC0009A49019880FB0101800F40EA8100019012
:105AD0009649029880FB0110820042EA9170029080
