:020000040800F2
:10000000F044002059670008550200085702000814
:100010005B0200085F0200086302000800000000A5
:10002000000000000000000000000000670200085F
:100030006902000800000000BF2F0108B590000809
:100040007367000873670008736700087367000828
:100050007367000873670008736700087367000818
:1000600073670008252F000873670008736700088E
:1000700073670008736700087367000873670008F8
:10008000736700086334000873670008736700082B
:1000900073670008736700087367000873670008D8
:1000A00073670008736700087367000873670008C8
:1000B00073670008736700087367000873670008B8
:1000C00073670008736700087367000873670008A8
:1000D0007367000873670008511C00087367000805
:1000E0007367000873670008736700087367000888
:1000F0007367000873670008736700087367000878
:100100007367000873670008A11E00087367000882
:100110007367000873670008736700087367000857
:100120007367000873670008736700087367000847
:100130007367000873670008736700087367000837
:100140007367000873670008736700087367000827
:1001500073670008736700084B3400087367000872
:100160007367000873670008736700087367000807
:1001700073670008736700087367000873670008F7
:10018000736700087367000800F002F800F053F886
:100190000AA090E8000C82448344AAF10107DA45E2
:1001A00001D100F048F8AFF2090EBAE80F0013F0E1
:1001B000010F18BFFB1A43F001031847FC5A010056
:1001C0001C5B01000A4410F8014B14F00F0508BF36
:1001D00010F8015B240908BF10F8014B6D1E05D013
:1001E00010F8013B6D1E01F8013BF9D1641E03D0EC
:1001F000641E01F8015BFBD19142E4D3704700001B
:100200000023002400250026103A28BF78C1FBD81F
:10021000520728BF30C148BF0B607047782912F0E1
:100220008D84002070471FB514F089FC12F086FD04
:100230001FBD10B510BD12F079FE1146FFF7F3FF98
:1002400000F080F912F097FE03B4FFF7F2FF03BC51
:1002500009F019F8704700BFFEE700BFFEE700BFD6
:10026000FEE700BFFEE77047704700000CB50020B6
:10027000019000907648006840F48030744908602E
:1002800000BF7348006800F4003000900198401CE3
:100290000190009818B90198B0F5A04FF1D16C48C1
:1002A000006800F4003010B10120009001E000204F
:1002B00000900098012846D165484030006840F021
:1002C00080506349403108606248006840F4404013
:1002D000604908605E48083000685D490831086080
:1002E0000846006840F4004008600846006840F492
:1002F000A05008605848091F0860081F006840F0B7
:100300008070091F086000BF5148006800F000704D
:100310000028F9D040F20570504908604C48083078
:10032000006820F003004A49083108600846006868
:1003300040F00200086000BF45480830006800F047
:100340000C000828F8D10CBD10B54548006840F4F1
:100350007000434908603E48006840F001003C4995
:10036000086000203A4908310860394800683D4972
:100370000840374908603C48091D0860081F0068AC
:1003800020F48020091F0860002031490C310860EA
:10039000FFF76CFF4FF0006031498039086010BDF5
:1003A00070B500200022022300240221284D0835C8
:1003B0002D6805F00C0020B1042806D0082834D19F
:1003C00007E02A4D2A4E356033E02A4D284E35602D
:1003D0002FE01F4D2D1D2D68C5F380541C4D2D1D84
:1003E0002D6805F03F0154B1224DB5FBF1F5184ED3
:1003F000361D3668C6F3881605FB06F209E01B4D6C
:10040000B5FBF1F5124E361D3668C6F3881605FBAE
:1004100006F20F4D2D1D2D68C5F301456D1C6B00B7
:10042000B2FBF3F5124E356003E0104D104E35600F
:1004300000BF00BF064D08352D68C5F303150E4EED
:10044000705D0B4D2D68C540094E356070BD0000D4
:10045000003802400070004008544007003C024051
:1004600088ED00E0FFFFF6FE103000240024F400C9
:100470000000002000127A000400002038B5044675
:10048000002500BF08F076FF68460EF0E0FE6A46E1
:10049000012108460AF069FF00BF00BF00BF09F054
:1004A000A1F8054600BF00BF5E480078401C5D49CA
:1004B000087000BF00BF284609F098F800BF00BFD1
:1004C00000BF00F06FFB009000F02FF9009000F0EB
:1004D000D5FC009000F070F9009001F0BCFC009099
:1004E0006946514810F0FFFD00BF00BF00BF09F092
:1004F00079F8054600BF00BF4A480078401E4949C8
:10050000087008460078A0B948480088002809DD2E
:1005100000BF00BF284609F069F800BF00BF0BF01C
:100520000DFB0DE000BF00BF284609F05FF800BFDB
:1005300006E000BF00BF284609F058F800BF00BF22
:1005400000BF38BD8AB0002453214FF47A7002F006
:100550001BF94FF4A06006F01FF9A82008F0B6FDC3
:1005600009A80AF0D9FC00BF00BF00BF09F03AF8A3
:10057000044600BF00BF2B480078401C2949087082
:1005800000BF00BF204609F031F800BF00BF00BF28
:1005900009A8032100220592CDE906210890104602
:1005A00080210C22224BCDE90132CDE9031003203A
:1005B0000023AFF237121FA100901B480FF01EFA64
:1005C00000BF00BF00BF09F00DF8044600BF00BF28
:1005D00014480078401E1349087008460078A0B9F6
:1005E00012480088002809DD00BF00BF204608F03F
:1005F000FDFF00BF00BF0BF0A1FA0DE000BF00BF80
:10060000204608F0F3FF00BF06E000BF00BF204611
:1006100008F0ECFF00BF00BF00BF09A80AF045FFCB
:1006200000BFFEE7A00100200402002064010020BA
:10063000C80200207374617274207461736B0000CF
:100640002DED088B88B000F00CFC064602F042F954
:10065000002511E0092407E0601E02A931F810000E
:1006600021F81400601EC4B2002CF5DC002002F05A
:100670006FF9ADF808006D1C142DEBD354E009247C
:1006800007E0601E02A931F8100021F81400601E76
:10069000C4B2002CF5DC002002F05AF9ADF80800D5
:1006A0000024002505E002A830F814000544601C71
:1006B000C4B20A2CF7DB284613F0FCFE41EC1B0BFE
:1006C0009FED290B53EC102B13F008FF41EC1A0B94
:1006D0009FED270B53EC102B13F020FD41EC190B71
:1006E0009FED250B53EC102B13F018FD41EC180B6C
:1006F00013F03AFC22490860084690ED000ADFED4D
:10070000210AB4EEE00AF1EE10FA03D205213046D8
:1007100000F008FC07A8082114230022CDE90010EE
:100720001146104611F005F9A9E700B58BB00AA8EB
:10073000032100220592CDE90621089010464FF4CE
:1007400080711922104BCDE90132CDE90310082048
:100750000023AFF213120DA100900F480FF04EF9D5
:10076000BDF828000BB000BD7E1D386744893140BC
:100770000000000000002440000000000000B04025
:100780001C0000209A9929418C0500205461736B4C
:100790003220616463000000C804002002F08AFB7C
:1007A00001F04AFD04461349204601F06BFD02E0CA
:1007B000204601F078FDFBE700B58BB00AA80321C5
:1007C00000220592CDE906210890104680210C22D6
:1007D000094BCDE90132CDE9031007200023AFF228
:1007E000430206A1009003480FF008F9BDF8280065
:1007F0000BB000BD8C090020500A00205461736BBF
:1008000033204E5246323430310000002DE9F0479B
:100810000024002500260027A146A04600BF6CE06A
:10082000F04A111F081F04F05BFEEE48083890EDF7
:10083000020AB1EE400A80ED020A00F11002111F17
:100840000E3005F02DFFE7480838008A404200B21C
:10085000E4490839088201F116021231881C05F0BA
:1008600047FFE048083890ED013AF0EE432A90ED5A
:10087000023AB0EE432A90ED003AF0EE431AB0F996
:100880001600404203EE100AB8EEC33AB0EE431A27
:10089000D4480838B0F91400404203EE100AB8EE0C
:1008A000C33AF0EE430ACF480838B0F9120003EE1D
:1008B000100AB8EEC33AB0EE430A01F03AFCCA4857
:1008C000B0F904008044C7480838B0F90C0005446A
:1008D000C4480838B0F90E000644C2480838B0F9D8
:1008E00010000744BF480838B0F91600814441F2AF
:1008F000883008F01AFC601CC4B2322C90DB322025
:1009000095FBF0F000B2B9490880322096FBF0F078
:1009100000B24880322097FBF0F000B2888032208D
:1009200098FBF0F000B2B2498880BDE8F0872DED69
:10093000028B84B000F095FA054600F0C7FB03A8CF
:10094000082100230322CDE900101946184610F0B3
:10095000F0FF002402F0FEFA05F02AFE04F077FD15
:100960004FF4E13008F036FC01F0BCF800BF00BFE6
:1009700000BF08F037FE044600BF00BF9D48007866
:10098000401C9C49087000BF00BF204608F02EFEA6
:1009900000BF00BF00BFFFF739FF00BF00BF00BFAF
:1009A00008F020FE044600BF00BF92480078401EB9
:1009B0009049087008460078A0B98F480088002840
:1009C00009DD00BF00BF204608F010FE00BF00BFD9
:1009D0000BF0B4F80DE000BF00BF204608F006FEA3
:1009E00000BF06E000BF00BF204608F0FFFD00BFCB
:1009F00000BF00BF0021284600F094FA03AA4FF47C
:100A000000417E4810F0A6FACBE0764A111F081F7D
:100A100004F066FD7A4908707248083890ED020AC1
:100A2000B1EE400A80ED020A00F11002111F0E30F3
:100A300005F036FE6B4A0E32111F881C05F058FE79
:100A400068480838008A404200B26649083908827E
:100A50000846C08965494988401A00B26149083989
:100A6000C8810846808961490988401A00B25D49F9
:100A7000083988810846008A5C498988401A00B292
:100A8000584908390882084690ED013AF0EE432AA9
:100A900090ED023AB0EE432A90ED003AF0EE431AA0
:100AA000B0F91600404203EE100AB8EEC33AB0EEB9
:100AB000431A0846B0F91400404203EE100AB8EE9B
:100AC000C33AF0EE430A0846B0F9120003EE100AEA
:100AD000B8EEC33AB0EE430A01F02BFB01F032FC52
:100AE00040480838D0ED000AB0EE600A12F0A2FAD1
:100AF000F3EE0E0AB4EEE00AF1EE10FA29DC394802
:100B00000838D0ED010AB0EE600A12F093FAF3EE65
:100B10000E0AB4EEE00AF1EE10FA1ADC3148083899
:100B2000D0ED000AB0EE600A12F084FAB0EE408A0E
:100B30002C480838D0ED010AB0EE600A12F07AFABB
:100B400038EE000ADFED2F0AB4EEE00AF1EE10FAFB
:100B500006DD00202C4908700321284600F0E2F948
:100B60002948007838B91F48083890ED020A1F4814
:100B700080ED040A01E000F058FF00F0D7FA234EA0
:100B8000B6F90630B6F90420B6F90210B6F900003D
:100B900000F00AFA00F0D1FF03AA0821012010F0AA
:100BA00043FE32E700B58BB00AA80321002205926C
:100BB000CDE90621089010464FF480711922144B9C
:100BC000CDE90132CDE9031005200023AFF2A122C7
:100BD00010A1009013480EF011FFBDF828000BB0D3
:100BE00000BD0000B41E00207C0000201411002075
:100BF00082000020A0010020640100206019002074
:100C00002200002000004842400000204200002056
:100C1000140D00205461736B332067657374757213
:100C200065000000500C002070B52DED028B0546CC
:100C30000C46B0EE408A611EC94807F0CFFC00EEBA
:100C4000104AB8EE400A20EE080ABCEEC00A10EEC8
:100C5000101AC34807F065FEBDEC028B70BD70B57D
:100C60002DED028B04460D46B0EE408AA580A0888B
:100C70004004000C608084ED028AD4ED020AB0EEDC
:100C8000600A61882046FFF7CFFFBDEC028B70BD84
:100C9000FEB504460E461746002514E0D4ED020AC0
:100CA000B0EE600A36F815102046FFF7D8FF02A80C
:100CB0000821CDE90010238800221146104610F0CB
:100CC00038FE681CC5B2BD42E8DB9FEDA60A4FF4B2
:100CD0007A712046FFF7C3FFFEBD1FB50446BDE095
:100CE000A14800684FF47A71B1FBF0F00021B1FB2C
:100CF000F0F603AB02AA30460FF02EFD03AA002146
:100D0000E06810F058F9207C082801D1607C00E0F0
:100D1000207C054608202074082D7DD2DFE805F0F0
:100D200004372945115462806420904908809FED62
:100D3000900A084680ED020A04228E49FFF7A8FFB8
:100D40008AE06420894908809FED890A084680ED81
:100D5000020A012287490A31FFF79AFF03A80821F6
:100D600000230122CDE900101946184610F0E1FDDC
:100D700072E04FF496707D4908809FED7D0A084629
:100D800080ED020A03227C49FFF782FF64E0C8205D
:100D9000764908809FED760A084680ED020A032214
:100DA00074490831FFF774FF56E04FF4C8706F497B
:100DB00008809FED720A084680ED020A05226E49FE
:100DC000091DFFF765FF47E04FF41670674908807B
:100DD0009FED6B0A084680ED020A02226949FFF77F
:100DE00057FF39E06420614908809FED670A084693
:100DF00080ED020A01225F490C31FFF749FF5A4892
:100E000000684FF47A71B1FBF0F0C821B1FBF0F645
:100E100003AA0021304600E01DE010F005FD1BE0B4
:100E20006420524908809FED590A084680ED020A65
:100E300001225149FFF72CFF4B4800684FF47A71AB
:100E4000B1FBF0F06421B1FBF0F603AA00213046BB
:100E500010F0EAFC00E000BF00BF00BF40E7C16047
:100E600070474B4800687047FFF7FBFF044649494D
:100E70002046FFF7F4FF2046FFF72FFF00B58BB0A9
:100E80000AA8032100220592CDE906210890104608
:100E900080210C22404BCDE90132CDE9031009201D
:100EA0000023AFF23B023DA100903A480EF0A6FDB0
:100EB000BDF828000BB000BD4FF47A714180344971
:100EC000096809B93249086070472DE9FE43804638
:100ED0000D4616461F46DDF82890002417E006EB65
:100EE0008400D0ED000AB0EE600A35F814104046D8
:100EF000FFF7B5FE02A80821CDE9001037F814303D
:100F000000221146104610F014FD601CC4B24C457E
:100F1000E5DB9FED140A4FF47A714046FFF79FFE20
:100F2000BDE8FE8338B504460D46E06800B938BD1B
:100F3000062D02D0072D03D100E000BF657401E04B
:100F4000257400BF00BF6A460021E06810F002F877
:100F500000BFECE700B50548FFF7AEFF00BD00009D
:100F60000000014000000000BC590108EC13002003
:100F7000CDCCCC3D524B0108604B01080AD7A33CB5
:100F8000CDCC4C3F6E4B0108A69B443B6F12033CFB
:100F90003C00002028110020EC1100205461736BEC
:100FA000332042555A5A00002DE9F04107460C46BD
:100FB00015461E46002F00DA0027B7F57A7F01DDBF
:100FC0004FF47A77002C00DA0024B4F57A7F01DD43
:100FD0004FF47A74002D00DA0025B5F57A7F01DD33
:100FE0004FF47A75002E00DA0026B6F57A7F01DD1F
:100FF0004FF47A7607F57A71444807F092FC05F5CC
:101000007A71434807F08DFC06F57A71404807F085
:101010008AFC04F57A713D4807F085FCBDE8F08153
:101020000EB5A72140F6C31001F0FDFA532140F69A
:10103000C31001F050FB4FF47A71344807F071FC93
:101040004FF47A71324807F06CFC4FF47A713048F3
:1010500007F069FC4FF47A712C4807F064FC16E045
:1010600000F0E3FC2B4CB4F90630B4F90420B4F9D9
:101070000210B4F90000FFF797FF02A8082105232A
:101080000022CDE900101146104610F052FCE7E7AF
:1010900000B58BB00AA8032100220592CDE90621F4
:1010A0000890104680210C221B4BCDE90132CDE97E
:1010B000031006200023AFF2970218A100901A48EF
:1010C0000EF09CFCBDF828000BB000BD10B5A721A8
:1010D00040F6C31001F0A7FA532140F6C31001F007
:1010E000FAFA4FF47A71094807F01BFC4FF47A7151
:1010F000074807F016FC4FF47A71054807F013FC17
:101100004FF47A71014807F00EFC10BD0040014019
:101110000018004042000020C41400205461736B8A
:1011200033204D4F544F5200001400202DE9F05F42
:101130002DED048BFE48B0F90040B0F902508088D4
:10114000404206B2FA48B0F906704FF00008C146B6
:10115000C246C346F748007801284FD1F6480088B8
:1011600064284BDA391B2944881913F08CF941ECB7
:10117000190B9FEDF20B53EC102B13F0AFF941EC70
:10118000180B13F023F90FFA80F8391B491B881B41
:1011900013F079F941EC190B9FEDE80B53EC102B90
:1011A00013F09CF941EC180B13F010F90FFA80F9C9
:1011B0003919491B881913F066F941EC190B9FED99
:1011C000DF0B53EC102B13F089F941EC180B13F0E3
:1011D000FDF80FFA80FA39192944881B13F053F9E6
:1011E00041EC190B9FEDD50B53EC102B13F076F956
:1011F00041EC180B13F0EAF80FFA80FBD148A0F885
:101200000080A0F80290A0F804A0A0F806B0BDEC01
:10121000048BBDE8F09FCC4909784170CA494988E0
:1012200009128170C8498978C170C749097901716B
:10123000C54989794171C449097A817107210170D1
:10124000704770B50446FFF70CFE05466078BE494E
:101250000870E078A17800EB0120BB494880207934
:1012600040B28880607940B2C880A07940B20881DD
:1012700008460078012806D1AE49087001212846A9
:10128000FFF750FE0AE0B0480078022806D100209F
:10129000A849087002212846FFF744FE70BD10B52A
:1012A00000F04DFE0446A8484088B0F5D77F07DB24
:1012B000B4F5AF7F04D9A5480088401DA349088034
:1012C000A2480088B0F57A7F03DD4FF47A709F4919
:1012D000088010BD01469E4A128A8A1A10B29D4AA1
:1012E000538B9383138B5383D38A1383938AD38231
:1012F00090829FED990A994A82ED1E0AD2ED1E0A4C
:1013000000EE100AB8EEC00A20EE800ABDEEC00A58
:1013100010EE102A13B2914AA2F884308D4BB3F923
:101320001420002A01DB134600E05342C82B05DDE0
:101330009FED8B0A894A82ED200A14E0854BB3F9B0
:101340001420002A01DB134600E05342642B05DD24
:101350009FED840A814A82ED200A04E09FED820A13
:101360007E4A82ED200A9FED800A7C4A82ED200AA7
:1013700092ED220A774AB2F9142000EE902AF8EE94
:10138000E00A764A92ED201A00EE810A82ED220AE6
:1013900092ED220ADFED750AB4EEE00AF1EE10FAE2
:1013A00003DD9FED720A82ED220A6C4A92ED220A59
:1013B000DFED6F0AB4EEE00AF1EE10FA03D29FED12
:1013C0006C0A82ED220A654AB2F8843092ED220A54
:1013D000BDEEC00A10EE102A1A4413B25F4AA2F8FA
:1013E0008C300022524B9A8070470146584AD2896D
:1013F0008A1A10B2574A138A5382D3891382938967
:10140000D3815389938150819289821A12B200EE5E
:10141000102AF6EE000A514AC2ED120A92ED121A93
:1014200000EE900AF8EEE00A61EE200AFDEEE00A16
:1014300010EE902A13B2494AA2F85430DFED480A60
:10144000C2ED130AD2ED130AB8EEC01A60EE810A9B
:10145000FDEEE00A10EE902A13B2404AA2F8563090
:10146000DFED440AC2ED140AD2ED160AD2ED141AC9
:10147000384AB2F90A2001EE102AB8EEC11A41EE3C
:10148000810A364AC2ED160AD2ED160A9FED3A1AC3
:10149000F4EEC10AF1EE10FA03DDDFED370AC2ED1A
:1014A000160A2E4AD2ED160A9FED341AF4EEC10A3E
:1014B000F1EE10FA03D2DFED310AC2ED160A274A27
:1014C000B2F85430B2F856201344244AD2ED140A2C
:1014D000FDEEE00A10EE902A1A4413B21F4AA2F859
:1014E0005C30B2F85C20124B5A8070470146184AB3
:1014F00092898A1A10B2174AD288164B1A811A4654
:101500009288DA801A4652889A801A4612885A803F
:101510001A4610805288821A12B200EE102AF6EE95
:10152000000A0E4AC2ED060A92ED061A28E00000F3
:101530004A000020400000202000002000000000A1
:101540000000D03F42000020C416002054000020BC
:10155000AC1E002050180020CDCC4C3FD0160020EF
:1015600000000000A69BC43B0AD7233C00001643A2
:10157000000016C36F12833A00007042000070C270
:1015800000EE900AF8EEE00A61EE200AFDEEE00AB5
:1015900010EE902A12B2FE4B9A845FED0F0A1A46A3
:1015A000C2ED070AD2ED070AB8EEC01A60EE810A52
:1015B000FDEEE00A10EE902A12B2DA845FED130A13
:1015C0001A46C2ED080AD2ED0A0AD2ED081AF14A0B
:1015D000B2F9002001EE102AB8EEC11A41EE810ADC
:1015E0001A46C2ED0A0AD2ED0A0A1FED1D1AF4EEE0
:1015F000C10AF1EE10FA03DD5FED210AC2ED0A0A1D
:10160000E34AD2ED0A0A1FED231AF4EEC10AF1EE05
:1016100010FA03D25FED270AC2ED0A0ADC4A928C67
:10162000DB4BDB8C1344DA4AD2ED0A0AFDEEE00A0A
:1016300010EE902A1A4412B2D54B9A851A46928D12
:10164000D54B1A80704730B503468C1A24B21C80E3
:101650009FEDD20A83ED060AD3ED060AB3F90040E6
:1016600000EE104AB8EEC00A20EE800ABDEEC00AB5
:1016700010EE104A24B29C8493ED060ADFEDC80AEE
:10168000B4EEE00AF1EE10FA03DD9FEDC50A83ED3A
:10169000060A93ED060ADFEDC30AB4EEE00AF1EEA6
:1016A00010FA03D29FEDBF0A83ED060AB3F900409A
:1016B000002C01DB254600E065420A2D04DA9FED8F
:1016C000BA0A83ED080A2DE0B3F90040002C01DBD3
:1016D000254600E06542142D04DA9FEDB40A83ED3F
:1016E000080A1FE0B3F90040002C01DB254600E0AA
:1016F00065421E2D04DA9FEDAE0A83ED080A11E063
:10170000B3F90040002C01DB254600E06542322D94
:1017100004DA9FEDA80A83ED080A03E09FEDA60A0C
:1017200083ED080A93ED0A0A93ED081AB3F9004015
:1017300000EE904AF8EEE00A01EE200A83ED0A0A74
:1017400093ED0A0ADFED9D0AB4EEE00AF1EE10FA1D
:1017500003DD9FED9A0A83ED0A0A93ED0A0AB5EEBE
:10176000C00AF1EE10FA03D21FED830A83ED0A0AD4
:101770009D8C93ED0A0ABDEEC00A10EE104A2C446F
:1017800020B230BD70B503460C46092106E04D1E5F
:1017900033F8155023F811504D1EE9B20029F6DC3C
:1017A000A51A2DB21D801D88DE88AD1B2DB29D822D
:1017B0009FED830A83ED060AD3ED060AB3F90050C4
:1017C00000EE105AB8EEC00A20EE800ABDEEC00A44
:1017D00010EE105A2DB29D849FED7A0A83ED070A10
:1017E000D3ED070AB3F9145000EE105AB8EEC00A50
:1017F00020EE800ABDEEC00A10EE105A2DB2DD8434
:101800009D8CDE8C354428B23C2800DD3C2010F154
:101810003C0F01DA6FF03B0070BDF0B504460E4698
:101820001746732C04DAA004000C6749088003E013
:101830004FF4E67064490880B4F5EB7F01DD4FF4A6
:10184000EB74324621466148FFF79CFF5F4988856B
:10185000BAB20846808D81B25C483030FFF7F3FEA3
:101860005A49A1F85C000846B0F85C00564909885E
:10187000084405B2002D00DA0025A80000B2464950
:10188000C880F0BD10B50146514B93ED020A514B93
:10189000D3ED040A30EE600ADFED480A20EE200A9C
:1018A000BDEEC00A10EE103ACB1A18B24A4B5C8B50
:1018B0009C831C8B5C83DC8A1C839C8ADC829882E0
:1018C0009C8ADB8AE31A1AB2B6EE000A434B83ED18
:1018D0001E0AD3ED1E0A00EE100AB8EEC00A20EE72
:1018E000800ABDEEC00A10EE103A1CB23B4BA3F8C2
:1018F000844000BFB3F88440A3F88C4010BD10B5FD
:101900000146334B93ED010ADFED2C0A20EE200A4D
:10191000BDEEC00A10EE103ACB1A18B22E4B1C8A3C
:101920005C82DC891C829C89DC815C899C81588179
:101930005C899B89E31A1AB2B6EE000A274B83ED45
:10194000120AD3ED120A00EE100AB8EEC00A20EE19
:10195000800ABDEEC00A10EE103A1CB21F4BA3F86D
:10196000544000BFB3F85440A3F85C4010BD01469A
:10197000174A92ED000ADFED110A20EE200ABDEEB3
:10198000C00A10EE102A8A1A10B2134AD28827E031
:10199000D0160020501800204A0000209A99193FC4
:1019A00000004843000048C3CDCC4C3D0AD7233D3E
:1019B0000AD7A33C4260E53B17B7D1380000C842C4
:1019C0009A99193E0AD7A33D52000020F017002033
:1019D000AC1E0020141100206E180020601700209B
:1019E0003C4B1A811A469288DA801A4652889A80AD
:1019F0001A4612885A801A461080B6EE000A364AF5
:101A000082ED060AD2ED060A00EE100AB8EEC00A10
:101A100020EE800ABDEEC00A10EE102A12B22E4B44
:101A20009A841A46928C9A85704710B5FFF737FC56
:101A30002A484088B0F5EC7F03DB40F2D7102749F5
:101A4000488027480078032820D12449898801EB61
:101A50008101490008B2FFF78AFF2049C98801EBDC
:101A60008101490008B2FFF74AFF1C490989322267
:101A700011FB02F108B2FFF705FF00F060FA84B233
:101A80001649488800222146FFF7C7FE1249B1F9DE
:101A90002C00FFF72BFD1049B1F95C00FFF7A5FC06
:101AA0000E48008900EB800001B20B48A0F88C10B2
:101AB0000146B1F98C00FFF70DFC09480078401C85
:101AC0000749087008460078042801DB00200870E8
:101AD00010BD00006E18002060170020C416002002
:101AE0005600002010B5FB20504908706D2048704A
:101AF000252088701A214D4807F0ADFB10BD70B548
:101B00008D25032405E04948005D2844C5B2601CCA
:101B1000C4B2192CF7DB454845761A2007F0ACFB18
:101B200070BD10B54206100EC21CD0B20A123F4B57
:101B30001A541C46421CA15410BD10B500F0FFF908
:101B400004B23B480088201A00B23A49088038485D
:101B50000480008881B20020FFF7E3FF36488088C8
:101B600081B20120FFF7DDFF3248008881B20220F8
:101B7000FFF7D7FF3048408881B20320FFF7D1FF3D
:101B80002E4890ED000ABDEEC00A10EE100A81B298
:101B90000420FFF7C6FF2A4890ED000ABDEEC00AF8
:101BA00010EE100A81B20520FFF7BBFF254890ED2B
:101BB000000ABDEEC00A10EE100A81B20620FFF73F
:101BC000B0FF214890ED000ADFED200A20EE200A48
:101BD000BDEEC00A10EE100A81B20720FFF7A1FF88
:101BE000194890ED020ADFED190A20EE200ABDEE39
:101BF000C00A10EE100A81B20820FFF792FF1248C7
:101C000090ED010ADFED110A20EE200ABDEEC00AB8
:101C100010EE100A81B20920FFF783FF00210A208D
:101C2000FFF77FFFFFF76BFF10BD0000901800204B
:101C3000580000205A0000207C000020B400002042
:101C40009800002094000020AC1E00200000C84234
:101C500010B509F0F7F940F22551304805F0AEFC17
:101C6000002857D02D4805F0E7FB2D49087008469D
:101C700000784C284ED101241FE00020294908801B
:101C800004E028480088401C264908802021234879
:101C900005F07EFC20B923480088B0F5C87FF0DB52
:101CA00020480088B0F5C87F00DB08E01B4805F03D
:101CB000C3FB1B490855601CC4B2052CDDDB00BF0B
:101CC00018480088B0F5C87F24DA15488078144990
:101CD000497800EB012000B2134988800846B0F92A
:101CE0000400B0F5966F02DD4FF4966088800E48D0
:101CF000B0F9040010F5966F03DA4FF650300A4938
:101D00008880074800790649C97800EB012000B2B5
:101D10000549C88009F0A7F910BD00000044004043
:101D2000640000206A0000205C00002010B52DED4A
:101D3000068B044646F2A810844218D2204612F0C0
:101D4000B9FB41EC1A0B9FED7F0B53EC102B12F0FB
:101D5000C5FB41EC190B9FED7D0B53EC102B12F0E2
:101D600035F941EC180B12F061FB7A490860BDECC3
:101D7000068B10BD10B50021774806F09AFE0521AC
:101D8000754807F0A9F801220421734807F07CF890
:101D90000021714806F060FC00216F4806F01CFC31
:101DA00000206E49086010BD10B5FFF7E3FF00206A
:101DB0006B49087001206B4908600F2007F0B5F9E6
:101DC00000206949C1F88C0210BD0EB553214FF0B7
:101DD000FF3000F0B3FB00F00BFC02AB0022114619
:101DE00010460EF0B9FC35E000F04EFD5F4800787B
:101DF000E8B9FFF7D9FF02A8002301AA194600900D
:101E000006200EF08EF85548006820B1534800684F
:101E1000FFF78CFF1EE001205449087046F2A8101D
:101E20004E49086008460068FFF780FF12E046F25E
:101E3000A8104A49086008460068FFF777FF4B483A
:101E40000078401C4949087008460078052801DDE3
:101E500000200870C8E700B58BB00AA80321002253
:101E60000592CDE90621089010464FF480711922A1
:101E70003F4BCDE90132CDE9031004200023AFF23E
:101E8000B5023CA100903E480DF0B8FDBDF8280019
:101E90000BB000BD10B502212F4806F00AFE10BDA0
:101EA0001CB509F0CFF804212B4807F004F80128ED
:101EB00039D12B48007868B900F0F9FC3149088025
:101EC0000121254806F0C8FBFFF7E4FF0120244963
:101ED00008702DE022480078012829D100202349EC
:101EE000087000211C4806F0B7FB1B4806F083FF72
:101EF0001A4908600021184806F06EFB00201849B6
:101F0000087000220421144806F0BEFF00F0CFFC48
:101F10001C49488001A80023042210490090184859
:101F20000EF094FA04E0002204210B4806F0ACFF06
:101F30000521094806F0D0FF09F095F81CBD0548B9
:101F400000687047BC7493180456C63F333333336C
:101F5000338361C070000020000C0040740000203A
:101F60006C0000208C0240420000404278000020BB
:101F7000241A00205461736B3220736F6E69630002
:101F8000601900206A1E002010B52DED068BB0EE02
:101F9000409AB0EE608AF0EE418AB0EE480A11F045
:101FA0004EF8F0EE409AB0EE680A11F048F829EECB
:101FB000800A9D4880ED000AB0EE680A11F03FF8F3
:101FC000F0EE409AB0EE480A11F045F869EE809ABA
:101FD000B0EE490A11F03FF869EE809AB0EE490A76
:101FE00011F02DF8B0EE40AAB0EE680A11F033F807
:101FF0004AEE409A8C48C0ED019AB0EE490A11F0C1
:102000001EF8F0EE409AB0EE480A11F024F869EE9E
:10201000809AB0EE680A11F012F869EE809AB0EE7C
:10202000490A11F018F8B0EE40AAB0EE680A11F0B3
:1020300012F84AEE009A7C48C0ED029AB0EE480AC7
:1020400010F0FDFFF0EE409AB0EE680A11F003F8D0
:1020500029EE800A744880ED030AB0EE490A10F0B8
:10206000EEFFF0EE409AB0EE680A10F0E8FF69EE7D
:10207000809AB0EE490A10F0EEFFB0EE40AAB0EE42
:10208000480A10F0E8FF2AEE00AAB0EE680A10F045
:10209000E2FF4AEE009A6448C0ED049AB0EE490AA5
:1020A00010F0CDFFF0EE409AB0EE480A10F0D3FFEA
:1020B00069EE809AB0EE680A10F0CDFF69EE809A62
:1020C000B0EE490A10F0C7FFB0EE40AAB0EE680AC1
:1020D00010F0B5FF4AEE409A5348C0ED059AB0EEB5
:1020E000480A10F0B8FFB1EE400A4F4880ED060AEA
:1020F000B0EE490A10F0AFFFF0EE409AB0EE480A99
:1021000010F09DFF29EE800A474880ED070AB0EEE7
:10211000490A10F094FFF0EE409AB0EE480A10F031
:102120008EFF29EE800A404880ED080ABDEC068B40
:1021300010BD10B52DED0A8BB0EE408AF0EE608A2E
:10214000B0EE419AF0EE619AB0EE42AAF0EE62AAC9
:10215000B1EE690ADFED350A20EE200ADFED340A20
:1021600080EE201AB0EE41BAB1EE4A0ADFED2F0A36
:1021700020EE200ADFED2E0A80EE201AF0EE41BAA2
:102180009FED2A0A2AEE800ADFED290A80EE201A46
:10219000B0EE41CAB0EE6B1AF0EE4C0AB0EE4B0A4C
:1021A000FFF7F2FE204890ED000A20EE080AD0ED7D
:1021B000010A00EEA80AD0ED020A00EE890ABDEE7F
:1021C000C00A10EE100A00B21A490880164890EDB5
:1021D000030A20EE080AD0ED040A00EEA80AD0EDAA
:1021E000050A00EE890ABDEEC00A10EE100A00B220
:1021F00048800D4890ED060A20EE080AD0ED070A47
:1022000000EEA80AD0ED080A00EE890ABDEEC00A69
:1022100010EE100A00B28880BDEC0A8B10BD054894
:102220008088404200B27047241E0020DB0F4940E6
:10223000000034437C0000203A480068704700B535
:1022400001460120087200204860FFF7F5FF08B939
:1022500034480160084600BD7CB504460D4616466C
:10226000606808B1207D00B97CBDE560266101A8E9
:10227000009000230C2204F1080160680EF0E6F8DB
:1022800000BFF1E770B504460D46656000F088FCBC
:1022900028B901202075284600F0B8FC01E0002094
:1022A0002075207D70BD8AB00446FEF7DAFD054634
:1022B00031E01D48006888B901A800F004FC1B4902
:1022C00008700846007808BB01A8FEF7BAFF002096
:1022D000208006212846FEF725FE17E02088401CB6
:1022E00000B220802088642806D1002010490870A0
:1022F00003212846FEF716FEB4F900006E2805DB20
:1023000007212846FEF70EFE6E20208009AA08212C
:1023100001200FF089FACCE700B50648FFF78FFFE0
:1023200000BD00008C0000200C024242880000200A
:1023300040000020481E002010B5FFF700FE0446B4
:10234000204610BD10B5FFF76AFF25490988401ADD
:1023500000B224490880FFF7EFFF234908602348B3
:10236000D0ED000A084690ED000AB8EEC00A30EE43
:10237000C00A1F4880ED000A1E48D0ED000A194827
:10238000B0F9000000EE100AB8EEC00A20EE800A94
:102390001748D0ED000A184890ED001A00EEC10A67
:1023A0001648D0ED000A30EE200A80ED000A1448ED
:1023B00090ED000A1148D0ED000A20EE200A0C48EA
:1023C000D0ED000A0F4890ED001A00EEC10A074850
:1023D000D0ED000A30EE200A80ED000A10BD0000AA
:1023E00090000020AC000020B000002094000020ED
:1023F000B4000020A40000209C00002098000020D1
:10240000A8000020A000002030B58BB004460D4687
:102410000121080204F09DFD0121202004F050FD5F
:1024200009221146FE4804F038FB4FF40070099071
:1024300002208DF8280003208DF8290000208DF857
:102440002A0001208DF82B0009A9F54804F09AFA1A
:10245000A8B2ADF8180007940020ADF81A00ADF846
:10246000200006A9EF4806F06EF86020ADF80400E1
:102470000120ADF806000220ADF8100001A9E948DE
:1024800006F0F6F80821E74806F07FFA0121E54852
:1024900006F0C4F80121E34806F0DEF80BB030BDC9
:1024A00030B58BB004460D460121084604F051FDBD
:1024B0000121022004F004FD01220A21DA4804F07F
:1024C000ECFA4FF48060099002208DF82800032078
:1024D0008DF8290000208DF82A0001208DF82B00AE
:1024E00009A9D14804F04EFAA8B2ADF81800079433
:1024F0000020ADF81A00ADF8200006A94FF080408A
:1025000006F021F86020ADF804000120ADF80600C7
:102510000020ADF8100001A94FF0804006F02EF920
:102520000821C80606F047FA0121880706F076F868
:102530000121880706F090F80BB030BD30B587B0A8
:1025400004460D460121082004F003FD0121084640
:1025500004F0B6FC022005908DF8180003208DF8D9
:10256000190000208DF81A0002208DF81B0005A923
:10257000AE4804F007FA02220121AC4804F08DFABB
:10258000A8B2ADF808000020ADF80A000394ADF839
:10259000100002A9A64805F0D6FF0420A54908802E
:1025A00000204880012088800020C8800881A04841
:1025B00006F0A0FB00219E4806F04EF80022042100
:1025C0009B4806F061FC0521994806F085FC322005
:1025D0008DF8040002208DF8050000208DF806001B
:1025E00001208DF8070001A804F0DBF807B030BD2A
:1025F0001CB50121084604F063FC0820009001206E
:102600008DF8040003208DF8050000208DF80600E9
:1026100002208DF807006946844804F0B3F90020D1
:10262000854908601CBD30B58BB004460D460121BC
:10263000080404F09FFC0121102004F041FC032257
:1026400005217E4804F029FA032206217B4804F084
:1026500024FA6020099002208DF8280003208DF8CC
:10266000290000208DF82A0001208DF82B0009A9EF
:10267000724804F087F9A8B2ADF81800079400205A
:10268000ADF81A00ADF8200006A96D4805F05BFF13
:102690006020ADF804000120ADF806000020ADF880
:1026A000100001A9664805F0E3FF01A9644806F09F
:1026B00018F80821624806F068F90821604806F019
:1026C0006DF901215E4805F0A9FF01215C4805F084
:1026D000C3FF0BB030BD30B58BB004460D460121B1
:1026E000402004F036FC0121022004F0E9FB09221D
:1026F0000E214D4804F0D1F909220F214A4804F077
:10270000CCF94FF44040099002208DF828000320B6
:102710008DF8290000208DF82A0001208DF82B006B
:1027200009A9414804F02EF9A8B2ADF818000794A1
:102730000020ADF81A00ADF8200006A9414805F0C8
:1027400002FF6020ADF804000120ADF80600002073
:10275000ADF8100001A93B4805F08AFF01A93948EE
:1027600005F0BFFF0821374806F00FF9082135486A
:1027700006F014F90121334805F050FF01213148DA
:1027800005F06AFF0BB030BD30B58BB004460D4686
:102790000121084604F0EEFB0121084604F090FBFD
:1027A00001220821214804F078F94FF48070099043
:1027B00002208DF8280003208DF8290000208DF8D4
:1027C0002A0001208DF82B0009A9184804F0DAF836
:1027D000A8B2ADF8180007940020ADF81A00ADF8C3
:1027E000200006A9184805F0AEFE6020ADF80400F0
:1027F0000120ADF806000020ADF81000039001A9FB
:10280000114805F035FF08210F4806F0BEF80121F8
:102810000D4805F003FF01210B4806F00EFB15E003
:10282000001402400020004000040240000002406A
:10283000000C0040601E00208C024042001002404C
:1028400000400140001800400000014001211F48E5
:1028500005F002FF0BB030BD3EB505460C46012128
:10286000022004F076FB0195ADF800400020ADF8A1
:102870000200ADF808006946154805F064FE012124
:10288000134805F0E9FE3EBD10B50121104806F0E1
:102890000FFB53214EF66020FFF7DEFF01210C48AD
:1028A00006F006FB00210A4805F096FE10BD10B5A3
:1028B0000121074806F0F3FA012802D14FF6FF7014
:1028C00010BD034805F08CFE80B2F9E7000001401E
:1028D0000004004000B58DB00121062004F0F0FA9C
:1028E0000121080204F046FB01200B9003208DF823
:1028F000300000208DF833000BA92C4804F042F87A
:102900000121080204F08BFB00214FF4807004F0D9
:1029100086FB002007900A9009904FF480300890C1
:1029200007A804F0CFFE002001908DF808008DF874
:1029300009000390059001208DF8180001A91C489A
:1029400004F091FE01211A4804F0D3FE0DB000BD41
:1029500010B50446072301222146154804F009FF5B
:10296000134804F062FF00BF0221114805F07EF811
:102970000028F9D00E4804F094FF10BD2DE9F04175
:1029800007460C460025002608E03846FFF7E0FF22
:102990000544052006F0EBFB701CC6B2A642F4DB32
:1029A000B5FBF4F080B2BDE8F08100000000024009
:1029B00000200140002000E0401CB0F5167FFBD84D
:1029C0007047002119E000F08002802A03D1012223
:1029D000C94B1A6002E00022C74B1A604206100E73
:1029E0000122C54B1B1D1A60C44AD2F810220243B3
:1029F000D0B200221A604A1CD1B20829E3DB70472A
:102A000070B505460C460020BB49083108602846D1
:102A1000FFF7D7FF06462046FFF7D3FF0120B8494E
:102A2000C1F88802304670BD30B504460020B24976
:102A3000083108602046FFF7C4FFFF20FFF7C1FF01
:102A400005460120AE49C1F88802284630BD2DE96F
:102A5000F04107460D4616460020A7490831086098
:102A60003846FFF7AEFF8046002405E0FF20FFF761
:102A7000A8FF2855601CC4B2B442F7DB01209E4970
:102A8000083108604046BDE8F0812DE9F041074675
:102A90000C46154600209849083108603846FFF773
:102AA00090FF8046002605E014F8010BFFF789FF30
:102AB000701CC6B2AE42F7DB01208F4908310860B6
:102AC0004046BDE8F08130B504460720FFF7ACFF73
:102AD000054629462720FFF793FF05F04000A0B1E7
:102AE000002085490C310860202221466120FFF733
:102AF000AEFFFF21E220FFF783FF01208049C1F8EC
:102B00008C02FFF757FF002030BD0120FCE71CB509
:102B100001AA00217B480CF0C2FA7B48006810B97A
:102B200046F62E601CBD01A800231A460221009023
:102B300074480CF02FF8BDF80400F3E710B500223C
:102B4000114670480CF063FA10BD70B505460020C0
:102B500069490C31086020222946A020FFF795FF23
:102B600001206749C1F88C02FFF7D1FFFFF7E6FFAC
:102B70000720FFF759FF044621462720FFF740FFB3
:102B800004F0100028B1FF21E120FFF739FF1020E9
:102B900070BD04F0200008B12020F9E7FF20F7E71E
:102BA0000FB55AA103C9CDE90201002000900190A0
:102BB0005149091D086001205149C1F888020020CF
:102BC0004D490C310860052202A93020FFF75DFF56
:102BD000052269461020FFF73AFF9DF800001128F2
:102BE00012D19DF8010022280ED19DF80200332851
:102BF0000AD19DF80300442806D19DF80400552809
:102C000002D1002004B000BD0120FBE738B5044626
:102C1000002039490C31086020213120FFF7F0FEF7
:102C2000FF21E220FFF7ECFE05223A493020FFF7B2
:102C30002CFF052238492A20FFF727FF01212120F8
:102C4000FFF7DEFE01212220FFF7DAFE1A21242001
:102C5000FFF7D6FE00212520FFF7D2FE0F21262008
:102C6000FFF7CEFE0F212020FFF7CAFE01202449E6
:102C7000C1F88C026B46002228A122480BF05BFEB3
:102C800000202A4908702A48046038BD10B504465F
:102C9000002019490C3108600E212020FFF7B0FEFA
:102CA00001201749C1F88C02204908700F2006F056
:102CB0003CFA2046FFF749FF00200F490C3108601D
:102CC0000F212020FFF79CFE01200B490C310860EA
:102CD00000201649087010BD1448007870470EB5E2
:102CE00012480078012802D1FFF728FF02E00020F7
:102CF0008DF800000EBD00008002414200004242FB
:102D000000004142741E00200C0242421122334452
:102D100055000000724B0108774B01086E72663255
:102D2000343031206972712073656D00BC00002061
:102D3000C000002010B5044600BF0221814805F004
:102D400025FB0028F9D021467E4805F0D6FA00BFC1
:102D500001217C4805F01AFB0028F9D0794805F0DC
:102D6000C9FAC0B210BD00B587B00121084604F011
:102D7000A7F80121080304F0FDF83820059002208F
:102D80008DF8180000208DF81A0003208DF8190026
:102D900001208DF81B0005A96B4803F0F3FD052207
:102DA0000321694803F079FE05220421664803F0F7
:102DB00074FE05221146644803F06FFE01210803EA
:102DC00004F02DF900214FF4805004F028F9002080
:102DD000ADF800004FF48270ADF802000020ADF8AD
:102DE0000400ADF80600ADF808004FF40070ADF82F
:102DF0000A003820ADF80C000020ADF80E000720C6
:102E0000ADF8100069464F4805F0FCF801214D4827
:102E100005F0F2F9FF20FFF78DFF07B000BD10B5F8
:102E20000446484800884FF6C77108404549088065
:102E300008460088204308800121424805F0DCF95B
:102E400010BD00B585B00121102004F039F8002034
:102E50008DF804000820009001208DF807006946D5
:102E60003A4803F08FFD0121880304F083F8032121
:102E7000042004F08AF90820029000208DF80C004C
:102E80000C208DF80D0001208DF80E0002A804F032
:102E9000F3FF09208DF8100000208DF811000220AA
:102EA0008DF8120001208DF8130004A803F079FCBE
:102EB00005B000BD1CB50121142004F001F8042068
:102EC000009001208DF8040000208DF806000320FA
:102ED0008DF8050000208DF8070069461C4803F0B6
:102EE00051FD082000906946194803F04BFD012070
:102EF00000906946164803F045FD0220009069469F
:102F0000134803F03FFD00208DF8040001208DF8E8
:102F100007001020009069460C4803F033FDFFF7CE
:102F200090FF1CBD10B508F08DF8082005F00AF8D8
:102F3000012804D1FFF7D3FE082005F00EF808F0B1
:102F400092F810BD00300140000402400010024021
:102F5000000802401CB50121102003F0B1FF03203E
:102F6000009001208DF8040000208DF80600032059
:102F70008DF8050001208DF807006946F14803F03F
:102F800001FD0321EF4803F079FD1CBD10B5ED48AC
:102F9000006820F00C00EB4908600846006840F02B
:102FA000040008600120E8490860E849C1F880028F
:102FB00006F0BBF80020E4490860012006F0B5F8EF
:102FC0000020E249C1F8800210BD10B5DD4800685C
:102FD00020F00C00DB4908600846006840F004005F
:102FE00008600020D849091F0860D849C1F8840248
:102FF000012006F09AF80120D349091F0860D3493F
:10300000C1F8840206F091F810BD10B50024CD4837
:10301000006820F00C00CB49086008460068086092
:103020000120C949091F086006F07FF807E0601C0D
:10303000C4B2FA2C03DDFFF7C8FF012010BDC2485F
:10304000803800680028F2D1BF49091F086000BF1E
:10305000F4E710B50020BC49091F0860B9480068B2
:1030600020F00C00B74908600846006840F00400F2
:1030700008600020B549C1F88402012006F055F827
:103080000120B149091F086006F04FF80020AF4940
:10309000C1F8800210BD10B50020AB49091F0860BF
:1030A000A848006820F00C00A6490860084600689F
:1030B00040F0040008600120A449C1F8840206F031
:1030C00034F80120A049091F086006F02EF80020FE
:1030D0009E49C1F8800210BD70B504469948006849
:1030E00020F00C00974908600846006840F0040092
:1030F000086000209449091F0860002516E0E009D7
:10310000914908606006040E012006F00EF80120C7
:103110008E49C1F8800206F008F800208A49091F8C
:103120000860012006F001F8681CC5B2082DE6DB36
:1031300070BD70B5054600248248006820F00C0080
:1031400080490860084600680860002617E00020F3
:103150007D49091F0860012005F0E7FF01207B4938
:10316000C1F880026006040E77488038006808B114
:10317000601CC4B2012005F0D8FF701CC6B2082E36
:10318000E5DB15B9FFF787FF01E0FFF762FF204697
:1031900070BD2DE9F04105460E4617469846FFF7EB
:1031A000F5FE002141EA4501C8B2FFF795FFFFF7A0
:1031B0002CFF20B1FFF709FF0120BDE8F081304668
:1031C000FFF78AFFFFF721FF00240CE018F8040046
:1031D000FFF782FFFFF719FF18B1FFF7F6FE012096
:1031E000EBE7601CC4B2BC42F0DBFFF7EEFE002050
:1031F000E3E72DE9F04106460F4614461D46FFF76A
:10320000C5FE002141EA4601C8B2FFF765FFFFF79E
:10321000FCFE20B1FFF7D9FE0120BDE8F081384661
:10322000FFF75AFFFFF7F1FEFFF7B0FE012101EBB8
:103230004601C8B2FFF750FFFFF7E7FE0DE0012C93
:1032400004D10020FFF775FF287003E00120FFF78D
:1032500070FF2870601EC4B26D1C002CEFD1FFF708
:10326000B4FE0020D9E770B504460D461646FFF7B8
:103270008DFE002141EA4401C8B2FFF72DFFFFF7A0
:10328000C4FE18B1FFF7A1FE012070BD2846FFF76C
:1032900023FFFFF7BAFE3046FFF71EFFFFF7B5FE2C
:1032A00018B1FFF792FE0120EFE7FFF78EFE002036
:1032B000EBE770B504460D460026FFF767FE0021D8
:1032C00041EA4401C8B2FFF707FFFFF79EFE284618
:1032D000FFF702FFFFF799FEFFF758FE012101EB10
:1032E0004401C8B2FFF7F8FEFFF78FFE0020FFF79A
:1032F00020FF0646FFF769FE304670BD70B50446F4
:103300000D46FFF743FE002141EA4401C8B2FFF732
:10331000E3FEFFF77AFE18B1FFF757FE012070BDFC
:103320002846FFF7D9FEFFF770FE18B1FFF74DFEF4
:103330000120F4E7FFF749FE012005F0F6FE00202A
:10334000EDE70000001002408402424200004242C9
:103350002DE9F04391B004460E4617469846DDF835
:1033600060904748844204D90121880503F0A8FDF4
:1033700003E00121480503F0A3FD204604F09AFB79
:1033800000BF204604F0BFFC0028FAD10296039744
:10339000CDF8108040200590CDF8189000200790BF
:1033A0004FF480600890002009900A900B904FF431
:1033B00080300C9000200D9003200E9000200F9084
:1033C000109002A9204604F017FC2E48204420B19A
:1033D000B0F5836F03D1462504E0112502E011B05A
:1033E000BDE8F08300BF01221021204604F0CBFC91
:1033F0008DF8045003208DF805008DF8060001209B
:103400008DF8070001A803F0CCF900BFE7E770B51D
:1034100004460D461C48006800B170BD01201A49E1
:1034200008600021204604F021FC00BF204604F083
:103430006AFC0028FAD12946204604F038FC012114
:10344000204604F013FC00BFE7E710B507F0FAFDD3
:103450004FF020510A48B83004F081FC07F003FE19
:1034600010BD10B507F0EEFD08490648404204F0D3
:1034700076FC00200449086007F0F5FD10BD00004F
:1034800000640240609FFDBFC400002000002020B7
:1034900038B50446F84890F82400C0B114B10220B1
:1034A000009001E000200090F34A1268D17BF24ABC
:1034B000526810786B460122FFF76BFE10B14FF097
:1034C000FF3038BD9DF80010EB48417423E0EA4816
:1034D000807A10B94FF0FF30F3E724B1E648407C22
:1034E00008B10020EDE714B10120009001E00020B8
:1034F0000090E14A1268D17BDF4A526810786B462F
:103500000122FFF746FE10B14FF0FF30D9E79DF8DA
:103510000010D94841740020D3E738B500241FE0DB
:10352000D5480068C07AA04204D0D3480068407DE6
:10353000A04200D112E0D049496808786B460122C8
:103540002146FFF756FE10B14FF0FF3038BD9DF811
:1035500000202146C9A00FF0BDFA00BF601CC4B214
:10356000C54840680079A042DADC0020EEE770B57B
:1035700004460D46C0480068C07AA04204D0BE4848
:103580000068407DA04202D14FF0FF3070BDBA48C4
:1035900040680079A04202DC4FF0FF30F6E7B64900
:1035A000496808782B4601222146FFF722FEEDE705
:1035B00038B50446B04890F82300A04201D100205D
:1035C00038BD14B13020009001E000200090AA48DE
:1035D000807C20B19DF8000040F002000090A648D9
:1035E00090F8220020B19DF8000040F0800000908B
:1035F000A14A1268117DA04A526810786B460122D8
:10360000FFF7C7FD10B14FF0FF30D9E79A4880F8B7
:1036100023400020D4E738B5044604F0700010B110
:103620000120009005E014B10020009001E040204E
:103630000090914A1268917C8F4A526810786B46CC
:103640000122FFF7A6FD20B100218B488172481EA0
:1036500038BD9DF8000020F040018748017300202C
:10366000009004F0400020B99DF8000040F00400F4
:10367000009004F0200020B99DF8000040F0020006
:10368000009004F0100020B99DF8000040F0010007
:10369000009004F0080020B99DF8000040F03800C8
:1036A0000090754A1268D17C734A526810786B4654
:1036B0000122FFF76EFD20B100216F488172481E84
:1036C000C6E724B1082C02D00020FFF771FF6A483A
:1036D0008472002101754CF2503005F026FD002067
:1036E000B6E738B504466448807CA04201D100208A
:1036F00038BD002C47D0604A126811795E4A526882
:1037000010786B460122FFF774FD10B14FF0FF30C7
:10371000EEE79DF8000020F020000090564A126865
:103720001179554A526810786B460122FFF731FD36
:1037300010B14FF0FF30DBE740F6B83005F0F5FC94
:10374000022000904C4890F8220020B19DF8000023
:1037500040F080000090484890F8230020B19DF888
:10376000000040F030000090434A1268117D424A48
:10377000526810786B460122FFF70BFD002852D0EB
:103780004FF0FF30B4E73C4A126811793A4A526868
:1037900010786B460122FFF72CFD10B14FF0FF307F
:1037A000A6E73548807A00F0010028B19DF80000B6
:1037B00040F02000009004E09DF8000020F0200080
:1037C00000902D4A126811792B4A526810786B4686
:1037D0000122FFF7DEFC10B14FF0FF3088E740F622
:1037E000B83005F0A2FC244890F8220010B18020E7
:1037F000009001E0002000901F4890F8230020B1C5
:103800009DF8000040F0300000901B4A1268117DC6
:10381000194A526810786B460122FFF7BAFC10B1C2
:103820004FF0FF3064E714488474002060E708B567
:103830001148807A10B94FF0FF3008BD0020009089
:103840000D4A1268D17B0C4A526810786B460122EF
:10385000FFF79FFC10B14FF0FF30EEE7064A126809
:103860005179054A526810786B460122FFF791FCA6
:1038700060B14FF0FF30E0E7C80000202523357825
:103880003A20252335780D0A00000000F94A126815
:103890001179F84A526810786B460122FFF779FCDB
:1038A00010B14FF0FF30C8E7F24890F8240000282C
:1038B00054D00C200090EF4A12681179ED4A5268FA
:1038C00010786B460122FFF764FC10B14FF0FF3017
:1038D000B3E74CF2503005F028FCC0200090E548DA
:1038E000807A00F0010020B19DF8000040F0200037
:1038F0000090E04A12681179DE4A526810786B46EF
:103900000122FFF746FC10B14FF0FF3095E7D94890
:10391000407C10B10220009001E000200090D54AC8
:103920001268D17BD34A526810786B460122FFF7A8
:1039300030FC10B14FF0FF307FE700200090CD4AFF
:1039400012685179CB4A526810786B460122FFF712
:1039500020FC002856D04FF0FF306EE70420009086
:10396000C44A12681179C34A526810786B46012222
:10397000FFF70FFC10B14FF0FF305EE7BD48807CD1
:1039800020B9BC48807A00F0010010B940200090B6
:1039900001E060200090B74A12681179B54A526878
:1039A00010786B460122FFF7F4FB10B14FF0FF30A7
:1039B00043E74CF2503005F0B8FBAE48407C10B104
:1039C0000120009001E000200090AA4A1268D17BFB
:1039D000A84A526810786B460122FFF7DAFB10B153
:1039E0004FF0FF3029E7A34A12685179A14A526883
:1039F0001078A04B10330122FFF7CBFB10B14FF032
:103A0000FF301AE7002018E770B50446002624F0BE
:103A10000104984890F8240008B1002070BD954832
:103A2000807A10B94FF0FF30F8E79248057C807A31
:103A30002040904908740846007CA04202D04FF014
:103A4000FF3600E0002614B98A48007D18B1012035
:103A5000FFF71EFD02E00020FFF71AFD3CB1FFF763
:103A6000E6FE20B1834805744FF0FF30D6E73046BC
:103A7000D4E738B504467F48807A10B94FF0FF305C
:103A800038BDBC2C02DB0120009015E0622C02DB6B
:103A90000220009010E02A2C02DB032000900BE0B3
:103AA000142C02DB0420009006E00A2C02DB052027
:103AB000009001E0062000906E48C07A9DF800104A
:103AC000884201D10020DBE76A4A12689178694A8E
:103AD000526810786B460122FFF75BFB10B14FF084
:103AE000FF30CDE79DF800106248C1720020C7E7A3
:103AF00038B50446282C02DD4FF0FF3038BDDCB964
:103B00000020FFF755FD00208DF8000007208DF8FC
:103B10000100584A1268917C564A526810786B46E8
:103B20000222FFF736FB10B14FF0FF30E6E700212D
:103B3000504801750020E1E70120FFF739FD202002
:103B40008DF80000012C06D100208DF80100052021
:103B5000FFF78FFF17E0052C06DC01208DF8010030
:103B60000520FFF786FF0EE0142C06DC02208DF8FE
:103B700001000A20FFF77DFF05E003208DF801001A
:103B80001420FFF776FF9DF80100072101EB80105C
:103B9000C0B28DF80100374A1268917C354A5268EC
:103BA00010786B460222FFF7F4FA10B14FF0FF30A5
:103BB000A4E708212F4881720021017301210175BA
:103BC0000020FFF721FF002098E738B50446294878
:103BD000807A10B94FF0FF3038BD264890F82400A5
:103BE00010B14FF0FF30F7E72248007D50B134B1FB
:103BF000282C04DCE0B2FFF77BFF0020ECE700207C
:103C0000FFF776FF042C01DA042404E0B4F57A7F90
:103C100001DD4FF47A744FF47A7090FBF4F0401E9B
:103C2000C0B20090134A12685178124A5268107854
:103C30006B460122FFF7ADFA10B14FF0FF30CBE732
:103C40009DF80000401C4FF47A7191FBF0F081B2B6
:103C50000848C1810146C9894810FFF70AFF0020C2
:103C6000BAE738B504460348807A28B94FF0FF30E8
:103C700038BD0000C8000020022C06D0042C07D05C
:103C8000082C08D0102C0CD108E0002000900BE08C
:103C90000820009008E01020009005E01820009017
:103CA00002E04FF0FF30E3E700BFFC48407A9DF8A8
:103CB0000010B0EBE10F01D10020D9E7F74A1268FC
:103CC000D179F64A526810786B460122FFF761FA03
:103CD00010B14FF0FF30CBE79DF80000C110EF4866
:103CE00041720020C4E738B50446EC48807A10B928
:103CF0004FF0FF3038BDFA2C09D0B4F5FA7F09D067
:103D0000B4F57A7F09D0B4F5FA6F0CD108E0002041
:103D100000900BE00820009008E01020009005E0E3
:103D20001820009002E04FF0FF30E3E700BFDB48CF
:103D3000007A9DF80010B0EBE10F01D10020D9E727
:103D4000D64A12689179D54A526810786B4601229A
:103D5000FFF71FFA10B14FF0FF30CBE79DF80000DE
:103D6000C010CE4908720020C4E71CB580208DF831
:103D70000000CA4A1268917CC84A526810786B46A3
:103D80000122FFF706FA10B14FF0FF301CBDC44806
:103D900005F0CBF900208DF80000C04A1268917C34
:103DA000BE4A526810786B460122FFF7F2F910B153
:103DB0004FF0FF30EAE7B94A1268917DB74A52687E
:103DC00010786B460622FFF714FA10B14FF0FF305F
:103DD000DCE79DF80500C007400F9DF8031001F0D7
:103DE000010140EA41009DF8011001F0010140EAA3
:103DF000010474B1012C03D10121A848C17427E04A
:103E0000022C03D10021A548C17421E04FF0FF30FE
:103E1000BCE7A24A1268D178A04A526810786B4673
:103E20000122FFF7E6F910B14FF0FF30AEE79DF841
:103E3000000000F00F0414B94FF0FF30A6E7042C87
:103E400003D101219548C17402E000219348C17457
:103E5000FF2192488172FF2090490872FF218F480C
:103E60004172C1724FF6FF71C181FF2101748174EB
:103E70000121017380F82210002180F82310417580
:103E800001751630016041608160163880F8241099
:103E900080F82510C1844FF4FA60FFF724FF10B1B9
:103EA0004FF0FF3072E70820FFF7DBFE10B14FF054
:103EB000FF306BE72A20FFF7DCFD10B14FF0FF3039
:103EC00064E73220FFF781FE10B14FF0FF305DE76D
:103ED0000020FFF799FD10B14FF0FF3056E70020AA
:103EE000FFF7FFFB10B14FF0FF304FE70020FFF767
:103EF00092FB00204AE770477CB504460D466748B0
:103F0000807A00F0700010B94FF0FF307CBD634A3A
:103F10001268117B614A526810786B460622FFF7DF
:103F200068F910B14FF0FF30F0E79DF801009DF8FF
:103F3000001040EA012000B220809DF803009DF8A7
:103F4000021040EA012000B260809DF805009DF853
:103F5000041040EA012000B2A08015B12846FFF706
:103F6000CAFF0020D2E77CB504460D464B48807A54
:103F700000F0080010B94FF0FF307CBD474A1268CE
:103F8000517B464A526810786B460622FFF731F99A
:103F900010B14FF0FF30F0E79DF801009DF80010E0
:103FA00040EA012000B220809DF803009DF8021035
:103FB00040EA012000B260809DF805009DF80410E1
:103FC00040EA012000B2A08015B12846FFF793FF18
:103FD0000020D2E7F8B506460C463048807A10B982
:103FE0004FF0FF30F8BD2D4A1268917B2B4A526882
:103FF00010786B460222FFF7FCF810B14FF0FF304B
:10400000F0E79DF801009DF8001040EA012005B29C
:1040100014B12046FFF76FFF20484068B0F9080050
:1040200000EE100AF8EEC00A00EE105AB8EEC00A10
:1040300070EE600A19484068C08800EE100AB8EEB9
:10404000400A80EE801A9FED170A31EE000ADFED7C
:10405000160A20EE200ABDEEC00A86ED000A0020F6
:10406000C0E710B588B004461CB94FF0FF3008B067
:1040700010BD206828B9606818B9A06808B9002088
:10408000F5E706494968087806AB03221146FFF7B1
:10409000B0F858B14FF0FF30E9E70000C800002049
:1040A000A086010000000C42000080479DF8180027
:1040B000082101EB201000F00F00ADF800009DF882
:1040C000190001EB201000F00F00ADF802009DF880
:1040D0001A0001EB201000F00F00ADF8040020687A
:1040E0004100BDF90000403091FBF0F000B2ADF8A6
:1040F000100060684100BDF90200403091FBF0F013
:1041000000B2ADF81200A0684100BDF904004030D3
:1041100091FBF0F000B2ADF81400FE494968087850
:1041200006AB06221146FFF764F810B14FF0FF30DE
:104130009DE79DF819009DF8181040EA012000B293
:10414000ADF808009DF81B009DF81A1040EA012008
:1041500000B2ADF80A009DF81D009DF81C1040EA61
:10416000012000B2ADF80C00BDF81000BDF8081039
:10417000084400B2ADF81000BDF81200BDF80A10F6
:10418000084400B2ADF81200BDF81400BDF80C10E0
:10419000084400B2ADF81400BDF81000000A8DF814
:1041A0001800BDF81000C0B28DF81900BDF812005B
:1041B000000A8DF81A00BDF81200C0B28DF81B007D
:1041C000BDF81400000A8DF81C00BDF81400C0B240
:1041D0008DF81D00CF494968087806AB06221146C4
:1041E000FEF7D7FF10B14FF0FF3040E700203EE769
:1041F0000146C848007A30B1012807D0022809D00A
:1042000003280FD10AE0FA2008800EE04FF4FA707C
:1042100008800AE04FF47A70088006E04FF4FA60F4
:10422000088002E00020088000BF00BF0020704727
:104230000146B848407A30B1012807D0022808D09A
:1042400003280CD108E0022008700BE0042008705D
:1042500008E00820087005E01020087002E04FF028
:10426000FF30704700BFAB48C07C18B108784006EB
:10427000000E08700020F4E70146A648C07A08281E
:1042800017D2DFE800F01704070A0D101318BC203E
:10429000088013E06220088010E02A2008800DE0EA
:1042A000142008800AE00A20088007E00520088022
:1042B00004E000BF00BF0020088000BF00BF002056
:1042C00070470146934890F8240010B14FF0FF303A
:1042D00070479048C08908800020F9E70146002017
:1042E0000880401E704701464FF0FF30704701467E
:1042F0008848007A30B1012809D002280CD0032860
:1043000014D10EE09FED840A81ED000A11E09FEDCB
:10431000830A81ED000A0CE09FED810A81ED000A1D
:1043200007E09FED800A81ED000A02E04FF0FF30C8
:10433000704700BF0020FBE701467648407A30B165
:10434000012808D002280AD0032810D10BE04FF42E
:10435000804008800EE041F69C7008800AE04FF42F
:104360008050088006E04FF40060088002E04FF0C3
:10437000FF30704700BF6748C07C10B1088840100C
:1043800008800020F5E701466248007C08700020A4
:10439000704701465F48807A10B10120087001E043
:1043A000002008700020704738B504465948807ACC
:1043B00010B94FF0FF3038BD564A1268117C554A8B
:1043C000526810786B460222FEF713FF10B14FF0CF
:1043D000FF30F0E79DF801009DF8001040EA012051
:1043E00000B220800020E6E72DE9FE4F0746884610
:1043F00092461D46DDF830B000260024454890F86E
:10440000240010B1601EBDE8FE8F002028704148D6
:10441000807A10B94FF0FF30F5E73E48007C10B9C4
:104420004FF0FF30EFE73B48007C00F0400008B160
:10443000B01CC6B23748007C00F0200008B1B01CA8
:10444000C6B23448007C00F0100008B1B01CC6B2FF
:104450003048007C00F0080008B1B01DC6B22D4AFB
:104460001268917A2B4A526810786B460222FEF746
:10447000C0FE10B14FF0FF30C5E79DF801009DF878
:10448000001040EA0129B14501DA0020BBE72148CC
:1044900040684088B9EB600F17DD1E4A1268517CF6
:1044A0001C4A526810786B460122FEF7A2FE10B13A
:1044B0004FF0FF30A7E79DF8000000F0100020B19A
:1044C000FFF7B5F96FF001009DE75046FFF713FDC8
:1044D000104A1268D17A0F4A526810786B463246F9
:1044E000FEF787FE10B14FF0FF308CE799FBF6F036
:1044F000401E8BF8000000202870B44235D00548DB
:10450000007C00F0080080B3601C1DF800001DF85E
:10451000041009E0C80000200000034300008342AB
:10452000333303423333834140EA012000B2A8F819
:104530000000E01C1DF80010A01C1DF8000041EA5E
:10454000002000B2A8F80200601D1DF80010201D18
:104550001DF8000041EA002000B2A8F80400287805
:1045600040F008002870A01D84B2B44213D0FE4869
:10457000007C00F0400070B1601C1DF800001DF8C8
:10458000041040EA012000B23880287840F0400052
:104590002870A01C84B2B44213D0F348007C00F011
:1045A000200070B1601C1DF800001DF8041040EAE6
:1045B000012000B27880287840F020002870A01CEC
:1045C00084B2B44213D0E848007C00F0100070B10F
:1045D000601C1DF800001DF8041040EA012000B224
:1045E000B880287840F010002870A01C84B2002009
:1045F00009E7F8B504460F461646DB4890F8240054
:1046000010B94FF0FF30F8BDD748807A10B94FF09D
:10461000FF30F8E7D44A1268917AD34A526810788A
:104620006B460222FEF7E5FD10B14FF0FF30EAE7DE
:104630009DF801009DF8001040EA0125A54203DA2B
:1046400000203070401EDEE7C74840684088B5EB68
:10465000600F17DDC44A1268517CC34A5268107853
:104660006B460122FEF7C5FD10B14FF0FF30CAE7DF
:104670009DF8000000F0100020B1FFF7D8F86FF0AF
:104680000100C0E7E2B2B84B1B68D97AB64B5B6851
:1046900018783B46FEF7ADFD10B14FF0FF30B2E7A2
:1046A00095FBF4F0401E30700020ACE70146AE48A8
:1046B00080F82210002070477CB50546AA49496859
:1046C000087801AB04220D21FEF793FD08B1072005
:1046D0007CBD9DF80700C0F301109DF8041001F0A7
:1046E000E00140EAE1008DF800009DF80700C0F30A
:1046F00081009DF8051001F0E00140EAE1008DF82D
:1047000001009DF8070000F003009DF8061001F07D
:10471000E00140EAE1008DF80200002427E01DF8E6
:10472000040030B99FED910A05EB840080ED000A8A
:104730001BE09FED8F0A05EB840080ED000A0BE083
:1047400005EB840090ED000ADFED8A0A20EE200AD6
:1047500005EB840080ED000A1DF80400401EC0B285
:104760000DF804000028EBD100BF601CC4B2032C7C
:10477000D5DB0020ACE7F0B52DED028B83B006460B
:104780000F4600256846FFF797FF002447E056F8DC
:10479000241057F82420881A002801DB014600E085
:1047A000414200EE101AB8EEC00ADFED730A80EE47
:1047B000208A684600EB840090ED000AB5EEC00A3E
:1047C000F1EE10FA18D0684600EB8400D0ED000A34
:1047D00088EE200AF7EE000A70EE608AB0EEE80A72
:1047E0006648D0ED090AB4EEE00AF1EE10FA15DDE4
:1047F0000120A040054311E0604890ED070AB4EEA7
:10480000C80AF1EE10FA06DC90ED080AB4EEC80A08
:10481000F1EE10FA02D20120A0400543641C032CE3
:10482000B5DB284603B0BDEC028BF0BDF0B52DED35
:10483000048B81B006460F4600254B49496808782D
:104840006B4603220D21FEF7D4FC20B1072001B0F6
:10485000BDEC048BF0BD9DF8000000F01F008DF84A
:1048600000009DF8010000F01F008DF801009DF888
:10487000020000F01F008DF80200002455E056F8F9
:10488000241057F82420881A002801DB014600E094
:10489000414200EE101AB8EEC00ADFED370A80EE92
:1048A000208A1DF8040068B3344890ED000AB8EE81
:1048B000400ADFED330A80EE801AF0EE418A05E00F
:1048C0009FED300A28EE800AF0EE408A1DF80400C1
:1048D000401EC0B20DF804000028F1D188EE280A6D
:1048E000F7EE000A30EE609AB0EEC90A2348D0ED28
:1048F000060AB4EEE00AF1EE10FA15DD0120A04040
:10490000054311E01D4890ED040AB4EEC80AF1EE2B
:1049100010FA06DC90ED050AB4EEC80AF1EE10FAC2
:1049200002D20120A0400543641C032CA7DB2846CB
:104930008DE72DE9F04F87B005460C4691460120E2
:104940008DF8100000208DF81100074A1268917C44
:10495000054A5268107804AB0222FEF71AFCA8B18F
:104960004FF0FF3007B00FE0C8000020000000004B
:104970007B14AE3E1D5A843F00008047A44B0108C3
:1049800000B04C4554E3853FBDE8F08FFE4804F08D
:10499000CCFB00208DF81000FC4A1268D17BFB4A4A
:1049A0005268107804AB0122FEF7F3FB10B14FF010
:1049B000FF30D7E7F54A12685179F44A5268107807
:1049C00004AB0122FEF7E5FB10B14FF0FF30C9E761
:1049D000EE4A1268917CED4A5268107804AB0122CD
:1049E000FEF7D7FB10B14FF0FF30BBE7E74A126884
:1049F000D17DE64A5268107804AB0122FEF7C9FB6C
:104A000010B14FF0FF30ADE7E04A12681179DF4A8C
:104A10005268107804AB0122FEF7BBFB10B14FF0D7
:104A2000FF309FE70C208DF81000D84A12681179EA
:104A3000D64A5268107804AB0122FEF7AAFB10B1E7
:104A40004FF0FF308EE743F6982004F06EFBCF481E
:104A5000806A407A8DF81000CC4A12689178CB4A6F
:104A60005268107804AB0122FEF793FB10B14FF0AF
:104A7000FF3077E7C548806A007A8DF81000C34A96
:104A800012685178C14A5268107804AB0122FEF7CF
:104A900080FB10B14FF0FF3064E7B9F1000F07D091
:104AA000BA48806A807A40F0E0008DF8100004E097
:104AB000B648806A807A8DF81000B44A12689179FD
:104AC000B24A5268107804AB0122FEF762FB10B1C3
:104AD0004FF0FF3046E7B9F1000F07D0AB48806ACE
:104AE000C07A40F0E0008DF8100003E0A848C07ADA
:104AF0008DF81000A54A1268D179A44A526810783E
:104B000004AB0122FEF745FB10B14FF0FF3029E75F
:104B1000B9F1000F02D09C4804F007FB40208DF84B
:104B200010009A4A12681179984A5268107804ABBA
:104B30000122FEF72EFB10B14FF0FF3012E7782074
:104B40008DF81000914A12685179904A5268107895
:104B500004AB0122FEF71DFB10B14FF0FF3001E75F
:104B60008B4989894FF47A7201FB02F004F0DDFA77
:104B700000208DF81000854A12685179834A5268E6
:104B8000107804AB0122FEF704FB10B14FF0FF30A8
:104B9000E8E67E4A1268917A7C4A5268107804AB43
:104BA0000222FEF726FB10B14FF0FF30DAE69DF847
:104BB00011009DF8101040EA012B0C209BFBF0F037
:104BC000C6B20020A86068602860A06060602060B5
:104BD000824665E06D4A1268D17A6C4A5268107854
:104BE00004AB0C22FEF705FB10B14FF0FF30B9E625
:104BF0009DF811009DF8101040EA012000B2ADF8B8
:104C000008009DF813009DF8121040EA012000B240
:104C1000ADF80A009DF815009DF8141040EA012037
:104C200000B2ADF80C00BDF90810206808442060FF
:104C3000BDF90A10606808446060BDF90C10A068F6
:104C40000844A0609DF817009DF8161040EA012066
:104C500000B2ADF800009DF819009DF8181040EA68
:104C6000012000B2ADF802009DF81B009DF81A105B
:104C700040EA012000B2ADF80400BDF90010286838
:104C800008442860BDF90210686808446860BDF9EE
:104C90000410A8680844A8600AF1010000F0FF0AA7
:104CA000B24597DB3A48D0F800C02868C11709041C
:104CB00041EA104107046246002338460DF0E6FE43
:104CC00032460023CDE902010DF0E0FE28603048B5
:104CD000D0F800C06868C117090441EA1041070410
:104CE0006246002338460DF0D1FE32460023CDE95E
:104CF00002010DF0CBFE68602548D0F800C0A8681E
:104D0000C117090441EA10410704624600233846EE
:104D10000DF0BCFE32460023CDE902010DF0B6FED7
:104D2000A8601B48D0F804C02068C117090441EAF4
:104D3000104107046246002338460DF0A7FE3246B4
:104D40000023CDE902010DF0A1FE20601048D0F84B
:104D500004C06068C117090441EA104107046246B3
:104D6000002338460DF092FE32460023CDE90201C1
:104D70000DF08CFE60600648D0F804C0A068C11732
:104D8000090441EA104105E0400D0300C80000207D
:104D9000A44B010807046246002338460DF076FE56
:104DA00032460023CDE902010DF070FEA060A0683C
:104DB000002804DDA068A0F58030A06003E0A068B2
:104DC00000F58030A0600020CCE538B50446FE48F0
:104DD00090F82400A04201D1002038BD24B3FA4845
:104DE00090F8250010B94FF0FF30F6E70020FEF7ED
:104DF0004FFB0020FEF775FCF349C88CFEF7E5FE7B
:104E000000200090F049496808786B460122232170
:104E1000FEF7BFF90121EC4880F824100120FEF7CD
:104E200037FBFEF704FD13E00020FEF731FBE648F8
:104E3000007C0090E449496808786B4601222321F0
:104E4000FEF7A7F90021E04880F82410FEF7EFFCF8
:104E50000020C2E72DE9F04F8DB083460F460220B7
:104E60000C90D94890F8240020B10020FFF7ADFF46
:104E7000012600E0002603A8FFF7BAF905A8FFF70E
:104E8000D7F901A8FFF7F8F902A8FFF71AFACE48F8
:104E900090F80AA004A8FFF776FA002407E00022A1
:104EA00039465846FFF745FD00B902E0641C022C64
:104EB000F5DB00BF022C01D1002528E0002407E02B
:104EC000012206A909A8FFF734FD00B902E0641C1D
:104ED000022CF5DB00BF022C01D1002517E006A94A
:104EE0003846FFF748FC00F0FF0809A95846FFF7CD
:104EF0009DFC00F0FF090025B9F1000F01D145F03C
:104F00000105B8F1000F01D145F0020500BFFF20F7
:104F1000AD490872FF21AC484172C1724FF6FF7172
:104F2000C181FF218172017401210173BDF80C0060
:104F3000FEF7D9FE9DF81400FEF793FEBDF80400BD
:104F4000FEF797FDBDF80800FEF73FFE5046FEF75E
:104F500062FB9DF81000FEF757FD16B10120FFF728
:104F600034FF28460DB0BDE8F08FF8B504460D4675
:104F7000164616B94FF0FF30F8BD9348807A10B945
:104F80004FF0FF30F8E720128DF80000E0B28DF806
:104F900001009DF8010028448B49496849898842ED
:104FA00002DD4FF0FF30E7E7874A1268117E864A3C
:104FB000526810786B460222FEF7EBF810B14FF002
:104FC000FF30D9E7EAB2804B1B68597D7E4B5B68A6
:104FD00018783346FEF7DDF810B14FF0FF30CBE71D
:104FE0000020C9E7F8B504460D46164616B94FF03D
:104FF000FF30F8BD7448807A10B94FF0FF30F8E701
:1050000020128DF80000E0B28DF801009DF801003B
:1050100028446D4949684989884202DD4FF0FF30D4
:10502000E7E7694A1268117E674A526810786B4652
:105030000222FEF7AEF810B14FF0FF30D9E7EAB226
:10504000614B1B68597D604B5B6818783346FEF7EF
:10505000D0F810B14FF0FF30CBE70020C9E72DE9C1
:10506000F04385B005460E4690469946564890F85E
:10507000250020B14FF0FF3005B0BDE8F08316B930
:105080004FF0FF30F8E7002423E0281B102801DD53
:10509000102000E0281B87B2321939462046FFF75E
:1050A00064FF10B14FF0FF30E6E701AA3946204611
:1050B000FFF798FF10B14FF0FF30DDE730193A46A7
:1050C00001A90DF003FE10B16FF00100D4E7E01963
:1050D00084B2AC42D9DB4FEA28208DF8000008F0FA
:1050E000FF008DF80100384A1268917E364A5268F6
:1050F00010786B460222FEF74CF810B14FF0FF30EB
:10510000BAE70121304880F82510A0F82690002049
:10511000B2E701462C4890F8240008700020704740
:105120004FF0FF30704702464FF0FF3070470146A6
:105130004FF0FF307047F8B505460F461446002C77
:1051400073D0B5F5FF5F01DDFF2605E0202D01DA04
:10515000012601E0C5F3471607B90127282C02DD17
:105160004FF0FF30F8BD1848407D28BB164890F836
:10517000240038B10020FFF728FE0121124880F8F2
:10518000201003E00021104880F820100E4816304F
:10519000FFF72EF80C481830FFF74AF80A481A3083
:1051A000FFF76AF808481C30FFF78BF80648817A49
:1051B00081771F30FFF7E7F80020FEF769F900203C
:1051C000FEF796FC002001E0C80000208DF80000EA
:1051D000FD4A12689178FC4A526810786B460122A9
:1051E000FDF7D7FF10B14FF0FF30BBE740208DF83F
:1051F0000000F54A1268D17BF34A526810786B467A
:105200000122FDF7C6FF00B166E08DF800608DF861
:105210000170ED4A1268117AEB4A526810786B46B9
:105220000222FDF7B6FF08B156E048E041F28830AF
:1052300003F07BFFE448407A072101EBC000C0B2D5
:105240008DF80000E04A1268D179DF4A5268107880
:105250006B460122FDF79DFF00B13DE020208DF857
:105260000000012C03D100208DF801000EE0052C78
:1052700003DC01208DF8010008E0142C03DC02207F
:105280008DF8010002E003208DF801009DF8010077
:10529000072101EB8010C0B28DF80100CA4A1268E4
:1052A000917CC94A526810786B460222FDF771FF63
:1052B00000B111E00121C4484175002052E7C24A03
:1052C0001632002103E0505C00B105E0491C0C29B6
:1052D000F9D34FF0FF3045E7FF20BB490872FF21AB
:1052E000B9484172C1724FF6FF71C181FF218172CD
:1052F0000174012101730146887FFEF78CF9B249E0
:10530000C88AFEF7F0FCB049087EFEF7AAFCAE4959
:10531000488BFEF7AEFBAC49888BFEF756FCAA49DA
:10532000C87FFEF771FBA84890F8200010B101205B
:10533000FFF74BFD0021A4484175002012E710B58E
:1053400088B002A905A8FFF785FD0446032C41D1CA
:1053500001A8FEF7CCFF9DED050AB8EEC00ADDED11
:10536000010A20EE200ABDEEC00A8DED050A9DED72
:10537000060AB8EEC00ADDED010A20EE200ABDEEF5
:10538000C00A8DED060A9DED070AB8EEC00ADDEDF4
:10539000010A20EE200ABDEEC00A8DED070A05A81D
:1053A00000F08BFA6846FEF7C7FFBDF800100298C0
:1053B00048430290BDF80010039848430390BDF89D
:1053C000001004984843049002A800F009FB002054
:1053D00008B010BD0120FBE7014691F90020002A2A
:1053E00001DD00201EE091F90020002A01DA0420EE
:1053F00018E091F90120002A01DD012012E091F965
:105400000120002A01DA05200CE091F90220002A8F
:1054100001DD022006E091F90220002A01DA0620CF
:1054200000E00720704710B504462046FFF7D4FF80
:105430000346E01CFFF7D0FF43EAC00083B2A01D83
:10544000FFF7CAFF43EA801083B2184610BD70B55B
:105450000024FEF78AFC002840D17820FEF7DBF814
:10546000C4B20CB1012070BD7820FEF7CDFAC4B2F1
:105470000CB10220F7E7C820FEF7A7FBC4B20CB1BD
:105480000320F0E700F07EF9C4B20CB10420EAE793
:105490004E48FFF7C8FF054600F07EF9C4B20CB1D4
:1054A0000520E0E740F2731000F0C7FDC4B20CB174
:1054B0000620D8E7C82000F029FBC4B20CB10720B1
:1054C000D1E7FFF73CFF04460CB10820CBE70120F1
:1054D000FFF77BFCC4B20CB10920C4E70020C2E78F
:1054E00070B52DED088B8EB004460D46164607A804
:1054F00008A90DAB03AACDE9001009A90BA800F07B
:10550000FBFE20B101200EB0BDEC088B70BDBDF8D4
:10551000200000F48070002855D09DED030AB8EEFD
:10552000C00ADFED2B0A80EE201A2A4880ED001A0F
:105530009DED040AB8EEC00ADFED250A80EE201AC0
:10554000254880ED001A9DED050AB8EEC00ADFED92
:10555000200A80EE201A214880ED001A9DED060AEF
:10556000B8EEC00ADFED1A0A80EE201A1C4880ED62
:10557000001A194890ED000AF8EE000A20EE200A01
:105580001748D0ED000A20EE200A1248D0ED000A9C
:10559000B0EE001A60EE810A104890ED001A00EE9D
:1055A000810A10EE101A08460FF058FA41EC1A0B57
:1055B000B0EE4A0AF0EE6A0A0DF086FDB0EE409AAF
:1055C000F0EE609A0EE0CDE0C8000020F40000206C
:1055D0000000804E0001002004010020080100208E
:1055E0000C0100209FED610B53EC102B51EC190BBB
:1055F0000EF074FF41EC180B0EF0B6FC20605D4815
:1056000090ED000AF8EE000A20EE200AD0ED000A24
:1056100020EE200A5848D0ED000AB0EE001A60EEE5
:10562000810A90ED001A00EEC10AF7EE000A30EE92
:10563000200A10EE101A08460FF010FA41EC1A0B6F
:105640004D4890ED000AF0EE000A20EE200A4B488B
:10565000D0ED000A20EE200A4948D0ED000AB0EE55
:10566000001A60EE810A434890ED001A00EE810AAC
:1056700010EE101A08460FF0F1F941EC1B0BB0EEDA
:105680004A1AF0EE6A1AB0EE4B0AF0EE6B0A0EF010
:1056900037F8B0EE409AF0EE609A9FED340B53EC81
:1056A000102B51EC190B0EF019FF41EC180B0EF0FA
:1056B0005BFC2860324890ED000A20EE000A2D487D
:1056C000D0ED000A90ED001A00EE810A2A48D0EDD4
:1056D000000A90ED001A00EEC10A2848D0ED000A39
:1056E00090ED001A00EEC10A10EE101A08460FF0F5
:1056F000B5F941EC1A0B1F4890ED000A1E48D0ED99
:10570000000A20EE200A1E48D0ED000A1B4890ED4A
:10571000001A00EE810AF0EE000A20EE200A10EED8
:10572000101A08460FF09AF941EC1B0BB0EE4A1A1A
:10573000F0EE6A1AB0EE4B0AF0EE6B0A0DF0E0FFE5
:10574000B0EE409AF0EE609A9FED080B53EC102BF0
:1057500051EC190B0EF0C2FE41EC180B0EF004FCDC
:10576000306001E00220CEE60020CCE66666666688
:1057700066A64C4004010020080100200C01002016
:105780000001002010B5C8234FF48062F74940F6AD
:10579000F630FFF764FC10BD10B586B00446F4A0E7
:1057A00000680390F3A000680290F3A000680190E5
:1057B000F2A00068009004F0030003A9085C8DF8D3
:1057C000140003A8C4F3C101405C8DF8150003A8C0
:1057D000C4F38111405C8DF8160004F0030002A9A7
:1057E000085C8DF8100002A8C4F3C101405C8DF87C
:1057F000110002A8C4F38111405C8DF8120005AAC3
:10580000032140F22640FFF7B0FB18B14FF0FF3004
:1058100006B010BD04AA032140F22A40FFF7A5FB01
:1058200010B14FF0FF30F3E7019805900098049015
:1058300004F0040058B19DF8140040F001008DF808
:1058400014009DF8100040F001008DF8100004F0E5
:10585000200058B19DF8150040F001008DF81500AA
:105860009DF8110040F001008DF8110004F48070E3
:1058700058B19DF8160040F001008DF816009DF813
:10588000120040F001008DF8120005AA03214FF428
:105890008860FFF76AFB10B14FF0FF30B8E704AA49
:1058A000032140F23140FFF760FB10B14FF0FF30B1
:1058B000AEE7B34804810020AAE71FB50446B0480C
:1058C000007A00F0030054F820000190AC48007A00
:1058D00000F0040010B1019840420190A848007AFD
:1058E000C0F3C10054F820000290A548007A00F0EF
:1058F000200010B1029840420290A148007AC0F303
:10590000811054F8200003909D48008900F48070B5
:1059100010B10398404203909A49019880FB01011D
:10592000800F40EA810001909649029880FB0110A7
:10593000820042EA917002909249039880FB011024
:10594000820042EA917003900198000E8DF80000E9
:105950000198000C8DF801000198000A8DF80200F2
:105960000198C0B28DF803006A4604214FF47470A8
:10597000FFF7FBFA18B14FF0FF3004B010BD0298EA
:10598000000E8DF800000298000C8DF801000298BE
:10599000000A8DF802000298C0B28DF803006A4632
:1059A00004214FF47570FFF7E0FA10B14FF0FF30AB
:1059B000E3E70398000E8DF800000398000C8DF8C3
:1059C00001000398000A8DF802000398C0B28DF818
:1059D00003006A4604214FF47670FFF7C6FACCE75D
:1059E00070B588B0064601A8FEF7A6FCBDF8040015
:1059F0000021C90341EA5045C4036148007A00F020
:105A0000030056F8200005905D48007A00F004007D
:105A100010B10598404205905948007AC0F3C10082
:105A200056F8200006905648007A00F0200010B189
:105A30000698404206905248007AC0F3811056F80A
:105A4000200007904E48008900F4807010B107983C
:105A5000404207900598C117A0FB042301FB0431C5
:105A600000FB0510810041EA927005900698C1176D
:105A7000A0FB042301FB043100FB0510810041EA77
:105A8000927006900798C117A0FB042301FB043114
:105A900000FB0510810041EA927007900598000E06
:105AA0008DF808000598000C8DF809000598000A8B
:105AB0008DF80A000598C0B28DF80B000698000E0C
:105AC0008DF80C000698000C8DF80D000698000A61
:105AD0008DF80E000698C0B28DF80F000798000EE2
