:020000040800F2
:10000000A84400203965000875020008770200083E
:100010007B0200087F020008830200080000000045
:10002000000000000000000000000000870200083F
:100030008902000800000000EB290108ED8A000891
:1000400053650008536500085365000853650008B0
:1000500053650008536500085365000853650008A0
:10006000536500084D2E00085365000853650008CD
:100070005365000853650008536500085365000880
:100080005365000853650008536500085365000870
:100090005365000853650008536500085365000860
:1000A0005365000853650008536500085365000850
:1000B0005365000853650008536500085365000840
:1000C0005365000853650008536500085365000830
:1000D0005365000853650008611C0008536500085B
:1000E0005365000853650008536500085365000810
:1000F0005365000853650008536500085365000800
:100100005365000853650008B11E000853650008D8
:1001100053650008536500085365000853650008DF
:1001200053650008536500085365000853650008CF
:1001300053650008536500085365000853650008BF
:1001400053650008536500085365000853650008AF
:10015000536500085365000853650008536500089F
:10016000536500085365000853650008536500088F
:10017000536500085365000853650008536500087F
:10018000536500085365000800F002F800F063F8BA
:100190000AA090E8000C82448344AAF10107DA45E2
:1001A00001D100F058F8AFF2090EBAE80F0013F0D1
:1001B000010F18BFFB1A43F0010318472455010033
:1001C000445501000A444FF0000C10F8013B13F0B5
:1001D000070408BF10F8014B1D1108BF10F8015BA0
:1001E000641E05D010F8016B641E01F8016BF9D193
:1001F00013F0080F1EBF10F8014BAD1C0C1B09D1EA
:100200006D1E58BF01F801CBFAD505E014F8016B5B
:1002100001F8016B6D1EF9D59142D6D370470000ED
:100220000023002400250026103A28BF78C1FBD8FF
:10023000520728BF30C148BF0B607047782912F0C1
:100240009381002070471FB514F08DF912F08CFADD
:100250001FBD10B510BD12F07FFB1146FFF7F3FF75
:1002600000F080F912F09DFB03B4FFF7F2FF03BC2E
:1002700008F021FD704700BFFEE700BFFEE700BFAA
:10028000FEE700BFFEE77047704700000CB5002096
:10029000019000907648006840F48030744908600E
:1002A00000BF7348006800F4003000900198401CC3
:1002B0000190009818B90198B0F5A04FF1D16C48A1
:1002C000006800F4003010B10120009001E000202F
:1002D00000900098012846D165484030006840F001
:1002E00080506349403108606248006840F44040F3
:1002F000604908605E48083000685D490831086060
:100300000846006840F4004008600846006840F471
:10031000A05008605848091F0860081F006840F096
:100320008070091F086000BF5148006800F000702D
:100330000028F9D040F20570504908604C48083058
:10034000006820F003004A49083108600846006848
:1003500040F00200086000BF45480830006800F027
:100360000C000828F8D10CBD10B54548006840F4D1
:100370007000434908603E48006840F001003C4975
:10038000086000203A4908310860394800683D4952
:100390000840374908603C48091D0860081F00688C
:1003A00020F48020091F0860002031490C310860CA
:1003B000FFF76CFF4FF0006031498039086010BDD5
:1003C00070B500200022022300240221284D0835A8
:1003D0002D6805F00C0020B1042806D0082834D17F
:1003E00007E02A4D2A4E356033E02A4D284E35600D
:1003F0002FE01F4D2D1D2D68C5F380541C4D2D1D64
:100400002D6805F03F0154B1224DB5FBF1F5184EB2
:10041000361D3668C6F3881605FB06F209E01B4D4B
:10042000B5FBF1F5124E361D3668C6F3881605FB8E
:1004300006F20F4D2D1D2D68C5F301456D1C6B0097
:10044000B2FBF3F5124E356003E0104D104E3560EF
:1004500000BF00BF064D08352D68C5F303150E4ECD
:10046000705D0B4D2D68C540094E356070BD0000B4
:10047000003802400070004008544007003C024031
:1004800088ED00E0FFFFF6FE103000240024F400A9
:100490000000002000127A000400002038B5044655
:1004A000002500BF08F07CFC68460EF0E6FB6A46BB
:1004B000012108460AF06FFC00BF00BF00BF08F032
:1004C000A7FD054600BF00BF5E480078401C5D499F
:1004D000087000BF00BF284608F09EFD00BF00BFA7
:1004E00000BF00F062FB009000F02BF9009000F0DC
:1004F000D2FC009000F06CF9009001F0B4FC009088
:100500006946514810F005FB00BF00BF00BF08F06E
:100510007FFD054600BF00BF4A480078401E49499C
:10052000087008460078A0B948480088002809DD0E
:1005300000BF00BF284608F06FFD00BF00BF0BF0F2
:1005400013F80DE000BF00BF284608F065FD00BFAE
:1005500006E000BF00BF284608F05EFD00BF00BFF8
:1005600000BF38BD8AB0002453214FF47A7002F0E6
:100570009FF84FF4A06005F0FFFFA82008F0C2FA32
:1005800009A80AF0DFF900BF00BF00BF08F040FD76
:10059000044600BF00BF2B480078401C2949087062
:1005A00000BF00BF204608F037FD00BF00BF00BFFE
:1005B00009A8032100220592CDE9062108901046E2
:1005C00080210C22224BCDE90132CDE9031003201A
:1005D0000023AFF237121FA100901B480EF024FF3A
:1005E00000BF00BF00BF08F013FD044600BF00BFFE
:1005F00014480078401E1349087008460078A0B9D6
:1006000012480088002809DD00BF00BF204608F01E
:1006100003FD00BF00BF0AF0A7FF0DE000BF00BF51
:10062000204608F0F9FC00BF06E000BF00BF2046EE
:1006300008F0F2FC00BF00BF00BF09A80AF04BFCA5
:1006400000BFFEE76C010020D00100203001002037
:10065000940200207374617274207461736B0000E3
:100660002DED088B88B002F0C9F8002511E00924AF
:1006700007E0601E02A931F8100021F81400601E86
:10068000C4B2002CF5DC002002F0F6F8ADF808004A
:100690006D1C142DEBD353E0092407E0601E02A962
:1006A00031F8100021F81400601EC4B2002CF5DCF3
:1006B000002002F0E1F8ADF808000024002505E074
:1006C00002A830F814000544601CC4B20A2CF7DB01
:1006D000284613F003FC41EC1B0B9FED290B53EC58
:1006E000102B13F00FFC41EC1A0B9FED270B53EC72
:1006F000102B13F027FA41EC190B9FED250B53EC4F
:10070000102B13F01FFA41EC180B13F041F922499A
:100710000860084690ED000ADFED200AB4EEE00A1A
:10072000F1EE10FA02D2062000F0D3FB07A8082150
:1007300014230022CDE900101146104610F00FFEE0
:10074000AAE700B58BB00AA8032100220592CDE9E3
:100750000621089010464FF480711922104BCDE904
:100760000132CDE9031008200023AFF20B120DA1D6
:1007700000900F480EF058FEBDF828000BB000BDE9
:100780007E1D38674489314000000000000024408D
:10079000000000000000B0401C0000209A99294190
:1007A000580500205461736B3220616463000000BF
:1007B0009404002002F012FB01F040FD04461349AE
:1007C000204601F061FD02E0204601F06EFDFBE7EE
:1007D00000B58BB00AA8032100220592CDE90621BD
:1007E0000890104680210C22094BCDE90132CDE959
:1007F000031007200023AFF2430206A10090034834
:100800000EF012FEBDF828000BB000BD5809002004
:100810001C0A00205461736B33204E524632343030
:10082000310000002DE9F0470024002500260027B4
:10083000A146A04600BF6CE0EB4A111F081F04F060
:100840003FFDE948083890ED020AB1EE400A80ED1C
:10085000020A00F11002111F0E3005F011FEE248ED
:100860000838008A404200B2DF490839088201F1A5
:1008700016021231881C05F02BFEDB48083890ED7B
:10088000013AF0EE432A90ED023AB0EE432A90EDA1
:10089000003AF0EE431AB0F91600404203EE100A97
:1008A000B8EEC33AB0EE431ACF480838B0F9140096
:1008B000404203EE100AB8EEC33AF0EE430ACA48CB
:1008C0000838B0F9120003EE100AB8EEC33AB0EEE1
:1008D000430A01F034FCC548B0F904008044C24822
:1008E0000838B0F90C000544BF480838B0F90E00CC
:1008F0000644BD480838B0F910000744BA48083823
:10090000B0F91600814441F2883008F02AF9601CE1
:10091000C4B2322C90DB322095FBF0F000B2B44927
:100920000880322096FBF0F000B24880322097FB1E
:10093000F0F000B28880322098FBF0F000B2AD49B0
:100940008880BDE8F0872DED028B84B000F0ACFB11
:1009500003A8082100230322CDE9001019461846F8
:1009600010F0FDFC002402F085FA05F011FD04F002
:100970005EFC4FF4E13008F049F900BF00BF00BF52
:1009800008F046FB044600BF00BF9B480078401CAF
:100990009949087000BF00BF204608F03DFB00BF2A
:1009A00000BF00BFFFF73EFF00BF00BF00BF08F061
:1009B0002FFB044600BF00BF8F480078401E8E49C1
:1009C000087008460078A0B98C480088002809DD26
:1009D00000BF00BF204608F01FFB00BF00BF0AF0A9
:1009E000C3FD0DE000BF00BF204608F015FB00BFAF
:1009F00006E000BF00BF204608F00EFB00BF00BFAE
:100A000000BF002000F065FA03AA4FF400417C48C3
:100A10000FF0B6FFC8E0744A111F081F04F050FC25
:100A2000784908707048083890ED020AB1EE400A23
:100A300080ED020A00F11002111F0E3005F020FDBA
:100A4000694A0E32111F881C05F042FD66480838BD
:100A5000008A404200B26449083908820846C089C9
:100A600063494988401A00B25F490839C88108467D
:100A700080895F490988401A00B25B49083988813A
:100A80000846008A5A498988401A00B256490839EE
:100A90000882084690ED013AF0EE432A90ED023AC2
:100AA000B0EE432A90ED003AF0EE431AB0F916008A
:100AB000404203EE100AB8EEC33AB0EE431A0846BD
:100AC000B0F91400404203EE100AB8EEC33AF0EE5B
:100AD000430A0846B0F9120003EE100AB8EEC33A12
:100AE000B0EE430A01F02BFB3F480838D0ED000A76
:100AF000B0EE600A11F0B4FFF3EE0E0AB4EEE00AB5
:100B0000F1EE10FA29DC38480838D0ED010AB0EED1
:100B1000600A11F0A5FFF3EE0E0AB4EEE00AF1EE62
:100B200010FA1ADC30480838D0ED000AB0EE600A3E
:100B300011F096FFB0EE408A2B480838D0ED010A3C
:100B4000B0EE600A11F08CFF38EE000ADFED2E0ADD
:100B5000B4EEE00AF1EE10FA05DD00202B49087032
:100B6000032000F0B6F92948007838B91E48083843
:100B700090ED020A1E4880ED040A01E000F03DFFFE
:100B800000F0C2FA224DB5F90630B5F90420B5F9E6
:100B90000210B5F9000000F0F5F900F0F4FF03AA27
:100BA0000821012010F056FB35E700B58BB00AA8EC
:100BB000032100220592CDE90621089010464FF44A
:100BC00080711922134BCDE90132CDE903100520C4
:100BD0000023AFF28D2210A1009013480EF024FCE8
:100BE000BDF828000BB000BD6C1E0020780000206E
:100BF000E01000207E0000206C0100203001002069
:100C00001819002022000020000048423E00002069
:100C100040000020E00C00205461736B33206765B6
:100C200073747572650000001C0C002070B52DED0A
:100C3000028B05460C46B0EE408A611EBF4807F0A5
:100C4000E9F900EE104AB8EE400A20EE080ABCEEC0
:100C5000C00A10EE101AB94807F07FFBBDEC028BFA
:100C600070BD70B52DED028B04460D46B0EE408A86
:100C7000A580A0884004000C608084ED028AD4ED39
:100C8000020AB0EE600A61882046FFF7CFFFBDEC94
:100C9000028B70BDFEB504460E461746002514E0D3
:100CA000D4ED020AB0EE600A36F815102046FFF7C0
:100CB000D8FF02A80821CDE90010238800221146A0
:100CC000104610F04CFB681CC5B2BD42E8DB9FED3E
:100CD0009C0A4FF47A712046FFF7C3FFFEBD4FF424
:100CE0007A714180704786B002A8FFF7F8FFD1E023
:100CF0009448007878B96420ADF808009FED920A16
:100D00008DED040A0422914902A8FFF7C3FF0520D4
:100D10008C490870B4E08B480078042817D164200F
:100D2000ADF808009FED880A8DED040A012287497D
:100D30000A3102A8FFF7AEFF05A80821002301220F
:100D4000CDE900101946184610F009FB98E07D48DF
:100D50000078022810D14FF49670ADF808009FED8E
:100D60007A0A8DED040A0322794902A8FFF792FF5F
:100D700005207449087083E072480078012810D17A
:100D8000C820ADF808009FED700A8DED040A03221B
:100D90006E49083102A8FFF77DFF052069490870F8
:100DA0006EE068480078032811D14FF4C870ADF8A0
:100DB00008009FED680A8DED040A05226449091DAB
:100DC00002A8FFF767FF05205E49087058E05D48FC
:100DD0000078062810D14FF41670ADF808009FED8A
:100DE0005E0A8DED040A02225C4902A8FFF752FF59
:100DF00005205449087043E05248007807281ED166
:100E00006420ADF808009FED560A8DED040A01221A
:100E10004E490C3102A8FFF73DFF524800684FF4DD
:100E20007A71B1FBF0F0C821B1FBF0F405AA002102
:100E3000204610F00FFA05204249087020E0414892
:100E4000007808281CD16420ADF808009FED460A00
:100E50008DED040A01223E4902A8FFF71BFF41481D
:100E600000684FF47A71B1FBF0F06421B1FBF0F44B
:100E700005AA0021204610F0EDF90520314908703F
:100E800005A8082105230022CDE9001011461046CF
:100E900010F065FA2CE700B58BB00AA803210022F8
:100EA0000592CDE906210890104680210C222F4B97
:100EB000CDE90132CDE9031009200023AFF2D912A8
:100EC0002BA100902D480EF0AFFABDF828000BB012
:100ED00000BD1C4909782A4A11701A4908707047E8
:100EE0002DE9FE4380460D4616461F46DDF8289044
:100EF000002417E006EB8400D0ED000AB0EE600A93
:100F000035F814104046FFF7ACFE02A80821CDE9E1
:100F1000001037F8143000221146104610F01FFA66
:100F2000601CC4B24C45E5DB9FED050A4FF47A71B5
:100F30004046FFF796FEBDE8FE830000000001403A
:100F4000000000003D000020CDCCCC3D7A450108DA
:100F5000884501080AD7A33CCDCC4C3F96450108F3
:100F6000A69B443BE45301086F12033CB8110020D8
:100F70005461736B332042555A5A0000F41000201C
:100F80003C0000202DE9F04107460C4615461E4660
:100F9000002F00DA0027B7F57A7F01DD4FF47A776A
:100FA000002C00DA0024B4F57A7F01DD4FF47A7466
:100FB000002D00DA0025B5F57A7F01DD4FF47A7552
:100FC000002E00DA0026B6F57A7F01DD4FF47A763E
:100FD00007F57A71444807F0C0F905F57A7143487E
:100FE00007F0BBF906F57A71404807F0B8F904F547
:100FF0007A713D4807F0B3F9BDE8F0810EB5A7213D
:1010000040F6C31001F0A3FA532140F6C31001F0DB
:10101000F6FA4FF47A71344807F09FF94FF47A7179
:10102000324807F09AF94FF47A71304807F097F98F
:101030004FF47A712C4807F092F916E000F0DDFCCD
:101040002B4CB4F90630B4F90420B4F90210B4F909
:101050000000FFF797FF02A8082105230022CDE931
:1010600000101146104610F07AF9E7E700B58BB092
:101070000AA8032100220592CDE906210890104616
:1010800080210C221B4BCDE90132CDE90310062053
:101090000023AFF2970218A100901A480EF0C4F98D
:1010A000BDF828000BB000BD10B5A72140F6C31055
:1010B00001F04DFA532140F6C31001F0A0FA4FF4AD
:1010C0007A71094807F049F94FF47A71074807F037
:1010D00044F94FF47A71054807F041F94FF47A71F9
:1010E000014807F03CF910BD0040014000180040E5
:1010F000400000207C1400205461736B33204D4F5E
:10110000544F5200B81300202DE9F05F2DED048BF1
:10111000FE48B0F90040B0F902508088404206B263
:10112000FA48B0F906704FF00008C146C246C346FF
:10113000F748007801284FD1F648008864284BDA38
:10114000391B2944881912F0B2FE41EC190B9FEDAE
:10115000F20B53EC102B12F0D5FE41EC180B12F0F1
:1011600049FE0FFA80F8391B491B881B12F09FFEBD
:1011700041EC190B9FEDE80B53EC102B12F0C2FE63
:1011800041EC180B12F036FE0FFA80F93919491BA1
:10119000881912F08CFE41EC190B9FEDDF0B53EC1C
:1011A000102B12F0AFFE41EC180B12F023FE0FFAD9
:1011B00080FA39192944881B12F079FE41EC190B89
:1011C0009FEDD50B53EC102B12F09CFE41EC180B4D
:1011D00012F010FE0FFA80FBD148A0F80080A0F8B2
:1011E0000290A0F804A0A0F806B0BDEC048BBDE806
:1011F000F09FCC4909784170CA4949880912817029
:10120000C8498978C170C74909790171C549897987
:101210004171C449097A817107210170704710B585
:1012200004466078BF490870E078A17800EB01209F
:10123000BC494880207940B28880607940B2C8803B
:10124000A07940B2088108460078012804D1B0494D
:101250000870FFF73EFE09E0B2480078022805D189
:101260000020AB4908700220FFF733FE10BDAD48E7
:101270004088B0F5D77F09DBAB480068B0F5AF7F99
:1012800004D9AA480088401DA8490880A7480088BA
:10129000B0F57A7F03DD4FF47A70A4490880704777
:1012A0000146A34A128A8A1A10B2A24A538B938328
:1012B000138B5383D38A1383938AD38290829FEDB7
:1012C0009E0A9E4A82ED1E0AD2ED1E0A00EE100A08
:1012D000B8EEC00A20EE800ABDEEC00A10EE102A59
:1012E00013B2964AA2F88430924BB3F91420002A24
:1012F00001DB134600E05342C82B05DD9FED900A49
:101300008E4A82ED200A14E08A4BB3F91420002A99
:1013100001DB134600E05342642B05DD9FED890A93
:10132000864A82ED200A04E09FED870A834A82ED17
:10133000200A9FED850A814A82ED200A92ED220A59
:101340007C4AB2F9142000EE902AF8EEE00A7B4ABB
:1013500092ED201A00EE810A82ED220A92ED220A15
:10136000DFED7A0AB4EEE00AF1EE10FA03DD9FED4C
:10137000770A82ED220A714A92ED220ADFED740AA1
:10138000B4EEE00AF1EE10FA03D29FED710A82ED9D
:10139000220A6A4AB2F8843092ED220ABDEEC00AEF
:1013A00010EE102A1A4413B2644AA2F88C300022BC
:1013B000564B9A80704701465D4AD2898A1A10B20C
:1013C0005C4A138A5382D38913829389D3815389C8
:1013D000938150819289821A12B200EE102AF6EEA1
:1013E000000A564AC2ED120A92ED121A00EE900A55
:1013F000F8EEE00A61EE200AFDEEE00A10EE902A17
:1014000013B24E4AA2F85430DFED4D0AC2ED130A72
:10141000D2ED130AB8EEC01A60EE810AFDEEE00AC2
:1014200010EE902A13B2454AA2F85630DFED490A71
:10143000C2ED140AD2ED160AD2ED141A3D4AB2F9E1
:101440000A2001EE102AB8EEC11A41EE810A3B4A89
:10145000C2ED160AD2ED160A9FED3F1AF4EEC10A4C
:10146000F1EE10FA03DDDFED3C0AC2ED160A334A55
:10147000D2ED160A9FED391AF4EEC10AF1EE10FA18
:1014800003D2DFED360AC2ED160A2C4AB2F8543008
:10149000B2F856201344294AD2ED140AFDEEE00AB0
:1014A00010EE902A1A4413B2244AA2F85C30B2F823
:1014B0005C20164B5A80704701461D4A92898A1A51
:1014C00010B21C4AD2881B4B1A811A469288DA80C5
:1014D0001A4652889A801A4612885A801A461080F4
:1014E0005288821A12B200EE102AF6EE000A134A4F
:1014F000C2ED060A92ED061A00EE900AF8EEE00A36
:1015000061EE200AFDEEE00A2AE00000480000201B
:101510003E00002020000020000000000000D03F1E
:10152000400000207C1600206C00002052000020AB
:10153000641E002008180020CDCC4C3F88160020E7
:1015400000000000A69BC43B0AD7233C00001643C2
:10155000000016C36F12833A00007042000070C290
:1015600010EE902A12B2FE4B9A845FED0B0A1A46D7
:10157000C2ED070AD2ED070AB8EEC01A60EE810A82
:10158000FDEEE00A10EE902A12B2DA845FED0F0A47
:101590001A46C2ED080AD2ED0A0AD2ED081AF14A3B
:1015A000B2F9002001EE102AB8EEC11A41EE810A0C
:1015B0001A46C2ED0A0AD2ED0A0A1FED191AF4EE14
:1015C000C10AF1EE10FA03DD5FED1D0AC2ED0A0A51
:1015D000E34AD2ED0A0A1FED1F1AF4EEC10AF1EE3A
:1015E00010FA03D25FED230AC2ED0A0ADC4A928C9C
:1015F000DB4BDB8C1344DA4AD2ED0A0AFDEEE00A3B
:1016000010EE902A1A4412B2D54B9A851A46928D42
:10161000D54B1A80704730B503468C1A24B21C8013
:101620009FEDD20A83ED060AD3ED060AB3F9004016
:1016300000EE104AB8EEC00A20EE800ABDEEC00AE5
:1016400010EE104A24B29C8493ED060ADFEDC80A1E
:10165000B4EEE00AF1EE10FA03DD9FEDC50A83ED6A
:10166000060A93ED060ADFEDC30AB4EEE00AF1EED6
:1016700010FA03D29FEDBF0A83ED060AB3F90040CA
:10168000002C01DB254600E065420A2D04DA9FEDBF
:10169000BA0A83ED080A2DE0B3F90040002C01DB03
:1016A000254600E06542142D04DA9FEDB40A83ED6F
:1016B000080A1FE0B3F90040002C01DB254600E0DA
:1016C00065421E2D04DA9FEDAE0A83ED080A11E093
:1016D000B3F90040002C01DB254600E06542322DC5
:1016E00004DA9FEDA80A83ED080A03E09FEDA60A3D
:1016F00083ED080A93ED0A0A93ED081AB3F9004046
:1017000000EE904AF8EEE00A01EE200A83ED0A0AA4
:1017100093ED0A0ADFED9D0AB4EEE00AF1EE10FA4D
:1017200003DD9FED9A0A83ED0A0A93ED0A0AB5EEEE
:10173000C00AF1EE10FA03D21FED7F0A83ED0A0A08
:101740009D8C93ED0A0ABDEEC00A10EE104A2C449F
:1017500020B230BD70B503460C46092106E04D1E8F
:1017600033F8155023F811504D1EE9B20029F6DC6C
:10177000A51A2DB21D801D88DE88AD1B2DB29D825D
:101780009FED830A83ED060AD3ED060AB3F90050F4
:1017900000EE105AB8EEC00A20EE800ABDEEC00A74
:1017A00010EE105A2DB29D849FED7A0A83ED070A40
:1017B000D3ED070AB3F9145000EE105AB8EEC00A80
:1017C00020EE800ABDEEC00A10EE105A2DB2DD8464
:1017D0009D8CDE8C354428B23C2800DD3C2010F185
:1017E0003C0F01DA6FF03B0070BDF0B504460E46C9
:1017F0001746732C04DAA004000C6749088003E044
:101800004FF4E67064490880B4F5EB7F01DD4FF4D6
:10181000EB74324621466148FFF79CFF5F4988859B
:10182000BAB20846808D81B25C483030FFF7F3FED3
:101830005A49A1F85C000846B0F85C00564909888E
:10184000084405B2002D00DA0025A80000B2464980
:10185000C880F0BD10B50146514B93ED020A514BC3
:10186000D3ED040A30EE600ADFED480A20EE200ACC
:10187000BDEEC00A10EE103ACB1A18B24A4B5C8B80
:101880009C831C8B5C83DC8A1C839C8ADC82988210
:101890009C8ADB8AE31A1AB2B6EE000A434B83ED48
:1018A0001E0AD3ED1E0A00EE100AB8EEC00A20EEA2
:1018B000800ABDEEC00A10EE103A1CB23B4BA3F8F2
:1018C000844000BFB3F88440A3F88C4010BD10B52D
:1018D0000146334B93ED010ADFED2C0A20EE200A7E
:1018E000BDEEC00A10EE103ACB1A18B22E4B1C8A6D
:1018F0005C82DC891C829C89DC815C899C815881AA
:101900005C899B89E31A1AB2B6EE000A274B83ED75
:10191000120AD3ED120A00EE100AB8EEC00A20EE49
:10192000800ABDEEC00A10EE103A1CB21F4BA3F89D
:10193000544000BFB3F85440A3F85C4010BD0146CA
:10194000174A92ED000ADFED110A20EE200ABDEEE3
:10195000C00A10EE102A8A1A10B2134AD28827E061
:101960008816002008180020480000209A99193F86
:1019700000004843000048C3CDCC4C3D0AD7233D6E
:101980000AD7A33C4260E53B17B7D1380000C842F4
:101990009A99193E0AD7A33D50000020A8170020AD
:1019A000641E0020E01000202618002018170020D8
:1019B0003C4B1A811A469288DA801A4652889A80DD
:1019C0001A4612885A801A461080B6EE000A364A25
:1019D00082ED060AD2ED060A00EE100AB8EEC00A41
:1019E00020EE800ABDEEC00A10EE102A12B22E4B75
:1019F0009A841A46928C9A85704700B5FFF737FC97
:101A00002A484088B0F5EC7F03DB40F2D710274925
:101A1000488027480078032821D12449898801EB90
:101A20008101490008B2FFF78AFF2049C98801EB0C
:101A30008101490008B2FFF74AFF1C490989322297
:101A400011FB02F108B2FFF705FF1A4A128891B2A2
:101A5000164A5088184AB2F90020FFF7C6FE12490C
:101A6000B1F92C00FFF728FD0F49B1F95C00FFF731
:101A7000A2FC0E48008900EB800001B20A48A0F8E1
:101A80008C100146B1F98C00FFF70AFC0848007879
:101A9000401C0749087008460078042801DB002034
:101AA000087000BD26180020181700207C160020A2
:101AB000540000206C0000207600002070B5002546
:101AC000FB21604805F0A4FB00BF40215D4805F004
:101AD0004FFC0128F9D16D215A4805F099FB00BF50
:101AE0004021584805F044FC0128F9D125215548EA
:101AF00005F08EFB00BF4021524805F039FC01285B
:101B0000F9D1681FC5B205F16D00C5B205F1250018
:101B1000C5B2002411E04C48015D4A4805F078FB4D
:101B200000BF4021474805F023FC0128F9D1464871
:101B3000005D2844C5B2601CC4B2444800788442A9
:101B4000E9DB29463F4805F063FB00BF40213D48E3
:101B500005F00EFC0128F9D170BD30B50A46CB174F
:101B600001EB1363C3F30723374C04F81030CB1792
:101B700001EB13631B12A1EB0323012404EB4004CC
:101B8000314D2B5530BD10B53148008881B2002051
:101B9000FFF7E3FF2F48808881B20120FFF7DDFFC8
:101BA0002C48008881B20220FFF7D7FF29484088DF
:101BB00081B20320FFF7D1FF2748C08A81B20420F9
:101BC000FFF7CBFF2448408A81B20520FFF7C5FF0D
:101BD0002148808A81B20620FFF7BFFF1E4890EDA2
:101BE000000ADFED1E0A20EE200ABDEEC00A10EE4C
:101BF000100A81B20720FFF7B0FF174890ED020AE4
:101C0000DFED160A20EE200ABDEEC00A10EE100A23
:101C100081B20820FFF7A1FF0F4890ED010ADFED28
:101C20000F0A20EE200ABDEEC00A10EE100A81B2A3
:101C30000920FFF792FF00210A20FFF78EFFFFF730
:101C40003DFF10BD00440040481800205500002012
:101C50006C00002078000020641E00200000C842B4
:101C600010B508F005FF40F22551304805F096FB0D
:101C7000002857D02D4805F0CFFA2D4908700846A6
:101C800000784C284ED101241FE00020294908800B
:101C900004E028480088401C264908802021234869
:101CA00005F066FB20B923480088B0F5C87FF0DB5B
:101CB00020480088B0F5C87F00DB08E01B4805F02D
:101CC000ABFA1B490855601CC4B2052CDDDB00BF14
:101CD00018480088B0F5C87F24DA15488078144980
:101CE000497800EB012000B2134988800846B0F91A
:101CF0000400B0F5966F02DD4FF4966088800E48C0
:101D0000B0F9040010F5966F03DA4FF650300A4927
:101D10008880074800790649C97800EB012000B2A5
:101D20000549C88008F0B5FE10BD00000044004021
:101D30005E000020640000205600002010B52DED4C
:101D4000068B044646F2A810844218D2204612F0B0
:101D5000C5F841EC1A0B9FED7E0B53EC102B12F0E3
:101D6000D1F841EC190B9FED7C0B53EC102B11F0CB
:101D700041FE41EC180B12F06DF879490860BDEC9A
:101D8000068B10BD10B50021764806F0AEFB05218C
:101D9000744806F0BDFD01220421724806F090FD52
:101DA0000021704806F074F900216E4806F030F901
:101DB00000206D49086010BD10B5FFF7E3FF00205B
:101DC0006A49087001206A4908600F2006F0C9FEC0
:101DD00000206849C1F88C0210BD0EB553214FF0A8
:101DE000FF3000F03FFB00F097FB02AB00221146F2
:101DF00010460EF0C7F935E000F0DAFC5E480078D6
:101E0000E8B9FFF7D9FF02A8002301AA19460090FC
:101E100006200DF09CFD5448006820B1524800682F
:101E2000FFF78CFF1EE001205349087046F2A8100E
:101E30004D49086008460068FFF780FF12E046F24F
:101E4000A8104949086008460068FFF777FF4A482C
:101E50000078401C4849087008460078052801DDD4
:101E600000200870C8E700B58BB00AA80321002243
:101E70000592CDE90621089010464FF48071192291
:101E80003E4BCDE90132CDE9031004200023AFF22F
:101E9000B5023BA100903D480DF0C6FABDF8280000
:101EA0000BB000BD10B502212E4806F01EFB10BD80
:101EB0001CB508F0DDFD04212A4806F018FD0128B4
:101EC00039D12A48007868B900F085FC304908808B
:101ED0000121244806F0DCF8FFF7E4FF0120234944
:101EE00008702DE021480078012829D100202249DE
:101EF000087000211B4806F0CBF81A4806F097FC42
:101F0000194908600021174806F082F80020174997
:101F1000087000220421134806F0D2FC00F05BFC9C
:101F20001B49488001A8002304220F49009017484C
:101F30000DF0A2FF04E0002204210A4806F0C0FCD4
:101F40000521084806F0E4FC08F0A3FD1CBD0000D4
:101F5000BC7493180456C63F33333333338361C0A4
:101F60006C000020000C0040700000206800002081
:101F70008C0240420000404274000020DC19002026
:101F80005461736B3220736F6E69630018190020FF
:101F9000221E002010B52DED068BB0EE409AB0EE5B
:101FA000608AF0EE418AB0EE480A10F05EFDF0EE75
:101FB000409AB0EE680A10F058FD29EE800A9B485E
:101FC00080ED000AB0EE680A10F04FFDF0EE409A86
:101FD000B0EE480A10F055FD69EE809AB0EE490A5D
:101FE00010F04FFD69EE809AB0EE490A10F03DFD09
:101FF000B0EE40AAB0EE680A10F043FD4AEE409AF7
:102000008A48C0ED019AB0EE490A10F02EFDF0EEBC
:10201000409AB0EE480A10F034FD69EE809AB0EEB6
:10202000680A10F022FD69EE809AB0EE490A10F0BD
:1020300028FDB0EE40AAB0EE680A10F022FD4AEE8C
:10204000009A7A48C0ED029AB0EE480A10F00DFDF1
:10205000F0EE409AB0EE680A10F013FD29EE800A07
:10206000724880ED030AB0EE490A10F0FEFCF0EE73
:10207000409AB0EE680A10F0F8FC69EE809AB0EE73
:10208000490A10F0FEFCB0EE40AAB0EE480A10F08B
:10209000F8FC2AEE00AAB0EE680A10F0F2FC4AEE54
:1020A000009A6248C0ED049AB0EE490A10F0DDFCD7
:1020B000F0EE409AB0EE480A10F0E3FC69EE809A28
:1020C000B0EE680A10F0DDFC69EE809AB0EE490AC5
:1020D00010F0D7FCB0EE40AAB0EE680A10F0C5FCD4
:1020E0004AEE409A5148C0ED059AB0EE480A10F009
:1020F000C8FCB1EE400A4D4880ED060AB0EE490A30
:1021000010F0BFFCF0EE409AB0EE480A10F0ADFCC3
:1021100029EE800A454880ED070AB0EE490A10F022
:10212000A4FCF0EE409AB0EE480A10F09EFC29EEB6
:10213000800A3E4880ED080ABDEC068B10BD10B544
:102140002DED0A8BB0EE408AF0EE608AB0EE419A37
:10215000F0EE619AB0EE42AAF0EE62AAB1EE690A20
:10216000DFED330A20EE200ADFED320A80EE201A7E
:10217000B0EE41BAB1EE4A0ADFED2D0A20EE200A98
:10218000DFED2C0A80EE201AF0EE41BA9FED280A0E
:102190002AEE800ADFED270A80EE201AB0EE41CA4F
:1021A000B0EE6B1AF0EE4C0AB0EE4B0AFFF7F2FEFF
:1021B0001E4890ED000A20EE080AD0ED010A00EE5C
:1021C000A80AD0ED020A00EE890ABDEEC00A10EEA0
:1021D000100A00B218490880144890ED030A20EE56
:1021E000080AD0ED040A00EEA80AD0ED050A00EEB8
:1021F000890ABDEEC00A10EE100A00B248800B48F2
:1022000090ED060A20EE080AD0ED070A00EEA80AB3
:10221000D0ED080A00EE890ABDEEC00A10EE100AE1
:1022200000B28880BDEC0A8B10BD0000DC1D0020D0
:10223000DB0F494000003443780000203748006835
:10224000704700B501460120087200204860FFF782
:10225000F5FF08B931480160084600BD7CB5044669
:102260000D461646606808B1207D00B97CBDE5606A
:10227000266101A8009000230C2204F10801606887
:102280000DF0FAFD00BFF1E770B504460D4665603C
:1022900000F01AFC28B901202075284600F04AFCFD
:1022A00001E000202075207D70BD8AB004462EE03C
:1022B0001B48006880B901A800F099FB1949087013
:1022C00008460078F0B901A8FEF7A9FF0020208099
:1022D0000720FEF7FEFD15E02088401C00B220809C
:1022E0002088642805D100200F4908700320FEF7DC
:1022F000F0FDB4F900006E2804DB0820FEF7E9FDCC
:102300006E20208009AA082101200EF0A3FFCFE74C
:1023100000B50648FFF795FF00BD000088000020CB
:102320000C024242840000203E000020001E0020DB
:1023300030B58BB004460D460121080204F0F9FCCB
:102340000121202004F0ACFC09221146FE4804F0D3
:1023500094FA4FF40070099002208DF828000320B1
:102360008DF8290000208DF82A0001208DF82B001F
:1023700009A9F54804F0F6F9A8B2ADF818000794D9
:102380000020ADF81A00ADF8200006A9EF4805F0CE
:10239000F6FD6020ADF804000120ADF80600022033
:1023A000ADF8100001A9E94805F07EFE0821E748D4
:1023B00006F007F80121E54805F04CFE0121E3484D
:1023C00005F066FE0BB030BD30B58BB004460D464F
:1023D0000121084604F0ADFC0121022004F060FC5C
:1023E00001220A21DA4804F048FA4FF4806009908B
:1023F00002208DF8280003208DF8290000208DF898
:102400002A0001208DF82B0009A9D14804F0AAF96F
:10241000A8B2ADF8180007940020ADF81A00ADF886
:10242000200006A94FF0804005F0A9FD6020ADF81E
:1024300004000120ADF806000020ADF8100001A94D
:102440004FF0804005F0B6FE0821C80605F0CFFF2A
:102450000121880705F0FEFD0121880705F018FE1F
:102460000BB030BD30B587B004460D4601210820C1
:1024700004F05FFC0121084604F012FC02200590E4
:102480008DF8180003208DF8190000208DF81A002F
:1024900002208DF81B0005A9AE4804F063F9022262
:1024A0000121AC4804F0E9F9A8B2ADF80800002019
:1024B000ADF80A000394ADF8100002A9A64805F093
:1024C0005EFD0420A5490880002048800120888006
:1024D0000020C8800881A04806F028F900219E4805
:1024E00005F0D6FD002204219B4806F0E9F90521FC
:1024F000994806F00DFA32208DF8040002208DF87C
:10250000050000208DF8060001208DF8070001A8C5
:1025100004F037F807B030BD1CB50121084604F0BF
:10252000BFFB0820009001208DF8040003208DF8E7
:10253000050000208DF8060002208DF8070069468E
:10254000844804F00FF90020854908601CBD30B5AF
:102550008BB004460D460121080404F0FBFB012169
:10256000102004F09DFB032205217E4804F085F92C
:10257000032206217B4804F080F9602009900220A4
:102580008DF8280003208DF8290000208DF82A00FE
:1025900001208DF82B0009A9724804F0E3F8A8B2D5
:1025A000ADF8180007940020ADF81A00ADF820002F
:1025B00006A96D4805F0E3FC6020ADF80400012099
:1025C000ADF806000020ADF8100001A9664805F03E
:1025D0006BFD01A9644805F0A0FD0821624805F0E3
:1025E000F0FE0821604805F0F5FE01215E4805F087
:1025F00031FD01215C4805F04BFD0BB030BD30B51D
:102600008BB004460D460121402004F092FB0121CD
:10261000022004F045FB09220E214D4804F02DF95B
:1026200009220F214A4804F028F94FF4404009904C
:1026300002208DF8280003208DF8290000208DF855
:102640002A0001208DF82B0009A9414804F08AF8DE
:10265000A8B2ADF8180007940020ADF81A00ADF844
:10266000200006A9414805F08AFC6020ADF804006E
:102670000120ADF806000020ADF8100001A93B488C
:1026800005F012FD01A9394805F047FD082137483A
:1026900005F097FE0821354805F09CFE01213348DE
:1026A00005F0D8FC0121314805F0F2FC0BB030BD3B
:1026B00030B58BB004460D460121084604F04AFBB4
:1026C0000121084604F0ECFA01220821214804F017
:1026D000D4F84FF48070099002208DF82800032070
:1026E0008DF8290000208DF82A0001208DF82B009C
:1026F00009A9184804F036F8A8B2ADF818000794F4
:102700000020ADF81A00ADF8200006A9184805F021
:1027100036FC6020ADF804000120ADF80600002072
:10272000ADF81000039001A9114805F0BDFC082187
:102730000F4805F046FE01210D4805F08BFC0121F4
:102740000B4806F096F815E0001402400020004007
:102750000004024000000240000C0040181E00204F
:102760008C0240420010024000400140001800402E
:102770000000014001211F4805F08AFC0BB030BD6C
:102780003EB505460C460121022004F0D2FA01951F
:10279000ADF800400020ADF80200ADF80800694631
:1027A000154805F0ECFB0121134805F071FC3EBD16
:1027B00010B50121104806F097F853214EF660201D
:1027C000FFF7DEFF01210C4806F08EF800210A48D1
:1027D00005F01EFC10BD10B50121074806F07BF87E
:1027E000012802D14FF6FF7010BD034805F014FC1C
:1027F00080B2F9E7000001400004004000B58DB050
:102800000121062004F04CFA0121080204F0A2FA8A
:1028100001200B9003208DF8300000208DF833004C
:102820000BA92C4803F09EFF0121080204F0E7FAEF
:1028300000214FF4807004F0E2FA002007900A9023
:1028400009904FF48030089007A804F02BFE002078
:1028500001908DF808008DF8090003900590012083
:102860008DF8180001A91C4804F0EDFD01211A485B
:1028700004F02FFE0DB000BD10B504460723012261
:102880002146154804F065FE134804F0BEFE00BF63
:102890000221114804F0DAFF0028F9D00E4804F0B4
:1028A000F0FE10BD2DE9F04107460C46002500263C
:1028B00008E03846FFF7E0FF0544052006F073F90D
:1028C000701CC6B2A642F4DBB5FBF4F080B2BDE8E2
:1028D000F08100000000024000200140002000E0E4
:1028E000401CB0F5167FFBD87047002119E000F0BE
:1028F0008002802A03D10122C94B1A6002E0002223
:10290000C74B1A604206100E0122C54B1B1D1A60F0
:10291000C44AD2F810220243D0B200221A604A1CE4
:10292000D1B20829E3DB704770B505460C4600209C
:10293000BB49083108602846FFF7D7FF0646204606
:10294000FFF7D3FF0120B849C1F88802304670BDB7
:1029500030B504460020B249083108602046FFF730
:10296000C4FFFF20FFF7C1FF05460120AE49C1F8B3
:102970008802284630BD2DE9F04107460D4616462F
:102980000020A749083108603846FFF7AEFF8046AF
:10299000002405E0FF20FFF7A8FF2855601CC4B203
:1029A000B442F7DB01209E49083108604046BDE88B
:1029B000F0812DE9F04107460C4615460020984964
:1029C000083108603846FFF790FF8046002605E092
:1029D00014F8010BFFF789FF701CC6B2AE42F7DB9B
:1029E00001208F49083108604046BDE8F08130B5CC
:1029F00004460720FFF7ACFF054629462720FFF7CE
:102A000093FF05F04000A0B1002085490C3108601B
:102A1000202221466120FFF7AEFFFF21E220FFF7D1
:102A200083FF01208049C1F88C02FFF757FF002087
:102A300030BD0120FCE71CB501AA00217B480CF049
:102A400044F87B48006810B946F62E601CBD01A80A
:102A500000231A460221009074480BF0B1FDBDF826
:102A60000400F3E710B50022114670480BF0E5FFB3
:102A700010BD70B50546002069490C310860202260
:102A80002946A020FFF795FF01206749C1F88C0275
:102A9000FFF7D1FFFFF7E6FF0720FFF759FF0446D6
:102AA00021462720FFF740FF04F0100028B1FF2146
:102AB000E120FFF739FF102070BD04F0200008B1BD
:102AC0002020F9E7FF20F7E70FB55AA103C9CDE9A8
:102AD00002010020009001905149091D0860012069
:102AE0005149C1F8880200204D490C310860052287
:102AF00002A93020FFF75DFF052269461020FFF78D
:102B00003AFF9DF80000112812D19DF801002228FB
:102B10000ED19DF8020033280AD19DF80300442805
:102B200006D19DF80400552802D1002004B000BD54
:102B30000120FBE738B50446002039490C31086014
:102B400020213120FFF7F0FEFF21E220FFF7ECFE0D
:102B500005223A493020FFF72CFF052238492A2068
:102B6000FFF727FF01212120FFF7DEFE01212220B0
:102B7000FFF7DAFE1A212420FFF7D6FE00212520D8
:102B8000FFF7D2FE0F212620FFF7CEFE0F212020D7
:102B9000FFF7CAFE01202449C1F88C026B460022CF
:102BA00028A122480BF0DDFB00202A4908702A48A2
:102BB000046038BD10B50446002019490C31086086
:102BC0000E212020FFF7B0FE01201749C1F88C022A
:102BD000204908700F2005F0C4FF2046FFF749FF89
:102BE00000200F490C3108600F212020FFF79CFEC8
:102BF00001200B490C31086000201649087010BDF7
:102C00001448007870470EB512480078012802D1A8
:102C1000FFF728FF02E000208DF800000EBD000045
:102C20008002414200004242000041422C1E00202E
:102C30000C02424211223344550000009A4501081B
:102C40009F4501086E7266323430312069727120FE
:102C500073656D008C0000209000002010B50446C4
:102C600000BF02217F4805F0ADF80028F9D02146C9
:102C70007C4805F05EF800BF01217A4805F0A2F813
:102C80000028F9D0774805F051F8C0B210BD00B562
:102C900087B00121084604F003F80121080304F07D
:102CA00059F83820059002208DF8180000208DF882
:102CB0001A0003208DF8190001208DF81B0005A9CA
:102CC000694803F04FFD05220321674803F0D5FD55
:102CD00005220421644803F0D0FD05221146624814
:102CE00003F0CBFD0121080304F089F800214FF423
:102CF000805004F084F80020ADF800004FF482709A
:102D0000ADF802000020ADF80400ADF80600ADF803
:102D100008004FF40070ADF80A003820ADF80C0040
:102D20000020ADF80E000720ADF8100069464D48B0
:102D300004F084FE01214B4804F07AFFFF20FFF7E6
:102D40008DFF07B000BD10B50446464800884FF619
:102D5000C77108404349088008460088204308801E
:102D60000121404804F064FF10BD00B585B0012189
:102D7000102003F095FF00208DF80400082000903B
:102D800001208DF807006946384803F0EBFC01216B
:102D9000880303F0DFFF0321042004F0E6F8082095
:102DA000029000208DF80C000C208DF80D00012001
:102DB0008DF80E0002A804F07BFD09208DF81000AC
:102DC00000208DF8110002208DF8120001208DF8EE
:102DD000130004A803F0D5FB05B000BD1CB501210C
:102DE000142003F05DFF0420009001208DF8040002
:102DF00000208DF8060003208DF8050000208DF8D6
:102E0000070069461A4803F0ADFC082000906946A7
:102E1000174803F0A7FC012000906946144803F00E
:102E2000A1FC022000906946114803F09BFC0020A1
:102E30008DF8040001208DF80700102000906946ED
:102E40000A4803F08FFCFFF790FF1CBD10B5082067
:102E500004F094FD012804D1FFF7D5FE082004F00A
:102E600098FD10BD003001400004024000100240F7
:102E7000000802401CB50121102003F011FF0320BF
:102E8000009001208DF8040000208DF8060003203A
:102E90008DF8050001208DF807006946F14803F020
:102EA00061FC0321EF4803F0D9FC1CBD10B5ED48CF
:102EB000006820F00C00EB4908600846006840F00C
:102EC000040008600120E8490860E849C1F8800270
:102ED00005F047FE0020E4490860012005F041FEAE
:102EE0000020E249C1F8800210BD10B5DD4800683D
:102EF00020F00C00DB4908600846006840F0040040
:102F000008600020D849091F0860D849C1F8840228
:102F1000012005F026FE0120D349091F0860D3498E
:102F2000C1F8840205F01DFE10BD10B50024CD4887
:102F3000006820F00C00CB49086008460068086073
:102F40000120C949091F086005F00BFE07E0601C5D
:102F5000C4B2FA2C03DDFFF7C8FF012010BDC24840
:102F6000803800680028F2D1BF49091F086000BFFF
:102F7000F4E710B50020BC49091F0860B948006893
:102F800020F00C00B74908600846006840F00400D3
:102F900008600020B549C1F88402012005F0E1FD78
:102FA0000120B149091F086005F0DBFD0020AF4991
:102FB000C1F8800210BD10B50020AB49091F0860A0
:102FC000A848006820F00C00A64908600846006880
:102FD00040F0040008600120A449C1F8840205F013
:102FE000C0FD0120A049091F086005F0BAFD0020BE
:102FF0009E49C1F8800210BD70B50446994800682A
:1030000020F00C00974908600846006840F0040072
:10301000086000209449091F0860002516E0E009B7
:10302000914908606006040E012005F09AFD012018
:103030008E49C1F8800205F094FD00208A49091FDD
:103040000860012005F08DFD681CC5B2082DE6DB87
:1030500070BD70B5054600248248006820F00C0061
:1030600080490860084600680860002617E00020D4
:103070007D49091F0860012005F073FD01207B498F
:10308000C1F880026006040E77488038006808B1F5
:10309000601CC4B2012005F064FD701CC6B2082E8D
:1030A000E5DB15B9FFF787FF01E0FFF762FF204678
:1030B00070BD2DE9F04105460E4617469846FFF7CC
:1030C000F5FE002141EA4501C8B2FFF795FFFFF781
:1030D0002CFF20B1FFF709FF0120BDE8F081304649
:1030E000FFF78AFFFFF721FF00240CE018F8040027
:1030F000FFF782FFFFF719FF18B1FFF7F6FE012077
:10310000EBE7601CC4B2BC42F0DBFFF7EEFE002030
:10311000E3E72DE9F04106460F4614461D46FFF74A
:10312000C5FE002141EA4601C8B2FFF765FFFFF77F
:10313000FCFE20B1FFF7D9FE0120BDE8F081384642
:10314000FFF75AFFFFF7F1FEFFF7B0FE012101EB99
:103150004601C8B2FFF750FFFFF7E7FE0DE0012C74
:1031600004D10020FFF775FF287003E00120FFF76E
:1031700070FF2870601EC4B26D1C002CEFD1FFF7E9
:10318000B4FE0020D9E770B504460D461646FFF799
:103190008DFE002141EA4401C8B2FFF72DFFFFF781
:1031A000C4FE18B1FFF7A1FE012070BD2846FFF74D
:1031B00023FFFFF7BAFE3046FFF71EFFFFF7B5FE0D
:1031C00018B1FFF792FE0120EFE7FFF78EFE002017
:1031D000EBE770B504460D460026FFF767FE0021B9
:1031E00041EA4401C8B2FFF707FFFFF79EFE2846F9
:1031F000FFF702FFFFF799FEFFF758FE012101EBF1
:103200004401C8B2FFF7F8FEFFF78FFE0020FFF77A
:1032100020FF0646FFF769FE304670BD70B50446D4
:103220000D46FFF743FE002141EA4401C8B2FFF713
:10323000E3FEFFF77AFE18B1FFF757FE012070BDDD
:103240002846FFF7D9FEFFF770FE18B1FFF74DFED5
:103250000120F4E7FFF749FE012005F082FC002081
:10326000EDE70000001002408402424200004242AA
:1032700038B50446F84890F82400C0B114B10220D3
:10328000009001E000200090F34A1268D17BF24ADE
:10329000526810786B460122FFF70BFF10B14FF018
:1032A000FF3038BD9DF80010EB48417423E0EA4838
:1032B000807A10B94FF0FF30F3E724B1E648407C44
:1032C00008B10020EDE714B10120009001E00020DA
:1032D0000090E14A1268D17BDF4A526810786B4651
:1032E0000122FFF7E6FE10B14FF0FF30D9E79DF85D
:1032F0000010D94841740020D3E738B500241FE0FE
:10330000D5480068C07AA04204D0D3480068407D08
:10331000A04200D112E0D049496808786B460122EA
:103320002146FFF7F6FE10B14FF0FF3038BD9DF893
:1033300000202146C9A00FF0E3F800BF601CC4B212
:10334000C54840680079A042DADC0020EEE770B59D
:1033500004460D46C0480068C07AA04204D0BE486A
:103360000068407DA04202D14FF0FF3070BDBA48E6
:1033700040680079A04202DC4FF0FF30F6E7B64922
:10338000496808782B4601222146FFF7C2FEEDE787
:1033900038B50446B04890F82300A04201D100207F
:1033A00038BD14B13020009001E000200090AA4800
:1033B000807C20B19DF8000040F002000090A648FB
:1033C00090F8220020B19DF8000040F080000090AD
:1033D000A14A1268117DA04A526810786B460122FA
:1033E000FFF767FE10B14FF0FF30D9E79A4880F839
:1033F00023400020D4E738B5044604F0700010B133
:103400000120009005E014B10020009001E0402070
:103410000090914A1268917C8F4A526810786B46EE
:103420000122FFF746FE20B100218B488172481E21
:1034300038BD9DF8000020F040018748017300204E
:10344000009004F0400020B99DF8000040F0040016
:10345000009004F0200020B99DF8000040F0020028
:10346000009004F0100020B99DF8000040F0010029
:10347000009004F0080020B99DF8000040F03800EA
:103480000090754A1268D17C734A526810786B4676
:103490000122FFF70EFE20B100216F488172481E05
:1034A000C6E724B1082C02D00020FFF771FF6A485C
:1034B0008472002101754CF2503005F052FB00205F
:1034C000B6E738B504466448807CA04201D10020AC
:1034D00038BD002C47D0604A126811795E4A5268A4
:1034E00010786B460122FFF714FE10B14FF0FF3049
:1034F000EEE79DF8000020F020000090564A126888
:103500001179554A526810786B460122FFF7D1FDB8
:1035100010B14FF0FF30DBE740F6B83005F021FB8B
:10352000022000904C4890F8220020B19DF8000045
:1035300040F080000090484890F8230020B19DF8AA
:10354000000040F030000090434A1268117D424A6A
:10355000526810786B460122FFF7ABFD002852D06D
:103560004FF0FF30B4E73C4A126811793A4A52688A
:1035700010786B460122FFF7CCFD10B14FF0FF3001
:10358000A6E73548807A00F0010028B19DF80000D8
:1035900040F02000009004E09DF8000020F02000A2
:1035A00000902D4A126811792B4A526810786B46A8
:1035B0000122FFF77EFD10B14FF0FF3088E740F6A3
:1035C000B83005F0CEFA244890F8220010B18020DF
:1035D000009001E0002000901F4890F8230020B1E7
:1035E0009DF8000040F0300000901B4A1268117DE9
:1035F000194A526810786B460122FFF75AFD10B144
:103600004FF0FF3064E714488474002060E708B589
:103610001148807A10B94FF0FF3008BD00200090AB
:103620000D4A1268D17B0C4A526810786B46012211
:10363000FFF73FFD10B14FF0FF30EEE7064A12688A
:103640005179054A526810786B460122FFF731FD27
:1036500060B14FF0FF30E0E794000020252335787B
:103660003A20252335780D0A00000000F94A126837
:103670001179F84A526810786B460122FFF719FD5C
:1036800010B14FF0FF30C8E7F24890F8240000284E
:1036900054D00C200090EF4A12681179ED4A52681C
:1036A00010786B460122FFF704FD10B14FF0FF3098
:1036B000B3E74CF2503005F054FAC0200090E548D2
:1036C000807A00F0010020B19DF8000040F0200059
:1036D0000090E04A12681179DE4A526810786B4611
:1036E0000122FFF7E6FC10B14FF0FF3095E7D94813
:1036F000407C10B10220009001E000200090D54AEB
:103700001268D17BD34A526810786B460122FFF7CA
:10371000D0FC10B14FF0FF307FE700200090CD4A81
:1037200012685179CB4A526810786B460122FFF734
:10373000C0FC002856D04FF0FF306EE70420009008
:10374000C44A12681179C34A526810786B46012244
:10375000FFF7AFFC10B14FF0FF305EE7BD48807C53
:1037600020B9BC48807A00F0010010B940200090D8
:1037700001E060200090B74A12681179B54A52689A
:1037800010786B460122FFF794FC10B14FF0FF3028
:1037900043E74CF2503005F0E4F9AE48407C10B1FC
:1037A0000120009001E000200090AA4A1268D17B1D
:1037B000A84A526810786B460122FFF77AFC10B1D4
:1037C0004FF0FF3029E7A34A12685179A14A5268A5
:1037D0001078A04B10330122FFF76BFC10B14FF0B3
:1037E000FF301AE7002018E770B50446002624F0E1
:1037F0000104984890F8240008B1002070BD954855
:10380000807A10B94FF0FF30F8E79248057C807A53
:103810002040904908740846007CA04202D04FF036
:10382000FF3600E0002614B98A48007D18B1012057
:10383000FFF71EFD02E00020FFF71AFD3CB1FFF785
:10384000E6FE20B1834805744FF0FF30D6E73046DE
:10385000D4E738B504467F48807A10B94FF0FF307E
:1038600038BDBC2C02DB0120009015E0622C02DB8D
:103870000220009010E02A2C02DB032000900BE0D5
:10388000142C02DB0420009006E00A2C02DB052049
:10389000009001E0062000906E48C07A9DF800106C
:1038A000884201D10020DBE76A4A12689178694AB0
:1038B000526810786B460122FFF7FBFB10B14FF006
:1038C000FF30CDE79DF800106248C1720020C7E7C5
:1038D00038B50446282C02DD4FF0FF3038BDDCB986
:1038E0000020FFF755FD00208DF8000007208DF81F
:1038F0000100584A1268917C564A526810786B460B
:103900000222FFF7D6FB10B14FF0FF30E6E70021AF
:10391000504801750020E1E70120FFF739FD202024
:103920008DF80000012C06D100208DF80100052043
:10393000FFF78FFF17E0052C06DC01208DF8010052
:103940000520FFF786FF0EE0142C06DC02208DF820
:1039500001000A20FFF77DFF05E003208DF801003C
:103960001420FFF776FF9DF80100072101EB80107E
:10397000C0B28DF80100374A1268917C354A52680E
:1039800010786B460222FFF794FB10B14FF0FF3026
:10399000A4E708212F4881720021017301210175DC
:1039A0000020FFF721FF002098E738B5044629489A
:1039B000807A10B94FF0FF3038BD264890F82400C7
:1039C00010B14FF0FF30F7E72248007D50B134B11D
:1039D000282C04DCE0B2FFF77BFF0020ECE700209E
:1039E000FFF776FF042C01DA042404E0B4F57A7FB3
:1039F00001DD4FF47A744FF47A7090FBF4F0401EBE
:103A0000C0B20090134A12685178124A5268107876
:103A10006B460122FFF74DFB10B14FF0FF30CBE7B3
:103A20009DF80000401C4FF47A7191FBF0F081B2D8
:103A30000848C1810146C9894810FFF70AFF0020E4
:103A4000BAE738B504460348807A28B94FF0FF300A
:103A500038BD000094000020022C06D0042C07D0B2
:103A6000082C08D0102C0CD108E0002000900BE0AE
:103A70000820009008E01020009005E01820009039
:103A800002E04FF0FF30E3E700BFFC48407A9DF8CA
:103A90000010B0EBE10F01D10020D9E7F74A12681E
:103AA000D179F64A526810786B460122FFF701FB84
:103AB00010B14FF0FF30CBE79DF80000C110EF4888
:103AC00041720020C4E738B50446EC48807A10B94A
:103AD0004FF0FF3038BDFA2C09D0B4F5FA7F09D089
:103AE000B4F57A7F09D0B4F5FA6F0CD108E0002064
:103AF00000900BE00820009008E01020009005E006
:103B00001820009002E04FF0FF30E3E700BFDB48F1
:103B1000007A9DF80010B0EBE10F01D10020D9E749
:103B2000D64A12689179D54A526810786B460122BC
:103B3000FFF7BFFA10B14FF0FF30CBE79DF8000060
:103B4000C010CE4908720020C4E71CB580208DF853
:103B50000000CA4A1268917CC84A526810786B46C5
:103B60000122FFF7A6FA10B14FF0FF301CBDC44888
:103B700004F0F7FF00208DF80000C04A1268917C25
:103B8000BE4A526810786B460122FFF792FA10B1D4
:103B90004FF0FF30EAE7B94A1268917DB74A5268A0
:103BA00010786B460622FFF7B4FA10B14FF0FF30E1
:103BB000DCE79DF80500C007400F9DF8031001F0F9
:103BC000010140EA41009DF8011001F0010140EAC5
:103BD000010474B1012C03D10121A848C17427E06C
:103BE000022C03D10021A548C17421E04FF0FF3021
:103BF000BCE7A24A1268D178A04A526810786B4696
:103C00000122FFF786FA10B14FF0FF30AEE79DF8C2
:103C1000000000F00F0414B94FF0FF30A6E7042CA9
:103C200003D101219548C17402E000219348C17479
:103C3000FF2192488172FF2090490872FF218F482E
:103C40004172C1724FF6FF71C181FF21017481740D
:103C50000121017380F82210002180F823104175A2
:103C600001751630016041608160163880F82410BB
:103C700080F82510C1844FF4FA60FFF724FF10B1DB
:103C80004FF0FF3072E70820FFF7DBFE10B14FF076
:103C9000FF306BE72A20FFF7DCFD10B14FF0FF305B
:103CA00064E73220FFF781FE10B14FF0FF305DE78F
:103CB0000020FFF799FD10B14FF0FF3056E70020CC
:103CC000FFF7FFFB10B14FF0FF304FE70020FFF789
:103CD00092FB00204AE770477CB504460D466748D2
:103CE000807A00F0700010B94FF0FF307CBD634A5D
:103CF0001268117B614A526810786B460622FFF702
:103D000008FA10B14FF0FF30F0E79DF801009DF880
:103D1000001040EA012000B220809DF803009DF8C9
:103D2000021040EA012000B260809DF805009DF875
:103D3000041040EA012000B2A08015B12846FFF728
:103D4000CAFF0020D2E77CB504460D464B48807A76
:103D500000F0080010B94FF0FF307CBD474A1268F0
:103D6000517B464A526810786B460622FFF7D1F91C
:103D700010B14FF0FF30F0E79DF801009DF8001002
:103D800040EA012000B220809DF803009DF8021057
:103D900040EA012000B260809DF805009DF8041003
:103DA00040EA012000B2A08015B12846FFF793FF3A
:103DB0000020D2E7F8B506460C463048807A10B9A4
:103DC0004FF0FF30F8BD2D4A1268917B2B4A5268A4
:103DD00010786B460222FFF79CF910B14FF0FF30CC
:103DE000F0E79DF801009DF8001040EA012005B2BF
:103DF00014B12046FFF76FFF20484068B0F9080073
:103E000000EE100AF8EEC00A00EE105AB8EEC00A32
:103E100070EE600A19484068C08800EE100AB8EEDB
:103E2000400A80EE801A9FED170A31EE000ADFED9E
:103E3000160A20EE200ABDEEC00A86ED000A002018
:103E4000C0E710B588B004461CB94FF0FF3008B089
:103E500010BD206828B9606818B9A06808B90020AA
:103E6000F5E706494968087806AB03221146FFF7D3
:103E700050F958B14FF0FF30E9E7000094000020FE
:103E8000A086010000000C42000080479DF8180049
:103E9000082101EB201000F00F00ADF800009DF8A4
:103EA000190001EB201000F00F00ADF802009DF8A2
:103EB0001A0001EB201000F00F00ADF8040020689C
:103EC0004100BDF90000403091FBF0F000B2ADF8C8
:103ED000100060684100BDF90200403091FBF0F035
:103EE00000B2ADF81200A0684100BDF904004030F6
:103EF00091FBF0F000B2ADF81400FE494968087873
:103F000006AB06221146FFF704F910B14FF0FF305F
:103F10009DE79DF819009DF8181040EA012000B2B5
:103F2000ADF808009DF81B009DF81A1040EA01202A
:103F300000B2ADF80A009DF81D009DF81C1040EA83
:103F4000012000B2ADF80C00BDF81000BDF808105B
:103F5000084400B2ADF81000BDF81200BDF80A1018
:103F6000084400B2ADF81200BDF81400BDF80C1002
:103F7000084400B2ADF81400BDF81000000A8DF836
:103F80001800BDF81000C0B28DF81900BDF812007D
:103F9000000A8DF81A00BDF81200C0B28DF81B009F
:103FA000BDF81400000A8DF81C00BDF81400C0B262
:103FB0008DF81D00CF494968087806AB06221146E6
:103FC000FFF777F810B14FF0FF3040E700203EE7F1
:103FD0000146C848007A30B1012807D0022809D02C
:103FE00003280FD10AE0FA2008800EE04FF4FA709F
:103FF00008800AE04FF47A70088006E04FF4FA6017
:10400000088002E00020088000BF00BF0020704749
:104010000146B848407A30B1012807D0022808D0BC
:1040200003280CD108E0022008700BE0042008707F
:1040300008E00820087005E01020087002E04FF04A
:10404000FF30704700BFAB48C07C18B1087840060D
:10405000000E08700020F4E70146A648C07A082840
:1040600017D2DFE800F01704070A0D101318BC2060
:10407000088013E06220088010E02A2008800DE00C
:10408000142008800AE00A20088007E00520088044
:1040900004E000BF00BF0020088000BF00BF002078
:1040A00070470146934890F8240010B14FF0FF305C
:1040B00070479048C08908800020F9E70146002039
:1040C0000880401E704701464FF0FF3070470146A0
:1040D0008848007A30B1012809D002280CD0032882
:1040E00014D10EE09FED840A81ED000A11E09FEDEE
:1040F000830A81ED000A0CE09FED810A81ED000A40
:1041000007E09FED800A81ED000A02E04FF0FF30EA
:10411000704700BF0020FBE701467648407A30B187
:10412000012808D002280AD0032810D10BE04FF450
:10413000804008800EE041F69C7008800AE04FF451
:104140008050088006E04FF40060088002E04FF0E5
:10415000FF30704700BF6748C07C10B1088840102E
:1041600008800020F5E701466248007C08700020C6
:10417000704701465F48807A10B10120087001E065
:10418000002008700020704738B504465948807AEE
:1041900010B94FF0FF3038BD564A1268117C554AAD
:1041A000526810786B460222FEF7B3FF10B14FF051
:1041B000FF30F0E79DF801009DF8001040EA012073
:1041C00000B220800020E6E72DE9FE4F0746884632
:1041D00092461D46DDF830B000260024454890F890
:1041E000240010B1601EBDE8FE8F002028704148F9
:1041F000807A10B94FF0FF30F5E73E48007C10B9E7
:104200004FF0FF30EFE73B48007C00F0400008B182
:10421000B01CC6B23748007C00F0200008B1B01CCA
:10422000C6B23448007C00F0100008B1B01CC6B221
:104230003048007C00F0080008B1B01DC6B22D4A1D
:104240001268917A2B4A526810786B460222FEF768
:1042500060FF10B14FF0FF30C5E79DF801009DF8F9
:10426000001040EA0129B14501DA0020BBE72148EE
:1042700040684088B9EB600F17DD1E4A1268517C18
:104280001C4A526810786B460122FEF742FF10B1BB
:104290004FF0FF30A7E79DF8000000F0100020B1BC
:1042A000FFF7B5F96FF001009DE75046FFF713FDEA
:1042B000104A1268D17A0F4A526810786B4632461B
:1042C000FEF727FF10B14FF0FF308CE799FBF6F0B7
:1042D000401E8BF8000000202870B44235D00548FD
:1042E000007C00F0080080B3601C1DF800001DF881
:1042F000041009E094000020000003430000834202
:10430000333303423333834140EA012000B2A8F83B
:104310000000E01C1DF80010A01C1DF8000041EA80
:10432000002000B2A8F80200601D1DF80010201D3A
:104330001DF8000041EA002000B2A8F80400287827
:1043400040F008002870A01D84B2B44213D0FE488B
:10435000007C00F0400070B1601C1DF800001DF8EA
:10436000041040EA012000B23880287840F0400074
:104370002870A01C84B2B44213D0F348007C00F033
:10438000200070B1601C1DF800001DF8041040EA08
:10439000012000B27880287840F020002870A01C0E
:1043A00084B2B44213D0E848007C00F0100070B131
:1043B000601C1DF800001DF8041040EA012000B246
:1043C000B880287840F010002870A01C84B200202B
:1043D00009E7F8B504460F461646DB4890F8240076
:1043E00010B94FF0FF30F8BDD748807A10B94FF0C0
:1043F000FF30F8E7D44A1268917AD34A52681078AD
:104400006B460222FEF785FE10B14FF0FF30EAE75F
:104410009DF801009DF8001040EA0125A54203DA4D
:1044200000203070401EDEE7C74840684088B5EB8A
:10443000600F17DDC44A1268517CC34A5268107875
:104440006B460122FEF765FE10B14FF0FF30CAE760
:104450009DF8000000F0100020B1FFF7D8F86FF0D1
:104460000100C0E7E2B2B84B1B68D97AB64B5B6873
:1044700018783B46FEF74DFE10B14FF0FF30B2E723
:1044800095FBF4F0401E30700020ACE70146AE48CA
:1044900080F82210002070477CB50546AA4949687B
:1044A000087801AB04220D21FEF733FE08B1072086
:1044B0007CBD9DF80700C0F301109DF8041001F0C9
:1044C000E00140EAE1008DF800009DF80700C0F32C
:1044D00081009DF8051001F0E00140EAE1008DF84F
:1044E00001009DF8070000F003009DF8061001F0A0
:1044F000E00140EAE1008DF80200002427E01DF809
:10450000040030B99FED910A05EB840080ED000AAC
:104510001BE09FED8F0A05EB840080ED000A0BE0A5
:1045200005EB840090ED000ADFED8A0A20EE200AF8
:1045300005EB840080ED000A1DF80400401EC0B2A7
:104540000DF804000028EBD100BF601CC4B2032C9E
:10455000D5DB0020ACE7F0B52DED028B83B006462D
:104560000F4600256846FFF797FF002447E056F8FE
:10457000241057F82420881A002801DB014600E0A7
:10458000414200EE101AB8EEC00ADFED730A80EE69
:10459000208A684600EB840090ED000AB5EEC00A60
:1045A000F1EE10FA18D0684600EB8400D0ED000A56
:1045B00088EE200AF7EE000A70EE608AB0EEE80A94
:1045C0006648D0ED090AB4EEE00AF1EE10FA15DD06
:1045D0000120A040054311E0604890ED070AB4EEC9
:1045E000C80AF1EE10FA06DC90ED080AB4EEC80A2B
:1045F000F1EE10FA02D20120A0400543641C032C06
:10460000B5DB284603B0BDEC028BF0BDF0B52DED57
:10461000048B81B006460F4600254B49496808784F
:104620006B4603220D21FEF774FD20B1072001B077
:10463000BDEC048BF0BD9DF8000000F01F008DF86C
:1046400000009DF8010000F01F008DF801009DF8AA
:10465000020000F01F008DF80200002455E056F81B
:10466000241057F82420881A002801DB014600E0B6
:10467000414200EE101AB8EEC00ADFED370A80EEB4
:10468000208A1DF8040068B3344890ED000AB8EEA3
:10469000400ADFED330A80EE801AF0EE418A05E031
:1046A0009FED300A28EE800AF0EE408A1DF80400E3
:1046B000401EC0B20DF804000028F1D188EE280A8F
:1046C000F7EE000A30EE609AB0EEC90A2348D0ED4A
:1046D000060AB4EEE00AF1EE10FA15DD0120A04062
:1046E000054311E01D4890ED040AB4EEC80AF1EE4E
:1046F00010FA06DC90ED050AB4EEC80AF1EE10FAE5
:1047000002D20120A0400543641C032CA7DB2846ED
:104710008DE72DE9F04F87B005460C469146012004
:104720008DF8100000208DF81100074A1268917C66
:10473000054A5268107804AB0222FEF7BAFCA8B111
:104740004FF0FF3007B00FE09400002000000000A1
:104750007B14AE3E1D5A843F00008047CC450108C3
:1047600000B04C4554E3853FBDE8F08FFE4804F0AF
:10477000F8F900208DF81000FC4A1268D17BFB4A42
:104780005268107804AB0122FEF793FC10B14FF091
:10479000FF30D7E7F54A12685179F44A5268107829
:1047A00004AB0122FEF785FC10B14FF0FF30C9E7E2
:1047B000EE4A1268917CED4A5268107804AB0122EF
:1047C000FEF777FC10B14FF0FF30BBE7E74A126805
:1047D000D17DE64A5268107804AB0122FEF769FCED
:1047E00010B14FF0FF30ADE7E04A12681179DF4AAF
:1047F0005268107804AB0122FEF75BFC10B14FF059
:10480000FF309FE70C208DF81000D84A126811790C
:10481000D64A5268107804AB0122FEF74AFC10B168
:104820004FF0FF308EE743F6982004F09AF9CF4816
:10483000806A407A8DF81000CC4A12689178CB4A91
:104840005268107804AB0122FEF733FC10B14FF030
:10485000FF3077E7C548806A007A8DF81000C34AB8
:1048600012685178C14A5268107804AB0122FEF7F1
:1048700020FC10B14FF0FF3064E7B9F1000F07D012
:10488000BA48806A807A40F0E0008DF8100004E0B9
:10489000B648806A807A8DF81000B44A126891791F
:1048A000B24A5268107804AB0122FEF702FC10B144
:1048B0004FF0FF3046E7B9F1000F07D0AB48806AF0
:1048C000C07A40F0E0008DF8100003E0A848C07AFC
:1048D0008DF81000A54A1268D179A44A5268107860
:1048E00004AB0122FEF7E5FB10B14FF0FF3029E7E2
:1048F000B9F1000F02D09C4804F033F940208DF844
:1049000010009A4A12681179984A5268107804ABDC
:104910000122FEF7CEFB10B14FF0FF3012E77820F6
:104920008DF81000914A12685179904A52681078B7
:1049300004AB0122FEF7BDFB10B14FF0FF3001E7E1
:104940008B4989894FF47A7201FB02F004F009F96E
:1049500000208DF81000854A12685179834A526808
:10496000107804AB0122FEF7A4FB10B14FF0FF302A
:10497000E8E67E4A1268917A7C4A5268107804AB65
:104980000222FEF7C6FB10B14FF0FF30DAE69DF8C9
:1049900011009DF8101040EA012B0C209BFBF0F059
:1049A000C6B20020A86068602860A06060602060D7
:1049B000824665E06D4A1268D17A6C4A5268107876
:1049C00004AB0C22FEF7A5FB10B14FF0FF30B9E6A7
:1049D0009DF811009DF8101040EA012000B2ADF8DA
:1049E00008009DF813009DF8121040EA012000B263
:1049F000ADF80A009DF815009DF8141040EA01205A
:104A000000B2ADF80C00BDF9081020680844206021
:104A1000BDF90A10606808446060BDF90C10A06818
:104A20000844A0609DF817009DF8161040EA012088
:104A300000B2ADF800009DF819009DF8181040EA8A
:104A4000012000B2ADF802009DF81B009DF81A107D
:104A500040EA012000B2ADF80400BDF9001028685A
:104A600008442860BDF90210686808446860BDF910
:104A70000410A8680844A8600AF1010000F0FF0AC9
:104A8000B24597DB3A48D0F800C02868C11709043E
:104A900041EA104107046246002338460DF00CFD40
:104AA00032460023CDE902010DF006FD28603048B2
:104AB000D0F800C06868C117090441EA1041070432
:104AC0006246002338460DF0F7FC32460023CDE95C
:104AD00002010DF0F1FC68602548D0F800C0A8681C
:104AE000C117090441EA1041070462460023384611
:104AF0000DF0E2FC32460023CDE902010DF0DCFCB2
:104B0000A8601B48D0F804C02068C117090441EA16
:104B1000104107046246002338460DF0CDFC3246B2
:104B20000023CDE902010DF0C7FC20601048D0F849
:104B300004C06068C117090441EA104107046246D5
:104B4000002338460DF0B8FC32460023CDE90201BF
:104B50000DF0B2FC60600648D0F804C0A068C11730
:104B6000090441EA104105E0400D030094000020D3
:104B7000CC45010807046246002338460DF09CFC32
:104B800032460023CDE902010DF096FCA060A0683A
:104B9000002804DDA068A0F58030A06003E0A068D4
:104BA00000F58030A0600020CCE538B50446FE4812
:104BB00090F82400A04201D1002038BD24B3FA4867
:104BC00090F8250010B94FF0FF30F6E70020FEF70F
:104BD0004FFB0020FEF775FCF349C88CFEF7E5FE9D
:104BE00000200090F049496808786B460122232193
:104BF000FEF75FFA0121EC4880F824100120FEF74F
:104C000037FBFEF704FD13E00020FEF731FBE6481A
:104C1000007C0090E449496808786B460122232112
:104C2000FEF747FA0021E04880F82410FEF7EFFC79
:104C30000020C2E72DE9F04F8DB083460F460220D9
:104C40000C90D94890F8240020B10020FFF7ADFF68
:104C5000012600E0002603A8FFF7BAF905A8FFF730
:104C6000D7F901A8FFF7F8F902A8FFF71AFACE481A
:104C700090F80AA004A8FFF776FA002407E00022C3
:104C800039465846FFF745FD00B902E0641C022C86
:104C9000F5DB00BF022C01D1002528E0002407E04D
:104CA000012206A909A8FFF734FD00B902E0641C3F
:104CB000022CF5DB00BF022C01D1002517E006A96C
:104CC0003846FFF748FC00F0FF0809A95846FFF7EF
:104CD0009DFC00F0FF090025B9F1000F01D145F05E
:104CE0000105B8F1000F01D145F0020500BFFF201A
:104CF000AD490872FF21AC484172C1724FF6FF7195
:104D0000C181FF218172017401210173BDF80C0082
:104D1000FEF7D9FE9DF81400FEF793FEBDF80400DF
:104D2000FEF797FDBDF80800FEF73FFE5046FEF780
:104D300062FB9DF81000FEF757FD16B10120FFF74A
:104D400034FF28460DB0BDE8F08FF8B504460D4697
:104D5000164616B94FF0FF30F8BD9348807A10B967
:104D60004FF0FF30F8E720128DF80000E0B28DF828
:104D700001009DF8010028448B494968498988420F
:104D800002DD4FF0FF30E7E7874A1268117E864A5E
:104D9000526810786B460222FEF78BF910B14FF083
:104DA000FF30D9E7EAB2804B1B68597D7E4B5B68C8
:104DB00018783346FEF77DF910B14FF0FF30CBE79E
:104DC0000020C9E7F8B504460D46164616B94FF05F
:104DD000FF30F8BD7448807A10B94FF0FF30F8E723
:104DE00020128DF80000E0B28DF801009DF801005E
:104DF00028446D4949684989884202DD4FF0FF30F7
:104E0000E7E7694A1268117E674A526810786B4674
:104E10000222FEF74EF910B14FF0FF30D9E7EAB2A7
:104E2000614B1B68597D604B5B6818783346FEF711
:104E300070F910B14FF0FF30CBE70020C9E72DE942
:104E4000F04385B005460E4690469946564890F880
:104E5000250020B14FF0FF3005B0BDE8F08316B952
:104E60004FF0FF30F8E7002423E0281B102801DD75
:104E7000102000E0281B87B2321939462046FFF780
:104E800064FF10B14FF0FF30E6E701AA3946204633
:104E9000FFF798FF10B14FF0FF30DDE730193A46C9
:104EA00001A90DF029FC10B16FF00100D4E7E01961
:104EB00084B2AC42D9DB4FEA28208DF8000008F01C
:104EC000FF008DF80100384A1268917E364A526818
:104ED00010786B460222FEF7ECF810B14FF0FF306D
:104EE000BAE70121304880F82510A0F8269000206C
:104EF000B2E701462C4890F8240008700020704763
:104F00004FF0FF30704702464FF0FF3070470146C8
:104F10004FF0FF307047F8B505460F461446002C99
:104F200073D0B5F5FF5F01DDFF2605E0202D01DA26
:104F3000012601E0C5F3471607B90127282C02DD39
:104F40004FF0FF30F8BD1848407D28BB164890F858
:104F5000240038B10020FFF728FE0121124880F814
:104F6000201003E00021104880F820100E48163071
:104F7000FFF72EF80C481830FFF74AF80A481A30A5
:104F8000FFF76AF808481C30FFF78BF80648817A6B
:104F900081771F30FFF7E7F80020FEF769F900205E
:104FA000FEF796FC002001E0940000208DF8000040
:104FB000FD4A12689178FC4A526810786B460122CB
:104FC000FEF777F810B14FF0FF30BBE740208DF8C7
:104FD0000000F54A1268D17BF34A526810786B469C
:104FE0000122FEF766F800B166E08DF800608DF8EA
:104FF0000170ED4A1268117AEB4A526810786B46DC
:105000000222FEF756F808B156E048E041F2883037
:1050100003F0A7FDE448407A072101EBC000C0B2CD
:105020008DF80000E04A1268D179DF4A52681078A2
:105030006B460122FEF73DF800B13DE020208DF8DF
:105040000000012C03D100208DF801000EE0052C9A
:1050500003DC01208DF8010008E0142C03DC0220A1
:105060008DF8010002E003208DF801009DF8010099
:10507000072101EB8010C0B28DF80100CA4A126806
:10508000917CC94A526810786B460222FEF711F8EB
:1050900000B111E00121C4484175002052E7C24A25
:1050A0001632002103E0505C00B105E0491C0C29D8
:1050B000F9D34FF0FF3045E7FF20BB490872FF21CD
:1050C000B9484172C1724FF6FF71C181FF218172EF
:1050D0000174012101730146887FFEF78CF9B24902
:1050E000C88AFEF7F0FCB049087EFEF7AAFCAE497C
:1050F000488BFEF7AEFBAC49888BFEF756FCAA49FD
:10510000C87FFEF771FBA84890F8200010B101207D
:10511000FFF74BFD0021A4484175002012E710B5B0
:1051200088B002A905A8FFF785FD0446032C41D1EC
:1051300001A8FEF7CCFF9DED050AB8EEC00ADDED33
:10514000010A20EE200ABDEEC00A8DED050A9DED94
:10515000060AB8EEC00ADDED010A20EE200ABDEE17
:10516000C00A8DED060A9DED070AB8EEC00ADDED16
:10517000010A20EE200ABDEEC00A8DED070A05A83F
:1051800000F08BFA6846FEF7C7FFBDF800100298E2
:1051900048430290BDF80010039848430390BDF8BF
:1051A000001004984843049002A800F009FB002076
:1051B00008B010BD0120FBE7014691F90020002A4C
:1051C00001DD00201EE091F90020002A01DA042010
:1051D00018E091F90120002A01DD012012E091F987
:1051E0000120002A01DA05200CE091F90220002AB2
:1051F00001DD022006E091F90220002A01DA0620F2
:1052000000E00720704710B504462046FFF7D4FFA2
:105210000346E01CFFF7D0FF43EAC00083B2A01DA5
:10522000FFF7CAFF43EA801083B2184610BD70B57D
:105230000024FEF78AFC002840D17820FEF7DBF836
:10524000C4B20CB1012070BD7820FEF7CDFAC4B213
:105250000CB10220F7E7C820FEF7A7FBC4B20CB1DF
:105260000320F0E700F07EF9C4B20CB10420EAE7B5
:105270004E48FFF7C8FF054600F07EF9C4B20CB1F6
:105280000520E0E740F2731000F0C7FDC4B20CB196
:105290000620D8E7C82000F029FBC4B20CB10720D3
:1052A000D1E7FFF73CFF04460CB10820CBE7012013
:1052B000FFF77BFCC4B20CB10920C4E70020C2E7B1
:1052C00070B52DED088B8EB004460D46164607A826
:1052D00008A90DAB03AACDE9001009A90BA800F09D
:1052E000FBFE20B101200EB0BDEC088B70BDBDF8F7
:1052F000200000F48070002855D09DED030AB8EE20
:10530000C00ADFED2B0A80EE201A2A4880ED001A31
:105310009DED040AB8EEC00ADFED250A80EE201AE2
:10532000254880ED001A9DED050AB8EEC00ADFEDB4
:10533000200A80EE201A214880ED001A9DED060A11
:10534000B8EEC00ADFED1A0A80EE201A1C4880ED84
:10535000001A194890ED000AF8EE000A20EE200A23
:105360001748D0ED000A20EE200A1248D0ED000ABE
:10537000B0EE001A60EE810A104890ED001A00EEBF
:10538000810A10EE101A08460FF07CF841EC1A0B57
:10539000B0EE4A0AF0EE6A0A0DF0AAFBB0EE409AAF
:1053A000F0EE609A0EE0CDE094000020C0000020F6
:1053B0000000804ECC000020D0000020D40000204F
:1053C000D80000209FED610B53EC102B51EC190B12
:1053D0000EF098FD41EC180B0EF0DAFA20605D48F3
:1053E00090ED000AF8EE000A20EE200AD0ED000A47
:1053F00020EE200A5848D0ED000AB0EE001A60EE08
:10540000810A90ED001A00EEC10AF7EE000A30EEB4
:10541000200A10EE101A08460FF034F841EC1A0B6F
:105420004D4890ED000AF0EE000A20EE200A4B48AD
:10543000D0ED000A20EE200A4948D0ED000AB0EE77
:10544000001A60EE810A434890ED001A00EE810ACE
:1054500010EE101A08460FF015F841EC1B0BB0EED9
:105460004A1AF0EE6A1AB0EE4B0AF0EE6B0A0DF033
:105470005BFEB0EE409AF0EE609A9FED340B53EC79
:10548000102B51EC190B0EF03DFD41EC180B0EF0FA
:105490007FFA2860324890ED000A20EE000A2D487D
:1054A000D0ED000A90ED001A00EE810A2A48D0EDF6
:1054B000000A90ED001A00EEC10A2848D0ED000A5B
:1054C00090ED001A00EEC10A10EE101A08460EF018
:1054D000D9FF41EC1A0B1F4890ED000A1E48D0ED91
:1054E000000A20EE200A1E48D0ED000A1B4890ED6D
:1054F000001A00EE810AF0EE000A20EE200A10EEFB
:10550000101A08460EF0BEFF41EC1B0BB0EE4A1A13
:10551000F0EE6A1AB0EE4B0AF0EE6B0A0DF004FEE4
:10552000B0EE409AF0EE609A9FED080B53EC102B12
:1055300051EC190B0EF0E6FC41EC180B0EF028FABA
:10554000306001E00220CEE60020CCE666666666AA
:1055500066A64C40D0000020D4000020D8000020D7
:10556000CC00002010B5C8234FF48062F74940F604
:10557000F630FFF764FC10BD10B586B00446F4A009
:1055800000680390F3A000680290F3A00068019007
:10559000F2A00068009004F0030003A9085C8DF8F5
:1055A000140003A8C4F3C101405C8DF8150003A8E2
:1055B000C4F38111405C8DF8160004F0030002A9C9
:1055C000085C8DF8100002A8C4F3C101405C8DF89E
:1055D000110002A8C4F38111405C8DF8120005AAE5
:1055E000032140F22640FFF7B0FB18B14FF0FF3027
:1055F00006B010BD04AA032140F22A40FFF7A5FB24
:1056000010B14FF0FF30F3E7019805900098049037
:1056100004F0040058B19DF8140040F001008DF82A
:1056200014009DF8100040F001008DF8100004F007
:10563000200058B19DF8150040F001008DF81500CC
:105640009DF8110040F001008DF8110004F4807005
:1056500058B19DF8160040F001008DF816009DF835
:10566000120040F001008DF8120005AA03214FF44A
:105670008860FFF76AFB10B14FF0FF30B8E704AA6B
:10568000032140F23140FFF760FB10B14FF0FF30D3
:10569000AEE7B34804810020AAE71FB50446B0482E
:1056A000007A00F0030054F820000190AC48007A22
:1056B00000F0040010B1019840420190A848007A1F
:1056C000C0F3C10054F820000290A548007A00F011
:1056D000200010B1029840420290A148007AC0F325
:1056E000811054F8200003909D48008900F48070D8
:1056F00010B10398404203909A49019880FB010140
:10570000800F40EA810001909649029880FB0110C9
:10571000820042EA917002909249039880FB011046
:10572000820042EA917003900198000E8DF800000B
:105730000198000C8DF801000198000A8DF8020014
:105740000198C0B28DF803006A4604214FF47470CA
:10575000FFF7FBFA18B14FF0FF3004B010BD02980C
:10576000000E8DF800000298000C8DF801000298E0
:10577000000A8DF802000298C0B28DF803006A4654
:1057800004214FF47570FFF7E0FA10B14FF0FF30CD
:10579000E3E70398000E8DF800000398000C8DF8E5
:1057A00001000398000A8DF802000398C0B28DF83A
:1057B00003006A4604214FF47670FFF7C6FACCE77F
:1057C00070B588B0064601A8FEF7A6FCBDF8040037
:1057D0000021C90341EA5045C4036148007A00F042
:1057E000030056F8200005905D48007A00F00400A0
:1057F00010B10598404205905948007AC0F3C100A5
:1058000056F8200006905648007A00F0200010B1AB
:105810000698404206905248007AC0F3811056F82C
:10582000200007904E48008900F4807010B107985E
:10583000404207900598C117A0FB042301FB0431E7
:1058400000FB0510810041EA927005900698C1178F
:10585000A0FB042301FB043100FB0510810041EA99
:10586000927006900798C117A0FB042301FB043136
:1058700000FB0510810041EA927007900598000E28
:105880008DF808000598000C8DF809000598000AAD
:105890008DF80A000598C0B28DF80B000698000E2E
:1058A0008DF80C000698000C8DF80D000698000A83
:1058B0008DF80E000698C0B28DF80F000798000E04
:1058C0008DF810000798000C8DF811000798000A59
:1058D0008DF812000798C0B28DF8130002AA0C21AF
:1058E0004FF42570FFF731FA08B070BD30B585B0C0
:1058F00004461DA207CA02AB07C3C82C03DD4FF044
:10590000FF3005B030BDC82090FBF4F0401E85B2DA
:10591000280A8DF80000E8B28DF801006A460221DD
:1059200040F21620FFF711FA10B14FF0FF30E8E710
:1059300002AA0C2140F6C120FFF707FA10B14FF080
:10594000FF30DEE7064884810020DAE7F4450108ED
:105950004CCD6C000CC92C003656760026466600ED
:10596000541E002009E3CA02FEF2ABC4AAF1DFDF35
:10597000BBAFDFDF0146F94880890880002070470F
:10598000F0B52DED028B83B006460F4606F00700FA
:1059900010B1B7F5C86F05DD4FF0FF3003B0BDECB7
:1059A000028BF0BD00EE107AB8EE400ADFEDEC0A93
:1059B00080EE208A01A8FEF72BFB9DF80400022848
:1059C00006D0042817D0082828D010284CD138E059
:1059D0009FEDE40A28EE000ABCEEC00A10EE100AA1
:1059E00084B29FEDE10A28EE000ABCEEC00A10EE78
:1059F000100A85B23BE09FEDDD0A28EE000ABCEEFE
:105A0000C00A10EE100A84B29FEDD90A28EE000AEF
:105A1000BCEEC00A10EE100A85B228E09FEDD50A50
:105A200028EE000ABCEEC00A10EE100A84B29FED08
:105A3000D20A28EE000ABCEEC00A10EE100A85B2A7
:105A400015E09FEDCE0A28EE000ABCEEC00A10EE6B
:105A5000100A84B29FEDCA0A28EE000ABCEEC00A02
:105A600010EE100A85B202E04FF0FF3096E700BF5B
:105A700020128DF80800E0B28DF8090028128DF888
:105A80000A00E8B28DF80B0006F00100A0B102AAEE
:105A900002214FF4EA70FFF758F910B14FF0FF30D0
:105AA0007CE70DF10A0202214FF49270FFF74DF9E5
:105AB00010B14FF0FF3071E706F00200A0B102AA6A
:105AC00002214FF4EC70FFF740F910B14FF0FF30B6
:105AD00064E70DF10A0202214FF49470FFF735F9E3
